:100000000C945C020C9484020C9484020C94840280
:100010000C9484020C9484020C9484020C94840248
:100020000C9484020C9484020C9484020C94840238
:100030000C9484020C9484020C9484020C94840228
:100040000C94BE1E0C9484020C942E1F0C94081F5A
:100050000C9484020C9484020C9484020C94840208
:100060000C9484020C94840200407A10F35A00A08D
:10007000724E18090010A5D4E80000E87648170071
:1000800000E40B54020000CA9A3B000000E1F505B1
:10009000000080969800000040420F000000A086FB
:1000A00001000000102700000000E803000000002D
:1000B0006400000000000A000000000001000000D1
:1000C00000002C76D888DC674F0823DFC1DFAE59EB
:1000D000E1B1B796E5E3E453C63AE651997696E87E
:1000E000E6C28426EB898C9B62ED407C6FFCEFBC02
:1000F0009C9F40F2BAA56FA5F490055A2AF75C932D
:100100006B6CF9676DC11BFCE0E40D47FEF520E662
:10011000B500D0ED902E0300943577050080841E45
:10012000080000204E0A000000C80C333333330FA0
:10013000986E12831141EF8D2114893BE65516CF3D
:10014000FEE6DB18D1844B381BF77C1D901DA4BB49
:10015000E424203284725E228100C9F124ECA1E5FE
:100160003D2725732573007B227375636365737365
:10017000223A66616C73652C22636F6465223A349F
:1001800030347D004F4646004F4E007B227375632E
:1001900063657373223A747275652C2272656C61A3
:1001A00079223A25757D005B5250435D2052656C83
:1001B00061792073657420746F3A20005B5250435C
:1001C0005D20537461747573207265717565737405
:1001D0006564007B2273756363657373223A74727E
:1001E00075652C2272656C6179223A25752C227511
:1001F0007074696D65223A256C757D00676574536E
:1002000074617475730073657452656C6179000A6A
:100210005B5250435D2052656365697665643A00C0
:100220005B424F4F545D20496E697469616C697A15
:100230006174696F6E20436F6D706C657465000A40
:100240005B424F4F545D204E6F64653120537461A3
:100250007274696E672E2E2E000A5B4C4F4F505DF4
:100260002053616D706C696E67202B2053656E643E
:10027000696E672E2E2E0000000000240027002A41
:100280000000000000250028002B000000000800EE
:100290000201000003040700000000000000005BF2
:1002A00054454C5D204D515454204E4F5420434FE3
:1002B0004E4E454354454420E29D8C005B54454CD2
:1002C0005D205075626C697368696E672E2E2E0012
:1002D0004E4F00594553005B54454C5D204A534FE7
:1002E0004E3A002D2D2D2D2D2D2D2D2D2D2D2D2D3D
:1002F0002D2D2D2D2D2D2D2D2D2D2D2D2D2D2D2D2E
:100300002D2D002073656300557074696D65202084
:1003100020203A20004F4646004F4E004572726F33
:100320007220202020203A20004F4646004F4E00E9
:1003300052656C617920202020203A20004D6163B5
:1003400068696E652020203A2000566962726174E7
:10035000696F6E203A200020C2B043004C4D333507
:100360002054656D70203A200020250048756D6985
:100370006469747920203A200020C2B0430054659B
:100380006D702028444854293A20005B54454C5D48
:100390002053656E64696E6720446174613A000A97
:1003A0002D2D2D2D2D2D2D2D2D2D2D2D2D2D2D2D7D
:1003B0002D2D2D2D2D2D2D2D2D2D2D2D2D2D2D009A
:1003C0005B54454C5D204552524F523A20736E703B
:1003D00072696E7466206661696C656421007B22B7
:1003E00074656D7065726174757265223A25732C3F
:1003F0002268756D6964697479223A25732C226CC0
:100400006D333554656D70223A25732C22766962FE
:10041000726174696F6E223A25752C226D61636872
:10042000696E65537461747573223A25752C227256
:10043000656C61795374617465223A25752C227359
:10044000656E736F724572726F72223A25752C2237
:10045000757074696D65223A256C757D005B544535
:100460004C5D204552524F523A2042756666657285
:10047000206E6F7420696E697469616C697A656455
:1004800021000000000023002600290004040404C9
:10049000040404040202020202020303030303032E
:1004A000010204081020408001020408102001020B
:1004B00004081020601F442A11241FBECFEFD8E08B
:1004C000DEBFCDBF13E0A0E0B1E0E2E1F9E602C09B
:1004D00005900D92A235B107D9F726E0A2E5B3E069
:1004E00001C01D92A335B207E1F712E0CBE5D2E0DF
:1004F00004C02197FE010E94DC32CA35D107C9F73A
:100500000E946E200C947C340C940000CF92DF92F9
:10051000EF92FF92CF93DF93B0914306A0E0811159
:10052000AB2F8091440690E0880F991FAC014E5785
:100530005B4FC0904906D0904A06E0904B06F09081
:100540004C0630E020E0FA01C591D491E881B90170
:1005500090E080E0EB23EA130AC02F5F3F4F6C1559
:100560007D058E059F0578F36FEF7FEFCB01DF915F
:10057000CF91FF90EF90DF90CF9008958CBD9DBDFF
:10058000089520E3FC0120833296862F82958F7098
:100590006F706A3030F4605D6293682F8111F5CF1F
:1005A0000895695CF9CFCF93DF93EC01FA0132969D
:1005B000E60FF71FDC019D012C1B3D0BCF01861BB5
:1005C000970B4D91442311F04193F5CFAC01421BA1
:1005D000530B640F751FFB01329730836150710913
:1005E000FB012083DF91CF910895FC01818D928DD5
:1005F00008950895833081F028F4813099F0823095
:10060000A9F008958730A9F08830C9F08430B1F49A
:10061000809180008F7D03C0809180008F778093D0
:100620008000089584B58F7784BD089584B58F7D4B
:10063000FBCF8091B0008F778093B00008958091B8
:10064000B0008F7DF9CF1F93CF93DF93282F30E039
:10065000F901E557FD4F8491F901E056FB4FD49124
:10066000F901E457FB4FC491CC23A9F0162F811157
:100670000E94FA02EC2FF0E0EE0FFF1FEF57FD4F44
:10068000A591B4918FB7F894EC91111108C0D09551
:10069000DE23DC938FBFDF91CF911F910895DE2B76
:1006A000F8CFCF93DF9390E0FC01E056FB4F24910D
:1006B00084579B4FFC0184918823D1F090E0880FF0
:1006C000991FFC01E958FD4FA591B491FC01EF572A
:1006D000FD4FC591D491623071F49FB7F8943C916D
:1006E000822F809583238C93E8812E2B28839FBFB4
:1006F000DF91CF9108958FB7F894EC912E2B2C9326
:100700008FBFF6CF8E50806480937C0080917A00FA
:10071000806480937A0080917A0086FDFCCF80917E
:1007200078009091790008953FB7F8948091DD04A6
:100730009091DE04A091DF04B091E00426B5A89B5F
:1007400005C02F3F19F00196A11DB11D3FBFBA2F63
:10075000A92F982F8827BC01CD01620F711D811D23
:10076000911D42E0660F771F881F991F4A95D1F7A8
:1007700008958F929F92AF92BF92CF92DF92EF92A5
:10078000FF924B015C010E9494036B017C010E946B
:1007900094036C197D098E099F09683E7340810599
:1007A0009105A8F321E0821A9108A108B10888EE0A
:1007B000C80E83E0D81EE11CF11C81149104A10431
:1007C000B10429F7FF90EF90DF90CF90BF90AF90EA
:1007D0009F908F9008952FB7F8946091D9047091ED
:1007E000DA048091DB049091DC042FBF0895CF924E
:1007F000DF92EF92FF920F931F93CF93DF93CDB7CA
:10080000DEB7C054D1400FB6F894DEBF0FBECDBFE7
:100810000E94EB0300914506109146062091470681
:10082000309148066B017C01C01AD10AE20AF30A32
:1008300097018601003D17402105310590F4809114
:100840004D06C05CDE4F0FB6F894DEBF0FBECDBFC5
:10085000DF91CF911F910F91FF90EF90DF90CF909C
:1008600008956093450670934606809347069093DB
:1008700048061092400610923F0610923E061092D3
:100880003D0610923C0662E0809141060E945103B1
:1008900061E070E080E090E00E94B90361E0809147
:1008A00041060E94510360E0809141060E942303AB
:1008B000809142068551823020F58BE291E10197CB
:1008C000F1F762E0809141060E94510380914E064B
:1008D00090E08230910538F0880F991F880F991F9A
:1008E00005970197F1F7F89480E00E9486026F3F28
:1008F0007F4F8F4F9F4F61F410924D06789480E0A8
:10090000A0CF64E170E080E090E00E94B903D9CF0D
:1009100081E00E9486026F3F7F4F8F4F9F4F61F3B0
:100920008E010F5F1F4F6E012FEBC21A2EEFD20AFE
:10093000780180E00E948602F701608371838283E0
:10094000938381E00E948602F70164837583868326
:100950009783F8E0EF0EF11CEC14FD0451F7789446
:1009600030E020E0F801C080D180E280F380448153
:10097000558166817781FFEFCF16DF06EF06FF0610
:1009800031F04F3F8FEF58076807780719F410923E
:100990004D06B5CFF90183E0F595E7958A95E1F726
:1009A000E45CF94F8081880FC416D506E606F70689
:1009B00010F180832F5F3F4F085F1F4F28323105B2
:1009C00089F64091400620913C0680913D06280F13
:1009D0003327331F80913E06280F311D80913F063B
:1009E000820F932F911D99274817190681F681E0F0
:1009F00080934D0626CF8160DCCFAF92BF92CF921D
:100A0000DF92EF92FF920F931F93CF93DF936C01CE
:100A10007B018B01040F151FEB015E01AE18BF08AF
:100A2000C017D10759F06991D601ED91FC91019061
:100A3000F081E02DC6010995892B79F7C501DF9179
:100A4000CF911F910F91FF90EF90DF90CF90BF90CB
:100A5000AF900895FC01538D448D252F30E0842FF5
:100A600090E0821B930B541710F0CF9608950197D6
:100A70000895FC01918D828D981761F0A28DAE0FC3
:100A8000BF2FB11D5D968C91928D9F5F9F73928F4A
:100A900090E008958FEF9FEF0895FC01918D828D76
:100AA000981731F0828DE80FF11D858D90E0089543
:100AB0008FEF9FEF0895FC01918D228D892F90E09B
:100AC000805C9F4F821B91098F739927089583E162
:100AD00095E00E945B0521E0892B09F420E0822F3C
:100AE000089580E090E0892B29F00E94670581112C
:100AF0000C9400000895FC01A48DA80FB92FB11D1E
:100B0000A35ABF4F2C91848D90E001968F73992743
:100B1000848FA689B7892C93A089B1898C91837021
:100B200080648C93938D848D981306C00288F3891A
:100B3000E02D80818F7D80830895EF92FF920F9347
:100B40001F93CF93DF93EC0181E0888F9B8D8C8D79
:100B500098131AC0E889F989808185FF15C09FB76D
:100B6000F894EE89FF896083E889F9898081837030
:100B7000806480839FBF81E090E0DF91CF911F91DF
:100B80000F91FF90EF900895F62E0B8D10E00F5F00
:100B90001F4F0F731127E02E8C8D8E110CC00FB6D6
:100BA00007FCFACFE889F989808185FFF5CFCE016E
:100BB0000E947B05F1CFEB8DEC0FFD2FF11DE35A69
:100BC000FF4FF0829FB7F8940B8FEA89FB898081F1
:100BD0008062CFCFEF92FF920F931F93CF93DF935B
:100BE0008C017B01D0E0C0E0F701EC0FFD1F6491A8
:100BF000662339F0C8010E949D05892B11F02196CA
:100C0000F3CFCE01DF91CF911F910F91FF90EF9025
:100C10000895CF93DF93EC01888D8823B9F0AA89DA
:100C2000BB89E889F9898C9185FD03C0808186FDA7
:100C30000DC00FB607FCF7CF8C9185FFF2CF8081F6
:100C400085FFEDCFCE010E947B05E9CFDF91CF91EB
:100C50000895CF93DF93FC01A481B581109711F41F
:100C600080E029C0EC01ED91FC9111970688F7898D
:100C7000E02DCD0109952FA138A5811119C0232B95
:100C800079F78DEF9FEF98A78FA38C819D81DC0171
:100C9000ED91FC910680F781E02D09958C819D8175
:100CA000DC01ED91FC910488F589E02D0995D8CF00
:100CB00081E0232BA9F6DF91CF910895CF92DF92A7
:100CC000EF92FF920F931F93CF93DF9300D000D04A
:100CD000CDB7DEB78C01F90180E0DE0111967D0110
:100CE0009E2F9F77EE0FEF2FEE1FFF0BF1953097A2
:100CF00009F09068D701A80FB11D9C938F5F3097C2
:100D000079F790E0FA01E81BF90B6483FA01E81B1C
:100D1000F90B3596D701BD016E197F096817790760
:100D20001CF46D916193F7CFFC013196D8011496B4
:100D30008D919C917F01E20EF31EBA016E1B7F0B19
:100D40006B5F7F4FDC01ED91FC910280F381E02D20
:100D5000A70109956C010E94EB03F801608B718B70
:100D6000828B938B81E0EC14FD0409F080E00F90FE
:100D70000F900F900F90DF91CF911F910F91FF90E7
:100D8000EF90DF90CF900895EF92FF920F931F9313
:100D9000CF93DF93EC018B017A010E94EB03688B08
:100DA000798B8A8B9B8B8C819D81DC01ED91FC91F1
:100DB0000280F381E02DA701B801DF91CF911F914F
:100DC0000F91FF90EF9009941F93CF93DF93EC0165
:100DD000162F0E94EB03688B798B8A8B9B8B8C81FF
:100DE0009D81DC01ED91FC910190F081E02D612F5E
:100DF000DF91CF911F9109948F929F92AF92BF92F2
:100E0000CF92DF92EF92FF920F931F93CF93DF93D6
:100E1000EC018B010E94EB034B015C018C819D81F5
:100E2000DC01ED91FC910084F185E02D0995892B81
:100E3000A9F40E94EB036B017C01C818D908EA08E9
:100E4000FB082C853D85A8EEB3E00E948A30C616CB
:100E5000D706E806F90610F380E00CC08C819D816E
:100E6000DC01ED91FC910284F385E02D0995F801F8
:100E7000808381E0DF91CF911F910F91FF90EF90E0
:100E8000DF90CF90BF90AF909F908F9008953F924A
:100E90004F925F926F927F928F929F92AF92BF928A
:100EA000CF92DF92EF92FF920F931F93CF93DF9336
:100EB000CDB7DEB764970FB6F894DEBF0FBECDBFD7
:100EC0008C016B01DC0116966D917C910E94FC06F1
:100ED00081111BC060E070E0CB0164960FB6F894FE
:100EE000DEBF0FBECDBFDF91CF911F910F91FF905D
:100EF000EF90DF90CF90BF90AF909F908F907F90BA
:100F00006F905F904F903F900895D8011696ED91A5
:100F1000FC9130801982E1E0F0E0FB83EA83412C10
:100F2000512C3201812C912C54018394BE016F5FAE
:100F30007F4FC8010E94FC06882361F2EA80FB8093
:100F4000BFEFEB1AFB0A8981D8011696ED91FC914F
:100F50002A813B81E20FF31F8083E981AE2FAF77B7
:100F6000B0E0A50194010E941E30460E571E681E77
:100F7000791E37E0880C991CAA1CBB1C3A95D1F746
:100F8000E7FD44C0332D307F332E8FEF8E0DD60119
:100F90008C93B0E33B1353C0F801668177816E0DEB
:100FA0007F1DC8010E94FC06882309F493CFD80155
:100FB00016966D917C918A819B810296680F791FAC
:100FC000C8010E94FC06882309F484CFEA80FB80D4
:100FD000B3E0EB0EF11CD8011696ED91FC91D60111
:100FE0008C91DF01A80FB11D11968C91119790E0A3
:100FF000982F882712962C91820F911D208121FD18
:101000000296F2E0E0E030E020E01FC0FB82EA82DE
:1010100097012530310509F089CF8FEF9FEFD80177
:1010200098969C938E93979714968D919C91DC0142
:10103000ED91FC910488F589E02D09954BCFF0E006
:10104000E0E030E020E090E080E0A70170E060E0C8
:101050008F2E9E2EA32EB22E481959096A097B099C
:101060004E835F83688779879C0150E040E02B873F
:101070003C874D875E874E815F8168857985480D05
:10108000591D6A1D7B1D4A835B836C837D83841499
:101090009504A604B70408F051C0BE016F5F7F4FEE
:1010A000C8010E94FC06882309F414CFD801959644
:1010B0000D90BC91A02DBC8BAB8BAB2B49F1B0E359
:1010C0003B1226C0F60120814EEF5FEF6FEF7FEFFE
:1010D000421B5109610971098A819B81AC81BD81E3
:1010E000480F591F6A1F7B1F8B859C85AD85BE8568
:1010F00084179507A607B70758F4AB89BC89ED910B
:10110000FC9111970190F081E02D6981CD01099545
:10111000F80180859185E816F90650F489810680EA
:10112000F781E02DEE0DFF1D8083FFEFEF1AFF0A20
:101130002FEF821A920AA20AB20A9DCFD801959681
:101140008D919C919697892B81F418968D919C9105
:10115000B0E0A0E02A813B814C815D81821793073A
:10116000A407B50710F4F12CE12CB70190E080E062
:10117000B4CEFC0120812EBD9B012150310941F0EC
:1011800051810DB407FEFDCF4EB55EBD4193F5CF45
:1011900061507109860F971F0DB407FEFDCF2EB564
:1011A000FC0120830895E0915303F0915403808162
:1011B00090915203892B80830895E0915303F0911D
:1011C00054039081809152038095892380830895F0
:1011D0008EBD00000DB407FEFDCF8EB50895AF9211
:1011E000BF92CF92DF92EF92FF920F931F93CF9314
:1011F000DF93CDB7DEB728970FB6F894DEBF0FBEEA
:10120000CDBF8C017B016A018091FD048333E1F441
:101210005801A40EB51EA016B10609F46FC00E94B5
:10122000DD0880EF0E94E808812F0E94E808802FE7
:101230000E94E8080F5F1F4FF70181917F010E9414
:10124000E8080E94D308E7CF5B01A40EB51E8433E3
:10125000C1F40E94DD0819830A838D2D80688B8379
:10126000CC8264E070E0CE0101960E94B908AE1411
:10127000BF0409F441C0F70181917F010E94E80891
:10128000F6CF0E94DD080F3F110509F028F41982FE
:101290000A8384E08B830CC017FD17C019820A8370
:1012A00033E0169507953A95E1F7007E0C600B83C5
:1012B00086E0C816D104A0F5F701DE011496EA1500
:1012C000FB0599F081918D93FACFC80126E09695A0
:1012D00087952A95E1F7807E19830A830115104CC2
:1012E00010F48461D7CF8C61D5CFB6016D5F7F4F8D
:1012F000CE0101960E94B9080E94D308C601289623
:101300000FB6F894DEBF0FBECDBFDF91CF911F9116
:101310000F91FF90EF90DF90CF90BF90AF90089526
:1013200063E070E0CE0101960E94B908F701819157
:101330007F010E94E808AE14BF04C1F7DDCFCF9350
:10134000DF931F92CDB7DEB7898341E050E0BE0145
:101350006F5F7F4F90E080E00E94EF080F90DF9179
:10136000CF91089590E02091FD04233339F40C9639
:10137000982F990F990F990F80E008954896F8CF0C
:10138000DA01E0915603F0E0FE2FEE27E60FF71F9B
:1013900090E0982F8827A901BD018E0F9F1F0C9404
:1013A000EF08CF93DF9300D0CDB7DEB779836A83A0
:1013B00022E030E0AE014F5F5F4F60E170E00E94DD
:1013C000C0090F900F90DF91CF910895CF93DF93D5
:1013D00000D0CDB7DEB779836A8322E030E0AE017A
:1013E0004F5F5F4F64E070E00E94C0090F900F9064
:1013F000DF91CF910895CF93DF931F92CDB7DEB7E2
:101400002091560330E0322F2227260F371F90E01D
:10141000982F8827498341E050E0BE016F5F7F4FDE
:10142000820F931F0E94EF080F90DF91CF910895D4
:10143000CF93DF931F92CDB7DEB76983DC01ED91C7
:10144000FC910280F381E02D41E050E0BE016F5F2E
:101450007F4F09950F90DF91CF9108950895FC017A
:101460009485FB018485981303C081E0943008F0D3
:1014700080E00895CF93DF931F92CDB7DEB76983E5
:10148000DC01ED91FC910280F381E02D41E050E020
:10149000BE016F5F7F4F09950F90DF91CF91089547
:1014A0000895FF920F931F93CF93DF93EB01FC01FD
:1014B000178A168A2A81211109C02B81211106C0A1
:1014C0002C81211103C02D81222301F141155105E9
:1014D000E9F08A01FC01F08C80E591E00E94BE02F7
:1014E000AE014E5F5F4F24E030E06CE070E08F2D86
:1014F0000E94C009B8018F2D0E94D10981E090E0BF
:10150000DF91CF911F910F91FF90089580E0F7CF69
:10151000FC01848595850895FC0184899589089549
:101520002DE931E0FC0131832083FB0140895189A1
:1015300062897389FC0142835383648375830895B0
:10154000DC01ED91FC91048CF58DE02D099490E087
:1015500080E00895FC01768765870895DC01ED91B0
:10156000FC9102A0F3A1E02D099591E0892708954F
:10157000862F089581E08627089521E0FC01848567
:10158000843008F020E0822F08950895AF92BF9232
:10159000CF92DF92EF92FF920F931F93CF93DF933F
:1015A0007C016B01EA0189010E942906882309F464
:1015B00042C0D7011896AD90BC90B501C6010E94FB
:1015C0001A2B9801295F3F4F820F931FA816B90667
:1015D00090F1F7016681778145E050E0C6010E94F5
:1015E000D302BE01600F711FFE01EC01CE1BDF0BA9
:1015F0006E01CE0EDF1ED70116964D915C916E17CF
:101600007F0731F02191D601A40FB51F2C93F0CFA5
:10161000055011099801280F391F60E3C701DF91B8
:10162000CF911F910F91FF90EF90DF90CF90BF90DF
:10163000AF900C945E0680E0DF91CF911F910F91E7
:10164000FF90EF90DF90CF90BF90AF900895CF9232
:10165000DF92EF92FF920F931F93CF93DF93CDB75B
:10166000DEB7C054D1090FB6F894DEBF0FBECDBFB0
:101670008B019F938F938FE991E09F938F9382E6E5
:1016800091E09F938F931F9280E48F93CE010196F8
:101690006C019F938F930E94252BE090C303F090E1
:1016A000C4030FB6F894DEBF0FBECDBF90E080E05C
:1016B0000115110531F0F70160857185C8010E949F
:1016C0001A2B9C01A801B601C7010E94C60AC05C82
:1016D000DF4F0FB6F894DEBF0FBECDBFDF91CF91C5
:1016E0001F910F91FF90EF90DF90CF900895CF93CF
:1016F000DF93EC0187E691E09F938F938091C00385
:101700001F928F938091C2038F938091C1038F9317
:101710000E94252B0F900F900F900F900F900F901D
:101720006091C1037091C203CE01DF91CF910C94FF
:10173000270BDC018DE991E08D939D9384E0FB0103
:1017400001900D928A95E1F70895AF92BF92CF92E2
:10175000DF92EF92FF920F931F93CF93DF9300D00E
:1017600000D0CDB7DEB78C016B017A018091FD040A
:101770008333E9F45B016801C40ED51EC016D1069F
:10178000A9F10E94DD088FE00E94E808812F0E94E5
:10179000E808802F0E94E8080F5F1F4F80E00E943A
:1017A000E808F50181935F010E94D308E7CF8433F5
:1017B00069F50E94DD0819830A838F2D8F778B834B
:1017C000EC8264E070E0CE0101960E94B908A701A6
:1017D00070E060E0C6010E942F34E114F10421F0B2
:1017E000B701C6010E94B9080E94D308C7010F9033
:1017F0000F900F900F90DF91CF911F910F91FF905D
:10180000EF90DF90CF90BF90AF9008950E94DD08D9
:101810000F3F110509F030F419820A831B8263E03F
:1018200070E0D1CF17FD0BC019820A8333E0169503
:1018300007953A95E1F7007E08600B83F0CFC80169
:1018400026E0969587952A95E1F7807E19830A838D
:101850000115104C18F480618B83E1CF8861FCCFB7
:10186000CF93DF931F92CDB7DEB72091560330E0C0
:10187000322F2227260F371F90E0982F882741E02C
:1018800050E0BE016F5F7F4F820F931F0E94A50B38
:1018900089810F90DF91CF910895CF93C82F462F64
:1018A00061E070E00E94FB0961E070E08C2F0E9413
:1018B000300C8111F9CFCF910895CF93C82F80E5D7
:1018C00091E00E94BE0268E070E08C2FCF910C94F2
:1018D0004D0CCF93C82F80E591E00E94BE0260E1DD
:1018E00070E08C2FCF910C944D0CCF93DF93EC01D3
:1018F000888D843020F40E94690C84E0888FDF9109
:10190000CF910895CF93C82F80E591E00E94BE0249
:1019100063E070E08C2FCF910C94300CCF93DF9369
:10192000EC018C858430D0F40E94820C843189F0E3
:10193000882379F0883169F021E08C3159F4E8810D
:10194000F9810084F185E02DCE01099521E0892BF4
:1019500009F420E0822FDF91CF91089580E0FBCF42
:10196000CF92DF92EF92FF92CF93DF93EC018C85C1
:10197000843068F40E945D0C0E94EB036B017C01D3
:101980008C850E94820C811109C084E08C87DF91D4
:10199000CF91FF90EF90DF90CF90089561E070E0DD
:1019A00080E090E00E94B9030E94EB03AB01BC0110
:1019B0004C195D096E097F098D859E85B0E0A0E018
:1019C000481759076A077B07D8F28C850E94690C73
:1019D000DCCFCF93FC01C08D80E591E00E94BE0278
:1019E00060E270E08C2F0E944D0C62E070E08C2F62
:1019F0000E94300C84FD16C062E070E08C2F0E94C3
:101A0000300C83FF0AC048E162E070E08C2F0E9436
:101A1000FB0980E090E0CF91089580E591E00E947D
:101A2000BE02E3CF40E162E070E08C2F0E94FB0930
:101A300081E0F0CFCF93DF931F92CDB7DEB741E0C7
:101A400050E0BE016F5F7F4F90E080E00E94A50BE9
:101A500089810F90DF91CF910895CF93DF93C4E1F7
:101A6000D0E00E941A0D882361F061E070E080E010
:101A700090E00E94B9032197A1F780E0DF91CF9118
:101A8000089581E0FBCF1F93CF93DF931F92CDB7D3
:101A9000DEB7182F80E591E00E94BE02812F0E94E0
:101AA000B20927E0129FF0011124EF51FB4F228170
:101AB0003381377041E050E0BE016F5F7F4F820F8E
:101AC000931F0E94A50B89810F90DF91CF911F91E9
:101AD0000895FC01808D843040F4218D328D232BBC
:101AE00021F00E94430D90E008958FEF9FEF08953D
:101AF000CF93DF93FC012485243028F08FEF9FEFF4
:101B0000DF91CF910895EC010190F081E02D0084E8
:101B1000F185E02D0995892B89F38C850E94430D71
:101B200090E0EECFDA01E0915603F0E0FE2FEE27D1
:101B3000E60FF71F90E0982F8827A901BD018E0FAF
:101B40009F1F0C94A50B8F929F92AF92BF92CF9242
:101B5000DF92EF92FF921F93CF93DF93CDB7DEB763
:101B60002C970FB6F894DEBF0FBECDBF2091FD04B9
:101B700014E0222339F16B017C0180E591E00E94A1
:101B8000BE025E0127E0A20EB11C450110E063E039
:101B900070E0812F0E94300CF40181934F01882363
:101BA00049F11F5F143099F710E0F50181915F0151
:101BB0008D31D9F08831C9F08A518230B0F01F5F81
:101BC000143099F7812F2C960FB6F894DEBF0FBE14
:101BD000CDBFDF91CF911F91FF90EF90DF90CF901D
:101BE000BF90AF909F908F90089560E170E0812F3B
:101BF0000E944D0CA12EB12C83EE93E00197F1F7DA
:101C000042E870E060E0812F0E94FB094FEF62E044
:101C100070E0812F0E94FB09B601C114D10491F438
:101C2000809106019091070101968115F0EC9F07C4
:101C300008F45CC09093070180930601609106014F
:101C400070910701812F0E94E60986E0E2E1F1E050
:101C5000DE01119601900D928A95E1F7F7018381DB
:101C60008F778C8384818D8385818E83A7014E5FDE
:101C70005F4F24E030E06CE070E0812F0E94C009EB
:101C8000B601812F0E94D10926E030E0AE014F5FFE
:101C90005F4F66E070E0812F0E94C00961E070E054
:101CA000812F0E944D0C27E02A9DC0012B9D900D95
:101CB00011249C012F513B4F7901F90111821082AF
:101CC00022E030E0AE01455F5F4F68E270E0812FB7
:101CD0000E94920D8B859C85982789279827F7016C
:101CE000938382831682158214826CCF80E090ECFD
:101CF000A1CFCF92DF92EF92FF920F931F93CF93DA
:101D0000DF9300D000D000D0CDB7DEB78C016B01DF
:101D10007A01FC01808D843010F40E94690C8DE9F9
:101D200091E09A838983F60182819381A481B581B0
:101D30008B839C83AD83BE83B701CE0101960E9445
:101D4000A30DF801808F8430A0F4F586E486128E0E
:101D5000118E81E026960FB6F894DEBF0FBECDBF80
:101D6000DF91CF911F910F91FF90EF90DF90CF9077
:101D7000089580E0EFCFAF92BF92CF92DF92EF92C3
:101D8000FF920F931F93CF93DF9300D000D000D02A
:101D9000CDB7DEB7082F6B0180E591E00E94BE024F
:101DA0009E012F5F3F4F7901590110E063E070E021
:101DB000812F0E94300CF50181935F01882341F14E
:101DC0001F5F143099F710E0F70181917F018D3189
:101DD000D1F08831C1F08A518230A8F01F5F1430F1
:101DE00099F7812F26960FB6F894DEBF0FBECDBFB0
:101DF000DF91CF911F910F91FF90EF90DF90CF90E7
:101E0000BF90AF90089560E170E0812F0E944D0C6B
:101E1000E12EF12C83EE93E00197F1F7402F70E073
:101E200060E0812F0E94FB094FEF62E070E0812F9C
:101E30000E94FB09B601CD2889F48091060190919A
:101E4000070101968115F0EC9F0798F19093070127
:101E5000809306016091060170910701812F0E9415
:101E6000E60961E070E0812F0E944D0C27E02E9D75
:101E7000C0012F9D900D11249C012F513B4F7901E2
:101E8000F9011182108222E030E0AE014B5F5F4F1A
:101E900068E270E0812F0E94920D8D819E819827CB
:101EA00089279827F70193838283168215821482EB
:101EB00098CF80E090ECCACFCF92DF92EF92FF9262
:101EC0001F93CF93DF93EC017B016A018C858430F3
:101ED00048F40E94820C882319F08C850E945D0CC6
:101EE00084E08C87F70182819381A481B58100977A
:101EF000A105B10551F490E080E0DF91CF911F91F1
:101F0000FF90EF90DF90CF9008958F3F9F4FAF4F9E
:101F1000BF4F89F38091FD04811103C084E08C8759
:101F2000EACF70E060E081E20E94BB0E182F8C8740
:101F3000843008F780E591E00E94BE02A7014E5F61
:101F40005F4F24E030E06CE070E0812F0E94C00918
:101F5000B601812F0E94D10964E070E0812F0E94B8
:101F60004D0C0E94EB036B017C018C850E94820C5E
:101F7000873109F18C31F9F0882309F4BCCF0E9434
:101F8000EB03AB01BC014C195D096E097F098D851E
:101F90009E85B0E0A0E084179507A607B70738F044
:101FA00061E070E080E090E00E94B903DECF8C85B4
:101FB0000E94690CB3CF81E090E09FCF0F931F93F5
:101FC000CF93DF93EC018B01888D843010F40E9455
:101FD000690C8091FD04811107C094E0988FDF9116
:101FE000CF911F910F910895B80182E00E94BB0E1E
:101FF000888F843030F41D870C871A8E198E81E00B
:10200000EECF80E0ECCF7F928F929F92AF92BF9203
:10201000CF92DF92EF92FF920F931F93CF93DF93B4
:1020200000D0CDB7DEB7782E8B014A01590122E0EE
:1020300030E0AE014F5F5F4F64E270E00E94920DAE
:10204000E980FA80FE24EF24FE24E00EF11E9701C1
:1020500037704091FD04072D10E0433309F042C072
:10206000085F1F4F102F0027110F110F110FC9010B
:10207000800F911F4733C9F1A9014A0D5B1D413003
:10208000584098F160E078E06B01C21AD30AA601CB
:10209000B4010E94EF08A5014C195D09B4016C0D53
:1020A0007D1DC8010E94EF08EA0CFB1CF982EA8240
:1020B00022E030E0AE014F5F5F4F64E270E0872DB9
:1020C0000E94C0090F900F90DF91CF911F910F9147
:1020D000FF90EF90DF90CF90BF90AF909F908F9048
:1020E0007F900895005F1F4FBDCFA501B401DACFE7
:1020F000EF92FF921F93CF93DF9300D0CDB7DEB75F
:10210000182F22E030E0AE014F5F5F4F60E270E0D9
:102110000E94920DE980FA80FE24EF24FE2422E042
:1021200030E0AE014F5F5F4F60E270E0812F0E94B0
:10213000920D89819A81982789279827E816F906B0
:1021400089F487E0189FF0011124EF51FB4FF582CD
:10215000E482C7010F900F90DF91CF911F91FF9004
:10216000EF9008957C01DBCF1F93CF93DF93182F5F
:1021700080E591E00E94BE02812F0E947810EC0160
:1021800063E070E0812F0E94300C873121F08C31A8
:1021900011F0D0E0C0E0CE01DF91CF911F91089502
:1021A000CF93DF93EC018C85843060F40E94820C25
:1021B000873111F08C3131F48C850E94B410811577
:1021C000984088F3DF91CF910895FC018485843095
:1021D00010F40C94B41090E080E008959F92AF92B8
:1021E000BF92CF92DF92EF92FF920F931F93CF9304
:1021F000DF938C015B01942EE52EFC01C688D78805
:10220000F08C80E591E00E94BE028F2D0E94781034
:10221000C92DDE2D8C179D0708F4EC019E01A50148
:10222000B6018F2D0E940310F801868997898C0FC3
:102230009D1F978B868BCE01DF91CF911F910F91C0
:10224000FF90EF90DF90CF90BF90AF909F90089558
:102250008F929F92AF92BF92CF92DF92EF92FF92B6
:102260000F931F93CF936C015B018A01FC01C4851E
:10227000C430F0F57A014130584018F0E12C88E084
:10228000F82E80E591E00E94BE028C2F0E9478100B
:102290004C0163E070E08C2F0E94300C873111F00C
:1022A0008C3149F58E149F0460F380E591E00E9423
:1022B000BE029701A50170E060E08C2F0E94031020
:1022C00060E270E08C2F0E944D0C62E070E08C2F79
:1022D0000E94300C84FD17C063E070E08C2F0E94D8
:1022E000300C81110BC081E090E0F6019383828372
:1022F00010E000E010C0F12CE12CD7CF80E591E098
:102300000E94BE02E2CF40E162E070E08C2F0E94AA
:10231000FB09EF2841F3C801CF911F910F91FF9066
:10232000EF90DF90CF90BF90AF909F908F900895E7
:10233000FF920F931F93CF93DF9300D0CDB7DEB7FB
:10234000F82E22E030E0AE014F5F5F4F66E270E0B2
:102350000E94920D09811A8110270127102722E07F
:1023600030E0AE014F5F5F4F66E270E08F2D0E945C
:10237000920D89819A81982789279827081719072C
:1023800049F4C8010F900F90DF91CF911F910F91E9
:10239000FF9008958C01E3CF1F93CF93DF93182F05
:1023A00087E0189FE0011124CF51DB4F888199818C
:1023B000009761F480E591E00E94BE02812F0E94A7
:1023C00098112E81821B910999838883DF91CF9187
:1023D0001F910895FC018485843010F40C94CC1175
:1023E00090E080E008954F925F927F928F929F924B
:1023F000AF92BF92CF92DF92EF92FF920F931F9313
:10240000CF93DF9300D0CDB7DEB7782E6B014A01B2
:10241000A82EB12C27E0829FC0011124FC01EF51AE
:10242000FB4F7F010081118180E591E00E94BE0297
:102430000815190554F4872D0E949811F70126817B
:102440008C01021B1109118300830115110529F567
:1024500063E070E0872D0E94300C843159F08823AE
:1024600049F001E010E08C3111F410E000E011952A
:1024700001951109C8010F900F90DF91CF911F9125
:102480000F91FF90EF90DF90CF90BF90AF909F9013
:102490008F907F905F904F900895801691060CF476
:1024A000840187E08A9DF0018B9DF00D1124EF518E
:1024B000FB4FE280F380C114D10451F12701F7E012
:1024C0005F22872D0E94B209840D951D2091FD0485
:1024D000273309F453C09801240D351D21303840AD
:1024E00008F44CC020E038E0490184189508A401A4
:1024F000B6010E94A50B2601480C591C6801C8189A
:10250000D908872D0E94B209A601B2010E94A50B2D
:10251000E00EF11E87E08A9DF0018B9DF00D1124E5
:10252000EF51FB4FF382E28220813181201B310B7E
:10253000318320838681800F912F911D8A3F9105E1
:1025400010F4232BF1F487E08A9DF0018B9DF00DB0
:102550001124EF51FB4F1682F982EA8222E030E02B
:10256000AE014F5F5F4F68E270E0872D0E94C009A7
:1025700060E470E0872D0E944D0C7CCFA801B6016D
:10258000C5CF868377CFCF93DF93FC01218D328D2A
:102590002115310529F48FEF9FEFDF91CF91089539
:1025A000EC01808D4217530708F0A9010E94F31136
:1025B0001816190684F7298D3A8D281B390B3A8F86
:1025C000298FEBCF0F931F93CF93DF931F92CDB73C
:1025D000DEB7FC01218D328D232B41F48FEF9FEF6D
:1025E0000F90DF91CF911F910F9108958C0141E0E1
:1025F00050E0BE016F5F7F4FFC01808D0E94F311A0
:10260000181619065CF7F801818D928D0197928F4B
:10261000818F898190E0E4CF0F931F93CF93DF9355
:10262000CDB7DEB728970FB6F894DEBF0FBECDBF8B
:102630008C01D80159964D915C915A9741155105DD
:1026400051F0ED91FC91048CF58DE02D70E060E08F
:10265000C8010995EECFF801808D0E94CC11892B1D
:10266000B1F148E050E0BE016F5F7F4FD80158964E
:102670008C910E94F31118161906F4F4D8015096A3
:1026800084E0FE01319601900D928A95E1F78D81EB
:1026900090E0982F88272E81820F911DF801958B4D
:1026A000848B8F81282F30E0322F22278885820F5C
:1026B000932F911D928F818F28960FB6F894DEBFCD
:1026C0000FBECDBFDF91CF911F910F91089590E084
:1026D00080E0F2CF4F925F926F927F928F929F92A3
:1026E000AF92BF92CF92DF92EF92FF920F931F9320
:1026F000CF93DF93CDB7DEB763970FB6F894DEBF05
:102700000FBECDBF7C016B013A01FB0120E090E0E0
:1027100080E06AE03191332309F461C040ED430F5A
:102720004A3008F04DC0689FA001699F500D1124E8
:10273000CA01C097830F911D37FD9A958F3F910570
:1027400049F340F3F701428153816481758180919F
:10275000E2059091E305A091E405B091E5054817E5
:1027600059076A077B0709F40DC28701085F1F4FED
:102770000E94EB036F7077277C5FC8010E94DE0F19
:10278000813009F004C28DE991E09A838983F701D1
:1027900082819381A481B5818B839C83AD83BE8329
:1027A00045E350E0BE016F5F7F4FC8010E94510AB0
:1027B000892BA9F5D12CC12CC8010E94750C17C01A
:1027C0003E3209F0BFCF233009F4BCCFD301A20FB2
:1027D000B11D12968C932F5F90E080E09BCF233049
:1027E00009F0B0CFF3018583CC24C394D12CC6016A
:1027F00063960FB6F894DEBF0FBECDBFDF91CF91C9
:102800001F910F91FF90EF90DF90CF90BF90AF900E
:102810009F908F907F906F905F904F9008950E944F
:10282000EB03F7017783668342E050E0B7016A5F0C
:102830007F4FC8010E94EE1081E090E09A83898367
:1028400042E050E0BE016F5F7F4FC8010E94EE1072
:1028500080E091E09A83898342E050E0BE016F5F9F
:102860007F4FC8010E94EE101A82198242E050E0A8
:10287000BE016F5F7F4FC8010E94EE1042E050E042
:10288000BE016F5F7F4FC8010E94EE1042E050E032
:10289000BE016F5F7F4FC8010E94EE105601F60126
:1028A0008081882301F16501F60181912F01882340
:1028B00011F08E32B1F446018A189B0818141904DD
:1028C00074F48D8641E050E0BE01635F7F4FC80124
:1028D0000E94EE10A401B501C8010E94EE10520141
:1028E000DECF6201E1CF1D8641E050E0BE01635FB3
:1028F0007F4FC8010E94EE10C12CDD24D394DA82F0
:10290000C98242E050E0BE016F5F7F4FC8010E9464
:10291000EE10DA82C98242E050E0BE016F5F7F4F65
:10292000C8010E94EE10C8010E94E90C892B09F42D
:1029300041CFF3E0AF2EB12C230122E0420E511C17
:10294000D4C0F7014281538164817581808D918D5E
:10295000A28DB38D481759076A077B0709F008C194
:10296000848D958DC59709F003C181A192A15DEF7A
:10297000C52EDD24DA940C970CF4ADC04CE050E089
:10298000BE016F5F7F4FC8010E94C3128B819C8183
:102990009827892798279A8B898BF7014681578139
:1029A00029813A814217530709F0E7C097FFE5C034
:1029B0008F7092703BEFC32EDD24DA94892B09F0DF
:1029C0008AC06F8078847624672476242AEFC22E0A
:1029D000DD24DA946114710409F47DC0D12CC12C7A
:1029E0008D819E81982789279827C816D906F8F4E3
:1029F00041E050E0BE01635F7F4FC8010E94C312F7
:102A00004D85442331F050E070E060E0C8010E9441
:102A1000C3128D858111ECCF44E050E070E060E09E
:102A2000C8010E94C312FFEFCF1ADF0AD9CF912C41
:102A3000812C41E050E0BE016D5E7F4FC8010E94D5
:102A4000C3124B89842F807C09F06CC0442331F081
:102A500050E070E060E0C8010E94C3128B898111D0
:102A6000E8CF42E050E0BE01615F7F4FC8010E94A5
:102A7000C31242E050E0BE01635F7F4FC8010E9475
:102A8000C31244E050E070E060E0C8010E94C3124D
:102A900042E050E0BE016F5E7F4FC8010E94C3124A
:102AA0008F85988949895A898115914009F043C0D9
:102AB000CD84DE84DC24CD24DC2481E0C816D1045E
:102AC000D1F54115544009F04AC044E050E0B2014C
:102AD000C8010E94C31221E0A21AB10809F46CCE09
:102AE000FFEFCF16DF0609F067CE0E94EB033B0134
:102AF0004C01C8010E940C13181619060CF421CFC2
:102B00000E94EB03661977098809990969387341AE
:102B10008105910548F562E370E080E090E00E9455
:102B2000B903E7CF41E050E070E060E0C8010E94E7
:102B3000C3121B8A93CF54274527542770E060E0C7
:102B4000C8010E94C312FFEF8F1A9F0A681479040C
:102B500009F06FCF96EFC92EDD24DA94BCCFE7EFF2
:102B6000CE2EDD24DA94B7CFCC24CA94DC2CB3CF9C
:102B70006EEFC62EDD24DA94AECF4CEFC42EDD24EA
:102B8000DA94A9CF8EEFC82EDD24DA9430CED12C82
:102B9000C12C2DCECF92DF92EF92FF920F931F9315
:102BA000CF93DF93CDB7DEB7AF970FB6F894DEBF04
:102BB0000FBECDBF7C016A010DE911E01A830983C4
:102BC0001C861B8688EE93E0A0E0B0E08D879E8790
:102BD000AF87B88B83E291E09A878987188F0F8B34
:102BE000198E1A8E1B8E1C8E84E089A31BA70AA740
:102BF0001CA61DA61EA61FA68091D6059091D705DE
:102C0000A091D805B091D9058EA39FA3A8A7B9A775
:102C10008B839C83AD83BE8318861F82AE01465D85
:102C20005F4FCE0101960E946A1381309105B1F485
:102C3000D701ED91FC910488F589E02D1DA30CA32B
:102C40008CA59DA5AEA5BFA58EA39FA3A8A7B9A738
:102C5000A601BE016C5D7F4FC7010995AF960FB607
:102C6000F894DEBF0FBECDBFDF91CF911F910F91C2
:102C7000FF90EF90DF90CF900895CF92DF92EF9288
:102C8000FF920F931F93CF93DF93CDB7DEB7AF972C
:102C90000FB6F894DEBF0FBECDBF8C016B017A0179
:102CA0008DE991E09A8389831B821C821D821E829A
:102CB0001C861B8648EE53E060E070E04D875E871F
:102CC0006F87788B23E231E03A872987988F8F8B43
:102CD000198E1A8E1B8E1C8E24E029A39BA78AA70F
:102CE0001CA61DA61EA61FA6D8011C968C9184307A
:102CF00060F40E94820C882321F0F80184850E94F0
:102D00005D0C84E0D8011C968C938091D60590913F
:102D1000D705A091D805B091D9058EA39FA3A8A7E8
:102D2000B9A78B839C83AD83BE8318861F82AE01B7
:102D3000465D5F4FB601CE0101960E946A1300976F
:102D4000C1F0D801ED91FC910684F785E02D8DE965
:102D500091E09DA38CA38CA59DA5AEA5BFA58EA338
:102D60009FA3A8A7B9A7A701BE016C5D7F4FC801AB
:102D70000995AF960FB6F894DEBF0FBECDBFDF91B9
:102D8000CF911F910F91FF90EF90DF90CF9008951A
:102D9000CF93DF931F92CDB7DEB741E050E0BE0185
:102DA0006F5F7F4FFC0184850E94F311181619068E
:102DB00034F4898190E00F90DF91CF9108958FEFE7
:102DC0009FEFF9CFFC018485843010F40C94F3114B
:102DD00090E080E008950F931F93CF93DF9300D08E
:102DE000CDB7DEB7FC0124852430E0F48C0180E50A
:102DF00091E00E94BE0222E030E0AE014F5F5F4FE3
:102E000060E170E0F80184850E94920D89819A81C9
:102E10009827892798270F900F90DF91CF911F91C6
:102E20000F91089590E080E0F6CFEF92FF920F931C
:102E30001F93CF93DF9300D000D0CDB7DEB78C01C6
:102E40007B01FB0184858430A8F08DE991E0F801D5
:102E5000918380831282138214821582C8010F909D
:102E60000F900F900F90DF91CF911F910F91FF90D6
:102E7000EF90089580E591E00E94BE0224E030E0EA
:102E8000AE014F5F5F4F6CE070E0F70184850E94F8
:102E9000920DBE016F5F7F4FC8010E94990BDECF7C
:102EA0000F931F93CF93DF9300D0CDB7DEB7FC0114
:102EB00024852430E0F48C0180E591E00E94BE027C
:102EC00022E030E0AE014F5F5F4F64E070E0F80158
:102ED00084850E94920D89819A8198278927982755
:102EE0000F900F90DF91CF911F910F91089590E077
:102EF00080E0F6CFFB0101900020E9F73197AF01A8
:102F0000461B570BDC01ED91FC910280F381E02D13
:102F100009948F929F92AF92BF92EF92FF920F937C
:102F20001F93CF93DF93CDB7DEB7A1970FB6F89479
:102F3000DEBF0FBECDBF7C01FA01CB0119A222304A
:102F400008F42AE08E010F5D1F4F822E912CB12CC8
:102F5000A12CBF01A50194010E946830F901CA01AA
:102F60006A300CF5605DD8016E938D01232B242B04
:102F7000252B79F790E080E0109721F0BD01C70183
:102F80000E947A17A1960FB6F894DEBF0FBECDBF90
:102F9000DF91CF911F910F91FF90EF90BF90AF9075
:102FA0009F908F900895695CDECFCF92DF92EF9271
:102FB000FF92CF93DF936B017C016DE283E195E09B
:102FC0000E949D05EC0144275527BA014C195D0963
:102FD0006E097F092AE083E195E00E9489178C0F32
:102FE0009D1FDF91CF91FF90EF90DF90CF900895DC
:102FF0008F929F92AF92BF92CF92DF92EF92FF9209
:103000000F931F93CF93DF937C01EB016C0182E060
:10301000C80ED11C4701E5E08E0E911C10E000E0C7
:10302000F60141916F0150E070E060E02AE0CE01CE
:103030000E9489175C01E881F9810190F081E02DFF
:103040006EE2CE0109958A0D9B1D080F191FC81449
:10305000D90431F7F701458150E070E060E02AE0E3
:10306000CE010E948917800F911FDF91CF911F9190
:103070000F91FF90EF90DF90CF90BF90AF909F9017
:103080008F900895CF93DF93D0E0C0E0009731F0A8
:10309000BC0183E195E00E947A17EC016BEB71E0D3
:1030A00083E195E00E947A178C0F9D1FDF91CF91ED
:1030B00008954F925F926F927F928F929F92AF92FC
:1030C000BF92CF92DF92EF92FF926B017C01AC0135
:1030D0009B010E94D0326EEB71E0811126C0460147
:1030E0005701E894B7F82FEF3FEF4FE75FE7C501CF
:1030F000B4010E94D03281110CC02FEF3FEF4FE797
:103100005FE7C501B4010E94063162EC71E0181658
:1031100064F02FEF3FEF4FE75FE4C701B6010E9475
:103120005E32181694F466EC71E083E195E0FF904E
:10313000EF90DF90CF90BF90AF909F908F907F9057
:103140006F905F904F900C947A172FEF3FEF4FE7FF
:103150005FECC701B6010E94063187FDE4CF20E095
:1031600030E0A901C701B6010E940631B12CA12CA3
:1031700087FF0AC06DE283E195E00E949D055C0136
:10318000F7FAF094F7F8F0942AE037ED43EA5BE3BE
:10319000C701B6010E949A302B013C010E947D318B
:1031A0006B017C010E94AC319B01AC01C301B201F7
:1031B0000E9499302B013C012AE0B701A60183E16E
:1031C00095E00E9489177C01EA0CFB1C6EE283E10A
:1031D00095E00E949D05E80EF91E20E030E040E2F7
:1031E00051E4C301B2010E9463322B013C010E94F1
:1031F0007D314B01B12CA12C2AE0B501A40183E162
:1032000095E00E948917E80EF91EC501B4010E94DD
:10321000AC319B01AC01C301B2010E94993020E0A6
:1032200030E040E251E40E9463320E947D31AB0104
:1032300070E060E02AE083E195E00E9489178E0D3E
:103240009F1DFF90EF90DF90CF90BF90AF909F9029
:103250008F907F906F905F904F9008950F931F9382
:10326000CF93DF93EC010E94EA058C016BEB71E0D8
:10327000CE010E947A17800F911FDF91CF911F918D
:103280000F9108958F929F92BF92CF92DF92EF920B
:10329000FF920F931F93CF93DF93CDB7DEB76E9757
:1032A0000FB6F894DEBF0FBECDBFB82E80911105CA
:1032B00090911205892B21F080911005811107C092
:1032C0006DE574E083E195E00E942E1954C17E0102
:1032D00025E1E20EF11C60910005709101058091DD
:1032E000020590910305870122E044E00E944A2AEA
:1032F0006E013BE0C30ED11C609104057091050581
:103300008091060590910705860122E044E00E9425
:103310004A2A609108057091090580910A059091EB
:103320000B05FE0131964F018F0122E044E00E941F
:103330004A2A0E94EB0328EE33E040E050E00E946E
:1033400068305F934F933F932F9380910F051F92A7
:103350008F931F92BF9280910E051F928F93809141
:103360000D058F9380910C058F939F928F92DF9222
:10337000CF92FF92EF928EED93E09F938F93809187
:1033800010051F928F93809112058F9380911105E4
:103390008F930E94252B0FB6F894DEBF0FBECDBFD2
:1033A00060EC73E0181619060CF08CCF6FE973E02F
:1033B00083E195E00E942E196BE873E083E195E0CC
:1033C0000E942E196EE773E083E195E00E94EA0502
:1033D00060910005709101058091020590910305AF
:1033E0000E94591869E773E083E195E00E942E1965
:1033F0006CE673E083E195E00E94EA0560910405C4
:103400007091050580910605909107050E94591855
:1034100069E673E083E195E00E942E196CE573E0A4
:1034200083E195E00E94EA05609108057091090525
:1034300080910A0590910B050E94591867E573E089
:1034400083E195E00E942E196AE473E083E195E040
:103450000E94EA0540910C0550910D0570E060E076
:103460002AE083E195E00E9489176BEB71E083E12C
:1034700095E00E947A176DE373E083E195E00E9486
:10348000EA0580910E0569E273E0882311F06DE290
:1034900073E083E195E00E942E1960E373E083E11D
:1034A00095E00E94EA0565E173E0BB2011F069E157
:1034B00073E083E195E00E942E196CE173E083E1F3
:1034C00095E00E94EA0580910F0560ED72E0882387
:1034D00011F063ED72E083E195E00E942E1968E03F
:1034E00073E083E195E00E94EA050E94EB0328EE79
:1034F00033E040E050E00E946830BA01A9012AE0C0
:1035000083E195E00E94891763E073E083E195E031
:103510000E942E1963EE72E083E195E00E942E195D
:1035200067ED72E083E195E00E942E19809111050C
:10353000909112050E9442188091FE049091FF0420
:103540000E942906882309F468C06CEB72E083E1CD
:1035500095E00E942E19009111051091120580919D
:10356000FE049091FF040E942906811116C08AEC86
:1035700091E00E9442186E960FB6F894DEBF0FBE1F
:10358000CDBFDF91CF911F910F91FF90EF90DF9012
:10359000CF90BF909F908F90089567EE71E083E188
:1035A00095E00E947A1785EF91E00E9442186DE045
:1035B00072E083E195E00E947A17C8010E944218E8
:1035C000E090FE04F090FF0490E080E0011511050A
:1035D00031F0F70160857185C8010E941A2B9C01AA
:1035E000A80165EF71E0C7010E94C60A182F6DE1BE
:1035F00072E083E195E00E947A17412F50E070E07D
:1036000060E02AE083E195E00E9489176BEB71E0AE
:1036100083E195E00E947A17AECF6FE972E052CE57
:103620003F924F925F926F927F928F929F92AF9252
:10363000BF92CF92DF92EF92FF920F931F93CF939F
:10364000DF93CDB7DEB7EA970FB6F894DEBF0FBEB3
:10365000CDBF7C012A013B0169010E94EB034B01B4
:103660005C0187010D5B1F4FC8010E940C131816E7
:1036700019069CF00E94EB03681979098A099B09D5
:10368000461657066806790608F466C162E370E0DC
:1036900080E090E00E94B903E7CF42E250E0BE0133
:1036A0006F5F7F4FC8010E94C31289818230D1F0C1
:1036B000312C832DEA960FB6F894DEBF0FBECDBF36
:1036C000DF91CF911F910F91FF90EF90DF90CF90FE
:1036D000BF90AF909F908F907F906F905F904F9032
:1036E0003F900895F801848995898334910501F705
:1036F0006D817E818F8198850E94D5324B015C015E
:10370000F60180829182A282B38246E050E0B70146
:10371000685F7F4FCE014D960E940734892B41F69A
:10372000F70180819181A281B38188169906AA064A
:10373000BB0608F4BDCF84819581A681B781881529
:103740009905AA05BB0508F4B3CF89899A89AB8985
:10375000BC8986879787A08BB18B4EEC50E070E0D8
:1037600060E0C8010E94C312312CC701829698AB59
:103770008FA7F701B696FAABE9AB08969CAB8BAB7B
:1037800067019AE1C90ED11CBD96FEABEDABC70136
:10379000429698AF8FABFD97FAAFE9AF4701FEE1D4
:1037A0008F0E911CF801818D928D181619060CF060
:1037B00080CFC8010E94E2128333910509F4B2C0A0
:1037C00014F58130910509F464C044F4892B51F358
:1037D000C8010E94E212AC01552775C083309105E3
:1037E00009F462C00697A1F7C8010E94E212B82E40
:1037F00044E050E0B401C8010E94C312EB2DE45034
:10380000FF0BAF0160C08A33910509F45FC084F5F6
:1038100085339105B1F1C697D9F6C8010E94E2122D
:103820005C01B601CE0189960E94990B8BA59CA5DF
:10383000ADA5BEA5892B8A2B8B2BB1F0EDA9FEA9D6
:103840004080518062807380B601CE0183960E94D1
:10385000990B8DA19EA1AFA1B8A5A5014816590647
:103860006A067B0609F0B8CF44E050E0B60118C004
:103870008B33910509F440C08F3F910509F492CF35
:10388000A7CFC8010E94E212C8010E94E212382E9E
:1038900089CFC8010E94E21244E050E06FA978ADE0
:1038A000C8010E94C3127ECFC8010E94E212B82E46
:1038B00044E050E069AD7AADC8010E94C3128B2D7F
:1038C0008450990BAC0170E060E0EACFC8010E941F
:1038D000E21244E050E069A97AA9C8010E94C3122B
:1038E000F70166A177A180A591A50E94D53266A3B4
:1038F00077A380A791A756CFC8010E94E21244E0A7
:1039000050E06BA97CA9C8010E94C312F70162A50F
:1039100073A584A595A50E94D53262A773A784A735
:1039200095A740CFC8010E94E21244E050E06FA585
:1039300078A9C8010E94C312F70162A173A184A1F2
:1039400095A10E94D53262A373A384A395A366A711
:1039500077A780AB91AB26CF33243A94AACE7F923F
:103960008F929F92AF92BF92CF92DF92EF92FF928F
:103970000F931F93CF93DF93CDB7DEB7A6970FB604
:10398000F894DEBF0FBECDBF8C01762E942E852E0F
:1039900020E2A22ECE0101967C01DC01EA2D1D92CF
:1039A000EA95E9F76801F3E4CF0ED11C8DE991E0C7
:1039B0009AA389A38FEF8BA38CA38DA38EA343E43B
:1039C00050E0BE016F5D7F4FC6010E94510A019613
:1039D00009F4BFC081E089838A8386E0B82EBB8268
:1039E0001C82D80114966D917D918D919C911797B1
:1039F0000E94D5326D837E838F83988789869A86CD
:103A000080E890E09C878B874CE150E0B701C601CD
:103A10000E94EE10FE0137968AE1DF011D928A9521
:103A2000E9F74801B8E08B0E911CF401D701019031
:103A30000D92BA94E1F740E150E0B701C6010E944F
:103A4000EE10F7011192AA94E9F796E0A92EB12C95
:103A500040E250E0B701C6010E94EE10F1E0AF1A5B
:103A6000B108B1F783E6898392E89A8393E59B8353
:103A70008C8385E38D8381E08E837F829DE39887AD
:103A800097E099878A8786E0F401DE011B96019012
:103A90000D928A95E1F78CE0898B8A8B6CE272E05B
:103AA000CE0143960E944134D8011B966C91CE0101
:103AB00049960E94C102F8016485CE014B960E948E
:103AC000C102D8011D966C91CE014D960E94C10293
:103AD0004EE150E0B701C6010E94EE10B3E07B1248
:103AE0001EC082E3898384E08A83F80196859B83E4
:103AF00097859C8390899D8391899E8396E39F837C
:103B00008887828D8987838D8A87848D8B87858D31
:103B10008C874CE050E0B701C6010E94EE1087E3AD
:103B2000898386E08A8391E09B8393E09C838D83E5
:103B30008FE08E838AE38F838BE388878FEF89877B
:103B400049E050E0B701C6010E94EE10C6010E9494
:103B5000E90CA6960FB6F894DEBF0FBECDBFDF917D
:103B6000CF911F910F91FF90EF90DF90CF90BF907A
:103B7000AF909F908F907F900895CF92DF92EF92B9
:103B8000FF920F931F93CF93DF93CDB7DEB760976C
:103B90000FB6F894DEBF0FBECDBF6C017A018091E5
:103BA000C3039091C403892B09F443C08091C003DF
:103BB00090E04817590720F07C0121E0E21AF10853
:103BC0000091C1031091C203A701C8010E941434DF
:103BD0000E0D1F1DF80110826FE072E083E195E089
:103BE0000E942E198091C1039091C2030E94421835
:103BF0006FE270E0C6010E945734009749F1BC01A2
:103C00006F5F7F4F4FE050E0CE0101960E94483435
:103C1000188AD090C103C090C20363E372E08D2D77
:103C20009C2D0E9462340097A9F4CE0101960E9457
:103C3000770B60960FB6F894DEBF0FBECDBFDF9155
:103C4000CF911F910F91FF90EF90DF90CF9008954B
:103C50001982DECF8C01065F1F4F62E270E0C8015F
:103C60000E943634892B09F36EE372E08D2D9C2D72
:103C70000E9462347C01892B19F0F9E0EF0EF11CEF
:103C800048E050E066E072E0C8010E940C2B892BEE
:103C900009F045C0E114F10441F068E472E0C701A5
:103CA0000E94623411E0892B09F410E01093CB04D8
:103CB000612F84E00E94230367EA71E083E195E0CD
:103CC0000E94EA0564E871E0112311F068E871E0F0
:103CD00083E195E00E942E19812F0E9442191F92C4
:103CE0001F938BE891E09F938F938091C0031F9265
:103CF0008F938091C2038F938091C1038F930E9411
:103D0000252B6091C1037091C203CE0101960E94E0
:103D1000270B0FB6F894DEBF0FBECDBF8ACF49E0A8
:103D200050E06CEF71E0C8010E940C2B892B09F068
:103D30007CCF0E94EB0328EE33E040E050E00E948D
:103D400068305F934F933F932F938091CB041F92E2
:103D50008F9383ED91E09F938F938091C0031F9287
:103D60008F93CF92DF920E94252B6CEB71E083E161
:103D700095E00E942E19C5CF0C947E331F920F92AE
:103D80000FB60F9211242F933F938F939F93AF936E
:103D9000BF938091D9049091DA04A091DB04B09193
:103DA000DC043091D80423E0230F2D3758F5019619
:103DB000A11DB11D2093D8048093D9049093DA04F7
:103DC000A093DB04B093DC048091DD049091DE04C9
:103DD000A091DF04B091E0040196A11DB11D809374
:103DE000DD049093DE04A093DF04B093E004BF9160
:103DF000AF919F918F913F912F910F900FBE0F9098
:103E00001F90189526E8230F0296A11DB11DD2CF51
:103E10001F920F920FB60F9211242F933F934F933F
:103E20005F936F937F938F939F93AF93BF93EF9322
:103E3000FF9383E195E00E947B05FF91EF91BF9195
:103E4000AF919F918F917F916F915F914F913F9132
:103E50002F910F900FBE0F901F9018951F920F92E9
:103E60000FB60F9211242F938F939F93EF93FF938D
:103E7000E0912305F09124058081E0912905F091DE
:103E80002A0582FD1BC0908180912C058F5F8F7366
:103E900020912D05821741F0E0912C05F0E0ED5EB8
:103EA000FA4F958F80932C05FF91EF919F918F9101
:103EB0002F910F900FBE0F901F9018958081F4CF17
:103EC0000F931F93CF93DF93E3E1F5E01382128208
:103ED00088EE93E0A0E0B0E084839583A683B78367
:103EE0002DE431E03183208325EC30E035872487D1
:103EF00024EC30E03787268720EC30E0318B208BB4
:103F000021EC30E0338B228B22EC30E0358B248B9C
:103F100026EC30E0378B268B118E128E138E148E8A
:103F2000E0EBF5E0CDE9D1E0D183C08312821382CA
:103F300014821582E6EBF5E0D183C08312821382EE
:103F400014821582ECEBF5E0D183C08312821382D8
:103F500014821582E2ECF5E0D183C08312821382D1
:103F600014821582E8ECF5E0D183C08312821382BB
:103F700014821582EEECF5E0D183C08312821382A5
:103F800014821582EAEDF5E0D183C0831282138298
:103F900014821582E4EDF5E0D183C083128213828E
:103FA00014821582E0EEF5E0D183C0831282138281
:103FB00014821582E6EEF5E0D183C083128213826B
:103FC00014821582ECEEF5E0D183C0831282138255
:103FD00014821582E2EFF5E0D183C083128213824E
:103FE00014821582E0E3F6E0D183C083128213824B
:103FF00014821582E1E2F6E01382128284839583B3
:10400000A683B7838BE691E09183808384E08487E5
:1040100088EE93E09687858708EF15E0D801139620
:104020001C921E9212978FE591E011969C938E93AD
:104030005C96DC93CE935B975D961D921D921D92CC
:104040001C9290978FEF9FEF98969C938E939797E3
:104050001596FC93EE93149796961C921E92959744
:1040600080E091E00E94E232F8019783868380E04D
:1040700091E0918780878FE090E093878287958792
:104080008487E6E3F6E0D183C08312821382148230
:104090001582ACE3B6E082E015968C93159786E125
:1040A00016968C931697E2EAF4E0E4911796EC9357
:1040B0001797EEE8F4E0E4911896EC93189740E82F
:1040C0005EE360E070E01D964D935D936D937C938D
:1040D0005097DF91CF911F910F910895CF93DF9368
:1040E000CDB7DEB72C970FB6F894DEBF0FBECDBFAD
:1040F000789484B5826084BD84B5816084BD85B5C3
:10410000826085BD85B5816085BD80916E008160CE
:1041100080936E0010928100809181008260809374
:104120008100809181008160809381008091800076
:104130008160809380008091B10084608093B100A1
:104140008091B00081608093B00080917A0084609B
:1041500080937A0080917A00826080937A008091C7
:104160007A00816080937A0080917A0080688093E1
:104170007A001092C100E0912305F091240582E0BD
:104180008083E0911F05F09120051082E0912105C8
:10419000F09122058FEC808310922B05E09127058A
:1041A000F091280586E08083E0912505F0912605B1
:1041B000808180618083E0912505F09126058081D2
:1041C00088608083E0912505F091260580818068D4
:1041D0008083E0912505F091260580818F7D808385
:1041E0006FE372E083E195E00E942E191092CC04F7
:1041F0001092CD041092CE041092CF041092D004ED
:104200001092D1041092D2041092D30462E083E0A1
:104210000E94510362E0809141060E9451030E9476
:10422000EB03605D774081099109609345067093C7
:104230004606809347069093480687E380934E0690
:1042400061E084E00E94510361E085E00E94510337
:1042500061E086E00E94510361E087E00E94510323
:1042600085E294E0909312058093110580EA809393
:10427000100588EF95E09093FF048093FE04109260
:10428000C6041092C5048DE492E00E944218809109
:10429000B80381112AC01092A00310929F0388EEE8
:1042A00093E0A0E0B0E08093A1039093A203A093D9
:1042B000A303B093A40383E291E090939E038093C1
:1042C0009D038DE991E09093AC038093AB03109232
:1042D000AD031092AE031092AF031092B00384E0CE
:1042E0008093B50381E08093B8038AE593E09093CF
:1042F000590380935803809157038111ADC060E347
:1043000072E080E090E00E94B903DFB6F89406E91D
:1043100014E0EAEAEE2EE4E0FE2E809155038111CE
:1043200025C0F8018491F7019491E82FF0E0EE0F99
:10433000FF1FE958FD4FA591B4918C91982321F46A
:1043400061E08AE00E94230361E08AE00E94510359
:104350008CB580618CBD8CB580648CBD61E08DE0D6
:104360000E94510361E08BE00E945103809155034C
:104370008F5F80935503DFBEF8010491E02FF0E0DA
:10438000EE0FFF1FEF57FD4F8591949190935403CB
:1043900080935303F701E490E092520361E08AE0D6
:1043A0000E9451030E94D30880E591E00E94BE0262
:1043B00084E38093FD0480E80E949F090E942D0DF4
:1043C000882309F49DC288E00E949F090E941A0D6B
:1043D000883009F095C280E10E949F090E941A0D61
:1043E000803109F08DC280E00E949F090E941A0D61
:1043F000182F811185C241E050E0BE016F5F7F4FF1
:104400008FE190E00E94A50B8981833009F078C28A
:1044100080E48093560342E06EE170E0812F0E94B9
:10442000FB0942E06FE170E0812F0E94FB091F5FF2
:10443000143089F740E06EE170E0812F0E94FB09A3
:1044400040E06FE170E0812F0E94FB091F5F183090
:1044500089F781E08093570380E591E00E94BE02D6
:1044600046E050E060E071E089E090E00E94EF08F3
:104470008DE991E09A8389831B821C821D821E82B2
:1044800044E050E0BE016D5F7F4F8FE090E00E94FE
:10449000EF080091580310915903D80192961D928C
:1044A0001D921D921C929597F80116A217A210A6B4
:1044B00011A69A961D921D921D921C929D9780E6C0
:1044C0009AEEA0E0B0E086AB97ABA0AFB1AF80EAC8
:1044D0009FE0A0E0B0E082AF93AFA4AFB5AF3E964F
:1044E00084E1DF011D928A95E9F786E0E0E0F1E0E2
:1044F000D801189601900D928A95E1F7F801EE5BCC
:10450000FF4FFC87EB8710820E94B42A2FEC37E024
:1045100040E050E00E94FF2FDC01CB010196A11D7D
:10452000B11DF80184839583A683B783808391832B
:10453000A283B3835801F3E4AF0EB11CC5010E94FE
:10454000750C64E470E0C5010E94DE0F882309F455
:1045500040C20E94EB032B013C0148EEC42E43E015
:10456000D42EE12CF12C52E0252E912C812CAB8500
:10457000BC858C918330B9F1811130C2F8018481FE
:104580009581A681B7810196A11DB11D8483958374
:10459000A683B7830E94EB036419750986099709FE
:1045A000A70196010E946830A90161E0C8010E943C
:1045B000AF1C81E0AB85BC858C93F1E08F16910434
:1045C000B1F20E94EB036419750986099709D801B5
:1045D000D6962D913D914D915C91D997261737072D
:1045E0004807590710F6C5010E94750CF80184812F
:1045F0009581A681B7810196A11DB11D8483958304
:10460000A683B7830E94EB03F801FE966083718353
:10461000828393838A94892809F0DBC180E591E045
:104620000E94BE020091580310915903B801625FC5
:104630007F4FCE0101960E94990B44E050E0BE01ED
:104640006D5F7F4F8FE090E00E94EF08B8016A5ED7
:104650007F4FCE0101960E94990B44E050E0BE01CD
:104660006D5F7F4F81E090E00E94EF08B8016E5EC1
:104670007F4FCE0101960E94990B44E050E0BE01AD
:104680006D5F7F4F85E090E00E94EF08B801625EA9
:104690007F4FCE0101960E94990B8B819C81AD8149
:1046A000BE818093D6059093D705A093D805B0938B
:1046B000D9050E9494037F738091060190910701B0
:1046C00068277927709307016093060168E672E016
:1046D00083E195E00E947A178DE991E09A838983BE
:1046E0001B821C821D821E8280E591E00E94BE0218
:1046F00044E050E0BE016D5F7F4F8FE090E00E948C
:10470000A50B63E175E0CE0101960E94F8176BEBF3
:1047100071E083E195E00E947A1768EE73E080E033
:1047200090E00E94B903E091FE04F091FF0489E853
:1047300092E092A381A38BE597E094A383A360EA20
:1047400072E083E195E00E947A1769E872E083E104
:1047500095E00E947A1766E472E083E195E00E949A
:104760007A172AE04BE557E060E070E083E195E0DE
:104770000E9489176BEB71E083E195E00E947A1744
:1047800088EF95E09093C4038093C30385EC93E096
:104790009093C2038093C10380E68093C00360E2DC
:1047A00072E083E195E00E942E198091FE049091C1
:1047B000FF040E942906811111C30E94EB0300919E
:1047C000C7041091C8042091C9043091CA04601B29
:1047D000710B820B930B693873418105910508F4C5
:1047E000FDC20E94EB036093C7047093C8048093DA
:1047F000C9049093CA0484EB92E00E94421800918D
:10480000FE041091FF04C8010E942906811183C291
:10481000D80114968D919C91DC01ED91FC91068854
:10482000F789E02D0995882309F4A3C1CC24C3940A
:10483000D12CF801D786C68687E0E8E1F1E0DE01F9
:10484000119601900D928A95E1F7DE01119685E0AF
:1048500090E02D91F80146815781FA01E80FF91F88
:10486000208301968C309105A1F7D8011696ED9121
:10487000FC91179782EC84871696ED91FC9117971F
:104880001B968C911B9785871696ED91FC91179737
:104890001A968C911A9786871896ED90FC90B7011E
:1048A00089EC92E00E941A2B4196F801E816F9066D
:1048B00008F098C184819581DC01ED91FC91048818
:1048C000F589E02D09956BE373E083E195E00E94A3
:1048D0007A17E091FE04F091FF0447A150A5052E40
:1048E000000C660B770B77FF11C3CB01BA010E9456
:1048F000D5176BEB71E083E195E00E947A176EC2E9
:1049000087E38093FD0480E80E949F090E942D0D9B
:10491000882329F188E00E949F090E941A0D88309F
:10492000F1F480E10E949F090E941A0D182F803136
:10493000B1F480E00E949F090E941A0D81110FC0FE
:1049400041E050E0BE016F5F7F4F89E390E00E943D
:10495000A50B8981843019F4109356037ACD83E333
:104960008093FD0480E80E949F090E942D0D8823FA
:1049700071F180E10E949F090E941A0D803139F582
:1049800082E10E949F090E941A0D823101F580E0A8
:104990000E949F090E941A0D811119C084E0809322
:1049A000560315E51A8741E050E0BE01665F7F4F70
:1049B0008BE190E00E94EF08198741E050E0BE01D2
:1049C000675F7F4F8AE190E00E94EF0842CD10922E
:1049D000FD0483E792E00E9442189FCE8430F9F4F0
:1049E000F80184819581A681B7810196A11DB11D31
:1049F00084839583A683B7830E94EB0364197509AA
:104A000086099709A70196010E946830A90163E011
:104A1000C8010E94AF1CAB85BC852C92CECD8130E5
:104A200059F5F80142AD53AD64AD75AD9E012F5FF0
:104A30003F4FC8010E94101B382EF2E08F1392C026
:104A400089819A81AB81BC81F80184839583A68397
:104A5000B7830E94EB036419750986099709A701BA
:104A600096010E946830A90163E0C8010E94AF1C52
:104A7000AB85BC853C92A1CD823009F09ECDF8017A
:104A800042AD53AD64AD75AD9E012F5F3F4FC80180
:104A90000E94101B382EF5E08F135DC0E3E0AB855C
:104AA000BC85EC93F80182A193A1A4A1B5A1892BA7
:104AB0008A2B8B2B41F424E833E040E050E022A322
:104AC00033A344A355A3F80186A197A1A0A5B1A53E
:104AD000892B8A2B8B2B61F482A193A1A4A1B5A170
:104AE000B695A7959795879586A397A3A0A7B1A7F5
:104AF000F80182A593A5A4A5B5A5892B8A2B8B2B9C
:104B0000A9F482A193A1A4A1B5A1AC01BD0123E0A8
:104B100076956795579547952A95D1F7841B950B00
:104B2000A60BB70B82A793A7A4A7B5A7F80186A1E8
:104B300097A1A0A5B1A586A797A7A0ABB1AB82A569
:104B400093A5A4A5B5A582AB93ABA4ABB5AB8824C4
:104B50008394912C32CDF6E08F1304C0AB85BC85D5
:104B60001C922BCDBFEF3B1228CDEB85FC8510822C
:104B700024CDD80191966D917C91929714968D9148
:104B80009C91DC01ED91FC91D80193964D915C9143
:104B900094976115710579F00088F189E02D0995E8
:104BA000019709F443CE4EEFC42EDD24DA94F801C8
:104BB000D0A6C7A288CE0684F785E02D6DE9C62E63
:104BC00061E0D62EDA82C9825D96CD90DD90ED90BF
:104BD000FC909097CB82DC82ED82FE82BE016F5FFB
:104BE0007F4FDDCF668177814FE050E089EC92E026
:104BF0000E94D3027C01D8011896CD90DC90B601BA
:104C00008FED92E00E941A2B8E0D9F1D0296F801E7
:104C1000C816D90608F44ECE66817781A7018FEDBC
:104C200092E00E94D3027C01D8011896CD90DC90CE
:104C3000B6018DEB91E00E941A2B8E0D9F1D0296FE
:104C4000F801C816D90608F435CE66817781A70128
:104C50008DEB91E00E94D3029C0125503109D801CF
:104C600016964D915C9160E1C8010E945E060E941B
:104C7000EB03F801608B718B828B938B648B758B4C
:104C8000868B978BF80184819581DC01ED91FC91F5
:104C90000084F185E02D0995892BF9F40E94EB033E
:104CA000F801C488D588E688F7889B01AC012C19E7
:104CB0003D094E095F0969017A0124853585A8EE11
:104CC000B3E00E948A30C616D706E806F906D0F28D
:104CD0004CEF5FEF50A747A3EDCDBE01685F7F4F5C
:104CE000C8010E944707643071058105910509F0EC
:104CF00004C1D8011696ED91FC911797838181111B
:104D0000F7C00E94EB03F801648B758B868B978B41
:104D1000108E10A617A284EF92E00E944218009114
:104D2000FE041091FF04EDEBFDE1D8015A96FC93CF
:104D3000EE9359971896ED90FC90B70189E093E0B7
:104D40000E941A2B0996E816F906E8F1C8010E949C
:104D500029068823C1F1D8011E968D919C911F9739
:104D6000019609F4CCC01F969C938E931E97D80190
:104D70001696ED91FC9117971F968C911F9785833E
:104D80001696ED91FC9117971E968C911E9786832F
:104D900016966D917C9147E050E089E093E00E9487
:104DA000D302D8011696ED91FC911797E80FF91FE1
:104DB00010829C012450310916964D915C9162E855
:104DC000C8010E945E0685E293E00E944218E091CD
:104DD000C504F091C604309709F009950091FE04CE
:104DE0001091FF04C8010E942906882309F445C0D8
:104DF0000E94EB036B017C01F80122853385A8EE4C
:104E0000B3E00E948A3084889588A688B788A70175
:104E10009601281939094A095B0949015A0168159F
:104E200079058A059B0590F080889188A288B388CF
:104E3000A7019601281939094A095B0949015A0154
:104E4000681579058A059B0508F08CC0D80158962D
:104E50008C915897882309F45FC0ECEFFFEF989688
:104E6000FC93EE93979714968D919C91DC01ED91B4
:104E7000FC910488F589E02D09950E94EB030091CF
:104E8000D4041091D5042091D6043091D7046B013D
:104E90007C01C01AD10AE20AF30A97018601093897
:104EA00013412105310508F498C26093D40470932E
:104EB000D5048093D6049093D70469E572E083E12A
:104EC00095E00E942E190E94F703882351F08091EB
:104ED00042068C3009F484C108F028C18B3009F4F3
:104EE0003FC1C12CD12C30ECE32E3FE7F32E62C141
:104EF00090E098969C938E939797F801DBCCCC2406
:104F0000C394D12CF801D786C68631CF2AE083E13D
:104F100095E00E948917EDCC1696ED91FC911797BC
:104F200080EC80831696ED91FC9117971182149670
:104F30008D919C91159716966D917C91DC01ED9168
:104F4000FC910280F381E02D42E050E00995F801E8
:104F5000C08AD18AE28AF38AC48AD58AE68AF78A25
:104F600081E0808FF80184819581DC01ED91FC91D5
:104F70000084F185E02D0995892B09F47ECFBE01CF
:104F80006F5F7F4FC8010E9447072B01672B09F411
:104F9000C9C0F801C48AD58AE68AF78A0680F781F3
:104FA000E02D8081807F803309F09BC0D801599625
:104FB0008D919C91892B09F460CF498150E0CA0101
:104FC00002968E0F9F1FDF01A40FB51F11962C9024
:104FD000312C322C2224DC016C91260E311C4D5FC9
:104FE0005F4FBF01640F751FA1010E941D34E9814D
:104FF000D80116968D919C911797820D931DE80FFD
:10500000F92FF11D128216960D90BC91A02D2981C9
:1050100030E0C90102968A0F9B1F4C9146704B8766
:10502000F801A18CB28C423009F049C0B101620F85
:10503000731FFD01E60FF71F438150E0542F4427F3
:105040008480840E952E911C4BEF5FEF421B530B17
:1050500042195309440D551D6B5F7F4F6A0F7B1F2B
:10506000F5010995D8011696ED91FC91179780E40A
:1050700080831696ED91FC91BB85B183D80116967D
:10508000ED91FC91179792821696ED91FC911797EE
:10509000838214968D919C91159716966D917C91B3
:1050A000DC01ED91FC910280F381E02D44E050E0C1
:1050B0000995F801C08AD18AE28AF38ADECE4DEFE3
:1050C0005FEF421B530B42195309440D551D2D5FD1
:1050D0003F4F220D331DBD01620F731FF50109956E
:1050E000CCCE803CC9F480ED8083D8011696ED913A
:1050F000FC911797118214968D919C911597169695
:105100006D917C91DC01ED91FC910280F381E02DA9
:1051100042E050E00995B1CE803D09F0AECEF801F5
:10512000108EABCEC8010E942906A7CE85518230D1
:1051300008F0D7CE10913E06612F70E0762F6627DB
:1051400066277F7780913F06682B90E080E00E9481
:10515000AC312DEC3CEC4CEC5DE30E9463325CC066
:1051600060913E0670E090E080E00E94AC316B01FF
:105170007C0110913F0617FF0AC0AC019B0160E063
:1051800070E080E89FEB0E9499306B017C011F70FA
:10519000612F70E090E080E00E94AE312DEC3CEC9D
:1051A0004CEC5DE30E946332A70196010E949A30A5
:1051B0006B017C010E94F703882309F465C080918C
:1051C00042068B3030F08D3080F18551823008F40A
:1051D00011C1812C912C20ECA22E2FE7B22E43C0BE
:1051E00010913E06612F70E090E080E00E94AC31AB
:1051F0006B017C0160913F066F7070E090E080E091
:105200000E94AE312DEC3CEC4CEC5DE30E9463322D
:10521000A70196010E949A306B017C0117FFCACF4B
:10522000F7FAF094F7F8F094C5CF60913D0670E07E
:1052300090E080E00E94AE312DEC3CEC4CEC5DE364
:105240000E9463324B015C0160913C0670E090E08B
:1052500080E00E94AE319B01AC01C501B4010E9407
:105260009A304B015C01A7019601C701B6010E946B
:10527000D032811109C0A5019401C501B4010E9479
:10528000D032882309F4C8C081E080930F05809153
:10529000CC049091CD04A091CE04B091CF04809322
:1052A000000590930105A0930205B093030580913A
:1052B000D0049091D104A091D204B091D3048093F2
:1052C000040590930505A0930605B09307058FE0AC
:1052D0000E948203BC01990F880B990B0E94AE318A
:1052E00020E030E04AEF53E40E94633220E030ECEB
:1052F0004FE754E40E940B31609308057093090551
:1053000080930A0590930B0504E010E0C12CD12C8A
:1053100076018EE00E948203092E000CAA0BBB0BC3
:10532000C80ED91EEA1EFB1E0150110991F792E02A
:10533000F694E794D794C7949A95D1F7D0920D0537
:10534000C0920C05EEE8F2E08491E3EAF4E0049107
:10535000EFE8F4E01491112309F481C081110E9457
:10536000FA02E12FF0E0EE0FFF1FEE57FB4FA59181
:10537000B4918C91082331E020E009F430E0832FD0
:10538000922FF1E08F27817080930E058091CB04DE
:105390000E944219C0900005D0900105E0900205DE
:1053A000F090030510910F058091FE049091FF0489
:1053B0000E942906082F60E085E00E94230360E038
:1053C00086E00E94230360E087E00E94230301112E
:1053D00049C061E087E00E94230380E090E0892BD0
:1053E00009F4E3C90E946705882309F4DEC90E9415
:1053F0000000DBC960913C0670913D067627672767
:10540000762790E080E00E94AC312DEC3CEC4CEC37
:105410005DE30E94633225CF10920F05C092000514
:10542000D0920105E0920205F092030580920405F6
:1054300090920505A0920605B0920705C092CC0493
:10544000D092CD04E092CE04F092CF048092D004AA
:105450009092D104A092D204B092D30438CF90E0BD
:1054600080E08FCF61E086E01111B5CF20E030E021
:105470004CE052E4C701B6010E945E3218160CF4EB
:10548000A8CF61E085E0A7CF8091FE059091FF0550
:105490000C947E33EF920F931F93CF93DF93E80129
:1054A00034E047FD34E1042E000C550B57FF03C0D8
:1054B000519541955109E32E022F242FAE010E94F0
:1054C0002F2DCE01DF91CF911F910F91EF90089575
:1054D0008F929F92AF92BF92CF92DF92EF92FF9204
:1054E000CF93DF93EC01688179818A819B8161157B
:1054F00071058105910521F464E279ED8BE597E072
:105500002DE133EF41E050E00E94FF2F49015A01A5
:105510009B01AC01A7EAB1E40E941E306B017C0143
:10552000ACEEB4EFA50194010E942C30C60ED71E3C
:10553000E81EF91EF7FE06C081E0C81AD108E1088E
:1055400080E8F80AC882D982EA82FB82C701B601E4
:105550009F77DF91CF91FF90EF90DF90CF90BF903A
:10556000AF909F908F9008958F929F92AF92BF922D
:10557000CF92DF92EF92FF92609108017091090142
:1055800080910A0190910B016115710581059105CA
:1055900021F464E279ED8BE597E02DE133EF41E012
:1055A00050E00E94FF2F49015A019B01AC01A7EA7C
:1055B000B1E40E941E306B017C01ACEEB4EFA5019A
:1055C00094010E942C30C60ED71EE81EF91EF7FE6D
:1055D00006C081E0C81AD108E10880E8F80AC09244
:1055E0000801D0920901E0920A01F0920B01C70173
:1055F000B6019F77FF90EF90DF90CF90BF90AF9074
:105600009F908F9008956093080170930901809393
:105610000A0190930B010895FB01DC0141505040B9
:1056200030F08D910590801919F40020B9F7881B8E
:10563000990B0895FC016150704001900110D8F75A
:10564000809590958E0F9F1F0895AEE0B0E0EBE23D
:10565000FBE20C943F300D891E898F89988D2EE0D6
:105660002C831A83098397FF02C080E090E801979A
:105670009E838D83AE01455E5F4F698D7A8DCE012D
:1056800001960E94552B4D815E8157FD0AC02F81E6
:105690003885421753070CF49A01020F131FF801C3
:1056A00010822E96E4E00C945B30ABE0B0E0EBE5CA
:1056B000FBE20C9431307C013B018A01FC01178232
:1056C0001682838181FFC8C1CE0101965C01F7017A
:1056D0009381F30193FD859193FF81913F0188238D
:1056E00009F453C1853239F493FD859193FF81917B
:1056F0003F01853229F4B70190E00E94712FE7CF76
:10570000912C212C312CFFE1F31538F08B3211F163
:1057100090F4803209F1833229F137FC3CC020ED4E
:10572000280F2A3050F536FE20C08AE0989E200DC2
:105730001124922E06C08D3291F0803371F7689457
:1057400030F8F30193FD859193FF81913F01811121
:10575000DACF21C0689431F8689432F8F2CF6894B7
:1057600033F8EFCF689434F8ECCFEAE02E9E200DAA
:105770001124222E689435F8E4CF8E3229F436FCB9
:1057800004C1689436F8DDCF8C3619F4689437F884
:10579000D8CF8836B1F2982F9F7D95549330E0F0A2
:1057A0008336A1F18337C1F1833509F063C0280145
:1057B000F2E04F0E511CF801C080D180692D70E0DD
:1057C00036FC02C06FEF7FEFC6010E94662F4C01CE
:1057D000689437F882010AC00C5F1F4FFFE3F9831A
:1057E00088248394912C6501E89437F833FE2DC00A
:1057F000522C8114910471F5552009F468CFB7013A
:1058000080E290E00E94712F5A94F6CFF8018081D7
:1058100089830E5F1F4FE4CF2801F2E04F0E511C29
:10582000F801C080D180692D70E036FC02C06FEFB6
:105830007FEFC6010E941A2B4C018201D5CFB70120
:1058400080E290E00E94712F2A942814190409F034
:10585000B0F7CECFF60137FC859137FE81916F010D
:10586000B70190E00E94712F51105A94F1E08F1A05
:105870009108BFCF843619F0893609F077C0F80156
:1058800037FE6BC060817181828193810C5F1F4FF5
:10589000F32DFF763F2E97FF09C090958095709568
:1058A00061957F4F8F4F9F4F689437F82AE030E023
:1058B000A5010E94A12FC82ECA188C2C432C36FE9D
:1058C0000CC0E89440F8C91440F434FE05C032FC22
:1058D00003C0F32DFE7E4F2E892C44FE95C0FE01A1
:1058E000EC0DF11D8081803309F087C0242D297EC5
:1058F000422E842D8870582E43FC95C040FE8FC0E8
:105900009C2C821418F42C0C922C981844FE91C0F4
:10591000B70180E390E00E94712F42FE09C088E742
:1059200090E041FE02C088E590E0B7010E94712F2F
:10593000C91408F48AC0CA94D12C9FEFC91AD90A95
:10594000CA0CDB1CF60182916F01B70190E00E9446
:10595000712FAC14BD04B1F74FCF60817181072E58
:10596000000C880B990B0E5F1F4F92CFD32CE8943D
:10597000D4F82AE030E0853739F1232D297FD22E63
:105980008F3601F148F48835A9F0F70186819781B7
:105990002B96E2E10C944D30803749F08837A9F717
:1059A000D4FE02C06894D2F820E130E00DC06894C3
:1059B000D4F8F6CF34FE03C0822F8660D82E20E1C3
:1059C00032E002C028E030E0F801D7FE0FC060816D
:1059D0007181828193810C5F1F4FA5010E94A12FCD
:1059E000C82ECA183D2CE89437F867CF60817181C2
:1059F00090E080E00E5F1F4FF0CF42FC02C0839426
:105A000078CF8394839475CF842D867809F471CFF1
:105A1000F6CFB70180E290E00E94712F8394821448
:105A2000C0F3512C73CF522C5818821408F46ECF47
:105A3000F8CF842D867809F47BCF8BE241FE80E29B
:105A400047FC8DE2B70190E071CFB70180E390E0B1
:105A50000E94712F9A946CCF8FEF9FEF99CFA9E09E
:105A6000B0E0E5E3FDE20C9437306A01F22EB02E8F
:105A7000102FFBE3AF2EA01608F41BE31F5F012FCE
:105A800027E0AE014F5F5F4F0E948E2EBC018981DF
:105A9000982F9970913009F43FC09BE2E1FC04C05B
:105AA0009E2D9170E0FC3AC05E2D5071E82FE87099
:105AB00083FF46C084E0911101C083E0EF2DE81B15
:105AC0008F1508F0E0E0D6018E2F20E2552351F12A
:105AD000992329F0D6019C93C60101966C01960189
