:020000040000FA
:100000000C9463000C948B000C948B000C948B006C
:100010000C948B000C948B000C948B000C948B0034
:100020000C948B000C948B000C948B000C948B0024
:100030000C948B000C948B000C948B000C948B0014
:100040000C94DD1A0C948B000C944D1B0C94271B04
:100050000C948B000C948B000C948B000C948B00F4
:100060000C948B000C948B000000000024002700EF
:100070002A0000000000250028002B0000000008D6
:10008000000201000003040700000000000000005F
:1000900000000000230026002900040404040404D6
:1000A0000404020202020202030303030303010227
:1000B00004081020408001020408102001020408F6
:1000C00010207F1B8C2511241FBECFEFD8E0DEBF90
:1000D000CDBF13E0A0E0B1E0EEE5FAE502C0059087
:1000E0000D92A83DB107D9F726E0A8EDB3E001C015
:1000F0001D92A03DB207E1F710E0C2E6D0E004C0D7
:100100002197FE010E940C2AC136D107C9F70E942F
:10011000851C0C94222D0C940000CF92DF92EF925C
:10012000FF92CF93DF93B091C006A0E08111AB2F77
:100130008091C10690E0880F991FAC0140575F4F36
:10014000C090C606D090C706E090C806F090C906D9
:1001500030E020E0FA01C591D491E881B90190E046
:1001600080E0EB23EA130AC02F5F3F4F6C157D053B
:100170008E059F0578F36FEF7FEFCB01DF91CF9175
:10018000FF90EF90DF90CF9008958CBD9DBD0895B6
:1001900020E3FC0120833296862F82958F706F704A
:1001A0006A3030F4605D6293682F8111F5CF089555
:1001B000695CF9CFCF93DF93EC01FA013296E60F39
:1001C000F71FDC019D012C1B3D0BCF01861B970BFC
:1001D0004D91442311F04193F5CFAC01421B530BD9
:1001E000640F751FFB013297308361507109FB0169
:1001F0002083DF91CF910895FC01818D928D089528
:100200000895833081F028F4813099F08230A9F08C
:1002100008958730A9F08830C9F08430B1F4809116
:1002200080008F7D03C0809180008F778093800055
:10023000089584B58F7784BD089584B58F7DFBCFF5
:100240008091B0008F778093B00008958091B000C6
:100250008F7DF9CFCF93DF93282F30E0F901E45859
:10026000FF4F8491F901E255FF4FD491F901E65611
:10027000FF4FC491CC23A1F081110E940101EC2F0A
:10028000F0E0EE0FFF1FE057FF4FA591B491EC9106
:10029000ED2381E090E009F480E0DF91CF910895B3
:1002A00080E090E0FACF1F93CF93DF93282F30E0C8
:1002B000F901E458FF4F8491F901E255FF4FD491C1
:1002C000F901E656FF4FC491CC23A9F0162F8111F6
:1002D0000E940101EC2FF0E0EE0FFF1FEE58FF4FE0
:1002E000A591B4918FB7F894EC91111108C0D095F5
:1002F000DE23DC938FBFDF91CF911F910895DE2B1A
:10030000F8CFCF93DF9390E0FC01E255FF4F2491AB
:1003100086569F4FFC0184918823C9F090E0880F96
:10032000991FFC01E859FF4FA591B491FC01EE58CB
:10033000FF4FC591D49161110DC09FB7F8948C9176
:10034000209582238C938881282328839FBFDF9167
:10035000CF910895623051F49FB7F8943C91822F69
:10036000809583238C93E8812E2BEFCF8FB7F89461
:10037000EC912E2B2C938FBFEACF3FB7F89480914E
:10038000750590917605A0917705B091780526B511
:10039000A89B05C02F3F19F00196A11DB11D3FBFBD
:1003A000BA2FA92F982F8827BC01CD01620F711D8C
:1003B000811D911D42E0660F771F881F991F4A9586
:1003C000D1F708958F929F92AF92BF92CF92DF9212
:1003D000EF92FF924B015C010E94BD016B017C0119
:1003E0000E94BD016C197D098E099F09683E73400A
:1003F00081059105A8F321E0821A9108A108B108AE
:1004000088EEC80E83E0D81EE11CF11C8114910413
:10041000A104B10429F7FF90EF90DF90CF90BF9037
:10042000AF909F908F9008952FB7F89460917105C9
:100430007091720580917305909174052FBF089596
:10044000CF92DF92EF92FF920F931F93CF93DF93A0
:10045000CDB7DEB7C054D1400FB6F894DEBF0FBEA3
:10046000CDBF0E9414020091C2061091C3062091D4
:10047000C4063091C5066B017C01C01AD10AE20A9C
:10048000F30A97018601003D17402105310590F4DC
:100490008091CA06C05CDE4F0FB6F894DEBF0FBE77
:1004A000CDBFDF91CF911F910F91FF90EF90DF9023
:1004B000CF9008956093C2067093C3068093C406DC
:1004C0009093C5061092BD061092BC061092BB0612
:1004D0001092BA061092B90662E08091BE060E94A0
:1004E000810161E070E080E090E00E94E20161E063
:1004F0008091BE060E94810160E08091BE060E944C
:1005000053018091BF068551823020F58BE291E145
:100510000197F1F762E08091BE060E94810180910F
:10052000CB0690E08230910538F0880F991F880F34
:10053000991F05970197F1F7F89480E00E948D00CC
:100540006F3F7F4F8F4F9F4F61F41092CA06789490
:1005500080E0A0CF64E170E080E090E00E94E201E2
:10056000D9CF81E00E948D006F3F7F4F8F4F9F4F0B
:1005700061F38E010F5F1F4F6E012FEBC21A2EEF3A
:10058000D20A780180E00E948D00F70160837183B8
:100590008283938381E00E948D00F70164837583D9
:1005A00086839783F8E0EF0EF11CEC14FD0451F7FD
:1005B000789430E020E0F801C080D180E280F380C0
:1005C0004481558166817781FFEFCF16DF06EF0604
:1005D000FF0631F04F3F8FEF58076807780719F48F
:1005E0001092CA06B5CFF90183E0F595E7958A9593
:1005F000E1F7E754F94F8081880FC416D506E60667
:10060000F70610F180832F5F3F4F085F1F4F28329E
:10061000310589F64091BD062091B9068091BA0650
:10062000280F3327331F8091BB06280F311D80917F
:10063000BC06820F932F911D99274817190681F642
:1006400081E08093CA0626CF8160DCCFAF92BF9253
:10065000CF92DF92EF92FF920F931F93CF93DF938E
:100660006C017B018B01040F151FEB015E01AE18BD
:10067000BF08C017D10759F06991D601ED91FC91DF
:100680000190F081E02DC6010995892B79F7C5010C
:10069000DF91CF911F910F91FF90EF90DF90CF905E
:1006A000BF90AF900895FC01538D448D252F30E00D
:1006B000842F90E0821B930B541710F0CF9608956F
:1006C00001970895FC01918D828D981761F0A28D9C
:1006D000AE0FBF2FB11D5D968C91928D9F5F9F7362
:1006E000928F90E008958FEF9FEF0895FC01918D18
:1006F000828D981731F0828DE80FF11D858D90E085
:1007000008958FEF9FEF0895FC01918D228D892F21
:1007100090E0805C9F4F821B91098F739927089509
:1007200086E995E00E94840321E0892B09F420E00A
:10073000822F089580E090E0892B29F00E94900399
:1007400081110C9400000895FC01A48DA80FB92F0D
:10075000B11DA35ABF4F2C91848D90E001968F73E9
:100760009927848FA689B7892C93A089B1898C9108
:10077000837080648C93938D848D981306C0028857
:10078000F389E02D80818F7D80830895EF92FF9221
:100790000F931F93CF93DF93EC0181E0888F9B8DA4
:1007A0008C8D98131AC0E889F989808185FF15C05E
:1007B0009FB7F894EE89FF896083E889F989808181
:1007C0008370806480839FBF81E090E0DF91CF9150
:1007D0001F910F91FF90EF900895F62E0B8D10E072
:1007E0000F5F1F4F0F731127E02E8C8D8E110CC0E1
:1007F0000FB607FCFACFE889F989808185FFF5CF2C
:10080000CE010E94A403F1CFEB8DEC0FFD2FF11D63
:10081000E35AFF4FF0829FB7F8940B8FEA89FB8968
:1008200080818062CFCFCF93DF93EC01888D8823C6
:10083000B9F0AA89BB89E889F9898C9185FD03C043
:10084000808186FD0DC00FB607FCF7CF8C9185FF28
:10085000F2CF808185FFEDCFCE010E94A403E9CFC6
:10086000DF91CF910895CF93DF93FC01A481B581EF
:10087000109711F480E029C0EC01ED91FC911197E3
:100880000688F789E02DCD0109952FA138A58111A2
:1008900019C0232B79F78DEF9FEF98A78FA38C8139
:1008A0009D81DC01ED91FC910680F781E02D099599
:1008B0008C819D81DC01ED91FC910488F589E02D0E
:1008C0000995D8CF81E0232BA9F6DF91CF91089528
:1008D000CF92DF92EF92FF920F931F93CF93DF930C
:1008E00000D000D0CDB7DEB78C01F90180E0DE0189
:1008F00011967D019E2F9F77EE0FEF2FEE1FFF0BBE
:10090000F195309709F09068D701A80FB11D9C931D
:100910008F5F309779F790E0FA01E81BF90B648359
:10092000FA01E81BF90B3596D701BD016E197F0955
:10093000681779071CF46D916193F7CFFC0131962C
:10094000D80114968D919C917F01E20EF31EBA019D
:100950006E1B7F0B6B5F7F4FDC01ED91FC91028082
:10096000F381E02DA70109956C010E941402F801A2
:10097000608B718B828B938B81E0EC14FD0409F00A
:1009800080E00F900F900F900F90DF91CF911F910B
:100990000F91FF90EF90DF90CF900895EF92FF922C
:1009A0000F931F93CF93DF93EC018B017A010E9489
:1009B0001402688B798B8A8B9B8B8C819D81DC01E7
:1009C000ED91FC910280F381E02DA701B801DF9148
:1009D000CF911F910F91FF90EF9009941F93CF93A8
:1009E000DF93EC01162F0E941402688B798B8A8B9F
:1009F0009B8B8C819D81DC01ED91FC910190F081BC
:100A0000E02D612FDF91CF911F9109948F929F92DA
:100A1000AF92BF92CF92DF92EF92FF920F931F930C
:100A2000CF93DF93EC018B010E9414024B015C0118
:100A30008C819D81DC01ED91FC910084F185E02D9C
:100A40000995892BA9F40E9414026B017C01C81836
:100A5000D908EA08FB082C853D85A8EEB3E00E9482
:100A6000BA27C616D706E806F90610F380E00CC0D0
:100A70008C819D81DC01ED91FC910284F385E02D58
:100A80000995F801808381E0DF91CF911F910F914B
:100A9000FF90EF90DF90CF90BF90AF909F908F909E
:100AA00008953F924F925F926F927F928F929F92A2
:100AB000AF92BF92CF92DF92EF92FF920F931F936C
:100AC000CF93DF93CDB7DEB764970FB6F894DEBF50
:100AD0000FBECDBF8C016B01DC0116966D917C9130
:100AE0000E94060581111BC060E070E0CB01649696
:100AF0000FB6F894DEBF0FBECDBFDF91CF911F912F
:100B00000F91FF90EF90DF90CF90BF90AF909F90AC
:100B10008F907F906F905F904F903F900895D80195
:100B20001696ED91FC9130801982E1E0F0E0FB83B4
:100B3000EA83412C512C3201812C912C5401839455
:100B4000BE016F5F7F4FC8010E940605882361F2D6
:100B5000EA80FB80BFEFEB1AFB0A8981D801169669
:100B6000ED91FC912A813B81E20FF31F8083E981A3
:100B7000AE2FAF77B0E0A50194010E948527460E05
:100B8000571E681E791E37E0880C991CAA1CBB1CD6
:100B90003A95D1F7E7FD44C0332D307F332E8FEFE8
:100BA0008E0DD6018C93B0E33B1353C0F8016681E0
:100BB00077816E0D7F1DC8010E940605882309F408
:100BC00093CFD80116966D917C918A819B81029674
:100BD000680F791FC8010E940605882309F484CF95
:100BE000EA80FB80B3E0EB0EF11CD8011696ED9184
:100BF000FC91D6018C91DF01A80FB11D11968C914B
:100C0000119790E0982F882712962C91820F911DB2
:100C1000208121FD0296F2E0E0E030E020E01FC0FC
:100C2000FB82EA8297012530310509F089CF8FEFE9
:100C30009FEFD80198969C938E93979714968D91D9
:100C40009C91DC01ED91FC910488F589E02D0995DA
:100C50004BCFF0E0E0E030E020E090E080E0A70162
:100C600070E060E08F2E9E2EA32EB22E48195909F7
:100C70006A097B094E835F83688779879C0150E00E
:100C800040E02B873C874D875E874E815F8168857A
:100C90007985480D591D6A1D7B1D4A835B836C83D2
:100CA0007D8384149504A604B70408F051C0BE01E6
:100CB0006F5F7F4FC8010E940605882309F414CF97
:100CC000D80195960D90BC91A02DBC8BAB8BAB2B16
:100CD00049F1B0E33B1226C0F60120814EEF5FEFF1
:100CE0006FEF7FEF421B5109610971098A819B8176
:100CF000AC81BD81480F591F6A1F7B1F8B859C8566
:100D0000AD85BE8584179507A607B70758F4AB894C
:100D1000BC89ED91FC9111970190F081E02D6981E2
:100D2000CD010995F80180859185E816F90650F402
:100D300089810680F781E02DEE0DFF1D8083FFEF96
:100D4000EF1AFF0A2FEF821A920AA20AB20A9DCF67
:100D5000D80195968D919C919697892B81F4189640
:100D60008D919C91B0E0A0E02A813B814C815D8116
:100D700082179307A407B50710F4F12CE12CB701F3
:100D800090E080E0B4CEFC0120812EBD9B0121507B
:100D9000310941F051810DB407FEFDCF4EB55EBD66
:100DA0004193F5CF61507109860F971F0DB407FE6F
:100DB000FDCF2EB5FC0120830895E091D903F09179
:100DC000DA0380819091D803892B80830895E09184
:100DD000D903F091DA0390818091D803809589231B
:100DE000808308958EBD00000DB407FEFDCF8EB543
:100DF0000895AF92BF92CF92DF92EF92FF920F933E
:100E00001F93CF93DF93CDB7DEB728970FB6F89433
:100E1000DEBF0FBECDBF8C017B016A0180919505BD
:100E20008333E1F45801A40EB51EA016B10609F4EF
:100E30006FC00E94E70680EF0E94F206812F0E9499
:100E4000F206802F0E94F2060F5F1F4FF70181917B
:100E50007F010E94F2060E94DD06E7CF5B01A40E2F
:100E6000B51E8433C1F40E94E70619830A838D2DD1
:100E700080688B83CC8264E070E0CE0101960E9492
:100E8000C306AE14BF0409F441C0F70181917F018C
:100E90000E94F206F6CF0E94E7060F3F110509F007
:100EA00028F419820A8384E08B830CC017FD17C0D5
:100EB00019820A8333E0169507953A95E1F7007E8B
:100EC0000C600B8386E0C816D104A0F5F701DE01A3
:100ED0001496EA15FB0599F081918D93FACFC8011C
:100EE00026E0969587952A95E1F7807E19830A83F7
:100EF0000115104C10F48461D7CF8C61D5CFB601A9
:100F00006D5F7F4FCE0101960E94C3060E94DD06F1
:100F1000C60128960FB6F894DEBF0FBECDBFDF9195
:100F2000CF911F910F91FF90EF90DF90CF90BF90E6
:100F3000AF90089563E070E0CE0101960E94C30671
:100F4000F70181917F010E94F206AE14BF04C1F740
:100F5000DDCFCF93DF931F92CDB7DEB7898341E01A
:100F600050E0BE016F5F7F4F90E080E00E94F90685
:100F70000F90DF91CF91089590E020919505233354
:100F800039F40C96982F990F990F990F80E00895D6
:100F90004896F8CFDA01E091DC03F0E0FE2FEE276F
:100FA000E60FF71F90E0982F8827A901BD018E0F4B
:100FB0009F1F0C94F906CF93DF9300D0CDB7DEB717
:100FC00079836A8322E030E0AE014F5F5F4F60E1DA
:100FD00070E00E94CA070F900F90DF91CF910895A3
:100FE000CF93DF9300D0CDB7DEB779836A8322E059
:100FF00030E0AE014F5F5F4F64E070E00E94CA07CF
:101000000F900F90DF91CF910895CF93DF931F92B0
:10101000CDB7DEB72091DC0330E0322F2227260F38
:10102000371F90E0982F8827498341E050E0BE01A8
:101030006F5F7F4F820F931F0E94F9060F90DF9121
:10104000CF910895CF93DF931F92CDB7DEB7698319
:10105000DC01ED91FC910280F381E02D41E050E054
:10106000BE016F5F7F4F09950F90DF91CF9108957B
:101070000895FC019485FB018485981303C081E0E9
:10108000943008F080E00895CF93DF931F92CDB79E
:10109000DEB76983DC01ED91FC910280F381E02DE4
:1010A00041E050E0BE016F5F7F4F09950F90DF91E7
:1010B000CF9108950895FF920F931F93CF93DF93DD
:1010C000EB01FC01178A168A2A81211109C02B81A4
:1010D000211106C02C81211103C02D81222301F191
:1010E00041155105E9F08A01FC01F08C80E591E0A1
:1010F0000E94C500AE014E5F5F4F24E030E06CE01F
:1011000070E08F2D0E94CA07B8018F2D0E94DB0767
:1011100081E090E0DF91CF911F910F91FF900895B2
:1011200080E0F7CFFC01848595850895FC018489D2
:10113000958908952DE931E0FC0131832083FB017D
:101140004089518962897389FC0142835383648396
:1011500075830895DC01ED91FC91048CF58DE02DF3
:10116000099490E080E00895FC01768765870895F2
:10117000DC01ED91FC9102A0F3A1E02D099591E035
:1011800089270895862F089581E08627089521E014
:10119000FC018485843008F020E0822F08950895B2
:1011A000AF92BF92CF92DF92EF92FF920F931F9375
:1011B000CF93DF9300D000D0CDB7DEB78C016B01A9
:1011C0007A01809195058333E9F45B016801C40ECF
:1011D000D51EC016D106A9F10E94E7068FE00E9435
:1011E000F206812F0E94F206802F0E94F2060F5F06
:1011F0001F4F80E00E94F206F50181935F010E947B
:10120000DD06E7CF843369F50E94E70619830A8378
:101210008F2D8F778B83EC8264E070E0CE01019696
:101220000E94C306A70170E060E0C6010E94312A57
:10123000E114F10421F0B701C6010E94C3060E9427
:10124000DD06C7010F900F900F900F90DF91CF91A7
:101250001F910F91FF90EF90DF90CF90BF90AF90D4
:1012600008950E94E7060F3F110509F030F4198236
:101270000A831B8263E070E0D1CF17FD0BC0198297
:101280000A8333E0169507953A95E1F7007E0860EA
:101290000B83F0CFC80126E0969587952A95E1F754
:1012A000807E19830A830115104C18F480618B83AA
:1012B000E1CF8861FCCFCF93DF931F92CDB7DEB72C
:1012C0002091DC0330E0322F2227260F371F90E0D9
:1012D000982F882741E050E0BE016F5F7F4F820F5B
:1012E000931F0E94D00889810F90DF91CF910895BC
:1012F000CF93C82F462F61E070E00E94050861E09F
:1013000070E08C2F0E945B098111F9CFCF91089575
:10131000CF93C82F80E591E00E94C50068E070E09F
:101320008C2FCF910C947809CF93C82F80E591E052
:101330000E94C50060E170E08C2FCF910C94780979
:10134000CF93DF93EC01888D843020F40E949409C0
:1013500084E0888FDF91CF910895CF93C82F80E5E7
:1013600091E00E94C50063E070E08C2FCF910C9457
:101370005B09CF93DF93EC018C858430D0F40E941D
:10138000AD09843189F0882379F0883169F021E052
:101390008C3159F4E881F9810084F185E02DCE018A
:1013A000099521E0892B09F420E0822FDF91CF916C
:1013B000089580E0FBCFCF92DF92EF92FF92CF9320
:1013C000DF93EC018C85843068F40E9488090E94C8
:1013D00014026B017C018C850E94AD09811109C04A
:1013E00084E08C87DF91CF91FF90EF90DF90CF90DA
:1013F000089561E070E080E090E00E94E2010E94C8
:101400001402AB01BC014C195D096E097F098D8581
:101410009E85B0E0A0E0481759076A077B07D8F21D
:101420008C850E949409DCCFCF93FC01C08D80E5B0
:1014300091E00E94C50060E270E08C2F0E94780964
:1014400062E070E08C2F0E945B0984FD16C062E0B0
:1014500070E08C2F0E945B0983FF0AC048E162E0C4
:1014600070E08C2F0E94050880E090E0CF910895F5
:1014700080E591E00E94C500E3CF40E162E070E0CA
:101480008C2F0E94050881E0F0CFCF93DF931F924D
:10149000CDB7DEB741E050E0BE016F5F7F4F90E017
:1014A00080E00E94D00889810F90DF91CF9108954C
:1014B000CF93DF93C4E1D0E00E94450A882361F016
:1014C00061E070E080E090E00E94E2012197A1F7E6
:1014D00080E0DF91CF91089581E0FBCF1F93CF9300
:1014E000DF931F92CDB7DEB7182F80E591E00E9401
:1014F000C500812F0E94BC0727E0129FF001112434
:10150000E758FA4F22813381377041E050E0BE0145
:101510006F5F7F4F820F931F0E94D00889810F90C9
:10152000DF91CF911F910895FC01808D843040F4AC
:10153000218D328D232B21F00E946E0A90E00895B8
:101540008FEF9FEF0895CF93DF93FC012485243024
:1015500028F08FEF9FEFDF91CF910895EC0101907C
:10156000F081E02D0084F185E02D0995892B89F328
:101570008C850E946E0A90E0EECFDA01E091DC03E8
:10158000F0E0FE2FEE27E60FF71F90E0982F882758
:10159000A901BD018E0F9F1F0C94D0088F929F92BE
:1015A000AF92BF92CF92DF92EF92FF921F93CF93B1
:1015B000DF93CDB7DEB72C970FB6F894DEBF0FBE22
:1015C000CDBF2091950514E0222339F16B017C01F8
:1015D00080E591E00E94C5005E0127E0A20EB11CEB
:1015E000450110E063E070E0812F0E945B09F40187
:1015F00081934F01882349F11F5F143099F710E060
:10160000F50181915F018D31D9F08831C9F08A519E
:101610008230B0F01F5F143099F7812F2C960FB6EF
:10162000F894DEBF0FBECDBFDF91CF911F91FF9029
:10163000EF90DF90CF90BF90AF909F908F900895E4
:1016400060E170E0812F0E947809A12EB12C83EE19
:1016500093E00197F1F742E870E060E0812F0E948B
:1016600005084FEF62E070E0812F0E940508B60187
:10167000C114D10491F48091060190910701019663
:101680008115F0EC9F0708F45CC0909307018093EC
:1016900006016091060170910701812F0E94F007F9
:1016A00086E0E2E1F1E0DE01119601900D928A956B
:1016B000E1F7F70183818F778C8384818D83858126
:1016C0008E83A7014E5F5F4F24E030E06CE070E056
:1016D000812F0E94CA07B601812F0E94DB0726E0F6
:1016E00030E0AE014F5F5F4F66E070E0812F0E94F7
:1016F000CA0761E070E0812F0E94780927E02A9DE7
:10170000C0012B9D900D11249C0127583A4F79015F
:10171000F9011182108222E030E0AE01455F5F4F97
:1017200068E270E0812F0E94BD0A8B859C85982716
:1017300089279827F7019383828316821582148262
:101740006CCF80E090ECA1CFCF92DF92EF92FF922E
:101750000F931F93CF93DF9300D000D000D0CDB76D
:10176000DEB78C016B017A01FC01808D843010F4AE
:101770000E9494098DE991E09A838983F601828120
:101780009381A481B5818B839C83AD83BE83B70194
:10179000CE0101960E94CE0AF801808F8430A0F419
:1017A000F586E486128E118E81E026960FB6F894A7
:1017B000DEBF0FBECDBFDF91CF911F910F91FF9084
:1017C000EF90DF90CF90089580E0EFCFAF92BF927F
:1017D000CF92DF92EF92FF920F931F93CF93DF93FD
:1017E00000D000D000D0CDB7DEB7082F6B0180E568
:1017F00091E00E94C5009E012F5F3F4F7901590182
:1018000010E063E070E0812F0E945B09F501819395
:101810005F01882341F11F5F143099F710E0F70151
:1018200081917F018D31D1F08831C1F08A518230B0
:10183000A8F01F5F143099F7812F26960FB6F89401
:10184000DEBF0FBECDBFDF91CF911F910F91FF90F3
:10185000EF90DF90CF90BF90AF90089560E170E07F
:10186000812F0E947809E12EF12C83EE93E00197FD
:10187000F1F7402F70E060E0812F0E9405084FEFE4
:1018800062E070E0812F0E940508B601CD2889F43E
:10189000809106019091070101968115F0EC9F0758
:1018A00098F1909307018093060160910601709171
:1018B0000701812F0E94F00761E070E0812F0E94F4
:1018C000780927E02E9DC0012F9D900D11249C01C9
:1018D00027583A4F7901F9011182108222E030E055
:1018E000AE014B5F5F4F68E270E0812F0E94BD0A3E
:1018F0008D819E81982789279827F701938382837A
:1019000016821582148298CF80E090ECCACFCF92D5
:10191000DF92EF92FF921F93CF93DF93EC017B0155
:101920006A018C85843048F40E94AD09882319F03F
:101930008C850E94880984E08C87F70182819381DD
:10194000A481B5810097A105B10551F490E080E034
:10195000DF91CF911F91FF90EF90DF90CF9008958E
:101960008F3F9F4FAF4FBF4F89F3809195058111F6
:1019700003C084E08C87EACF70E060E081E20E94DF
:10198000E60B182F8C87843008F780E591E00E94E1
:10199000C500A7014E5F5F4F24E030E06CE070E0CF
:1019A000812F0E94CA07B601812F0E94DB0764E0E5
:1019B00070E0812F0E9478090E9414026B017C0163
:1019C0008C850E94AD09873109F18C31F9F08823AB
:1019D00009F4BCCF0E941402AB01BC014C195D0993
:1019E0006E097F098D859E85B0E0A0E0841795077C
:1019F000A607B70738F061E070E080E090E00E9451
:101A0000E201DECF8C850E949409B3CF81E090E0A3
:101A10009FCF0F931F93CF93DF93EC018B01888DA2
:101A2000843010F40E94940980919505811107C0BB
:101A300094E0988FDF91CF911F910F910895B80195
:101A400082E00E94E60B888F843030F41D870C877B
:101A50001A8E198E81E0EECF80E0ECCF7F928F92CC
:101A60009F92AF92BF92CF92DF92EF92FF920F932D
:101A70001F93CF93DF9300D0CDB7DEB7782E8B01C5
:101A80004A01590122E030E0AE014F5F5F4F64E24E
:101A900070E00E94BD0AE980FA80FE24EF24FE2453
:101AA000E00EF11E9701377040919505072D10E06B
:101AB000433309F042C0085F1F4F102F0027110F5A
:101AC000110F110FC901800F911F4733C9F1A901EF
:101AD0004A0D5B1D4130584098F160E078E06B01A1
:101AE000C21AD30AA601B4010E94F906A5014C1935
:101AF0005D09B4016C0D7D1DC8010E94F906EA0C58
:101B0000FB1CF982EA8222E030E0AE014F5F5F4FBA
:101B100064E270E0872D0E94CA070F900F90DF915A
:101B2000CF911F910F91FF90EF90DF90CF90BF90DA
:101B3000AF909F908F907F900895005F1F4FBDCF13
:101B4000A501B401DACFEF92FF921F93CF93DF93F9
:101B500000D0CDB7DEB7182F22E030E0AE014F5FE6
:101B60005F4F60E270E00E94BD0AE980FA80FE24C7
:101B7000EF24FE2422E030E0AE014F5F5F4F60E2D1
:101B800070E0812F0E94BD0A89819A819827892758
:101B90009827E816F90689F487E0189FF0011124C8
:101BA000E758FA4FF582E482C7010F900F90DF915A
:101BB000CF911F91FF90EF9008957C01DBCF1F9391
:101BC000CF93DF93182F80E591E00E94C500812F0D
:101BD0000E94A30DEC0163E070E0812F0E945B097D
:101BE000873121F08C3111F0D0E0C0E0CE01DF91DF
:101BF000CF911F910895CF93DF93EC018C858430B2
:101C000060F40E94AD09873111F08C3131F48C857C
:101C10000E94DF0D8115984088F3DF91CF910895E0
:101C2000FC018485843010F40C94DF0D90E080E09A
:101C300008959F92AF92BF92CF92DF92EF92FF9260
:101C40000F931F93CF93DF938C015B01942EE52EAE
:101C5000FC01C688D788F08C80E591E00E94C50021
:101C60008F2D0E94A30DC92DDE2D8C179D0708F422
:101C7000EC019E01A501B6018F2D0E942E0DF801E9
:101C8000868997898C0F9D1F978B868BCE01DF915C
:101C9000CF911F910F91FF90EF90DF90CF90BF9069
:101CA000AF909F9008958F929F92AF92BF92CF92E4
:101CB000DF92EF92FF920F931F93CF936C015B0122
:101CC0008A01FC01C485C430F0F57A0141305840E6
:101CD00018F0E12C88E0F82E80E591E00E94C50024
:101CE0008C2F0E94A30D4C0163E070E08C2F0E94AA
:101CF0005B09873111F08C3149F58E149F0460F334
:101D000080E591E00E94C5009701A50170E060E0C8
:101D10008C2F0E942E0D60E270E08C2F0E947809BB
:101D200062E070E08C2F0E945B0984FD17C063E0C5
:101D300070E08C2F0E945B0981110BC081E090E064
:101D4000F6019383828310E000E010C0F12CE12CB7
:101D5000D7CF80E591E00E94C500E2CF40E162E08C
:101D600070E08C2F0E940508EF2841F3C801CF9145
:101D70001F910F91FF90EF90DF90CF90BF90AF90A9
:101D80009F908F900895FF920F931F93CF93DF93AF
:101D900000D0CDB7DEB7F82E22E030E0AE014F5FC5
:101DA0005F4F66E270E00E94BD0A09811A81102728
:101DB0000127102722E030E0AE014F5F5F4F66E25F
:101DC00070E08F2D0E94BD0A89819A81982789270A
:101DD00098270817190749F4C8010F900F90DF9151
:101DE000CF911F910F91FF9008958C01E3CF1F9326
:101DF000CF93DF93182F87E0189FE0011124C75875
:101E0000DA4F88819981009761F480E591E00E9422
:101E1000C500812F0E94C30E2E81821B91099983D8
:101E20008883DF91CF911F910895FC0184858430D0
:101E300010F40C94F70E90E080E008954F925F92BA
:101E40007F928F929F92AF92BF92CF92DF92EF924A
:101E5000FF920F931F93CF93DF9300D0CDB7DEB7E0
:101E6000782E6B014A01A82EB12C27E0829FC00179
:101E70001124FC01E758FA4F7F010081118180E5B0
:101E800091E00E94C5000815190554F4872D0E94A1
:101E9000C30EF70126818C01021B110911830083F7
:101EA0000115110529F563E070E0872D0E945B099B
:101EB000843159F0882349F001E010E08C3111F4AD
:101EC00010E000E0119501951109C8010F900F90E5
:101ED000DF91CF911F910F91FF90EF90DF90CF9006
:101EE000BF90AF909F908F907F905F904F9008959C
:101EF000801691060CF4840187E08A9DF0018B9D89
:101F0000F00D1124E758FA4FE280F380C114D10498
:101F100051F12701F7E05F22872D0E94BC07840D55
:101F2000951D20919505273309F453C09801240D80
:101F3000351D2130384008F44CC020E038E049011C
:101F400084189508A401B6010E94D0082601480C07
:101F5000591C6801C818D908872D0E94BC07A60122
:101F6000B2010E94D008E00EF11E87E08A9DF001C8
:101F70008B9DF00D1124E758FA4FF382E282208105
:101F80003181201B310B318320838681800F912F7B
:101F9000911D8A3F910510F4232BF1F487E08A9D6F
:101FA000F0018B9DF00D1124E758FA4F1682F9824B
:101FB000EA8222E030E0AE014F5F5F4F68E270E0FE
:101FC000872D0E94CA0760E470E0872D0E9478097F
:101FD0007CCFA801B601C5CF868377CFCF93DF939F
:101FE000FC01218D328D2115310529F48FEF9FEFF2
:101FF000DF91CF910895EC01808D4217530708F0CF
:10200000A9010E941E0F1816190684F7298D3A8D12
:10201000281B390B3A8F298FEBCF0F931F93CF9348
:10202000DF931F92CDB7DEB7FC01218D328D232BBC
:1020300041F48FEF9FEF0F90DF91CF911F910F91A0
:1020400008958C0141E050E0BE016F5F7F4FFC01BD
:10205000808D0E941E0F181619065CF7F801818DFD
:10206000928D0197928F818F898190E0E4CFCF93F9
:10207000DF931F92CDB7DEB741E050E0BE016F5F46
:102080007F4FFC0184850E941E0F1816190634F438
:10209000898190E00F90DF91CF9108958FEF9FEFAE
:1020A000F9CFFC018485843010F40C941E0F90E06D
:1020B00080E008950F931F93CF93DF9300D0CDB7A7
:1020C000DEB7FC0124852430E0F48C0180E591E04A
:1020D0000E94C50022E030E0AE014F5F5F4F60E13B
:1020E00070E0F80184850E94BD0A89819A81982751
:1020F000892798270F900F90DF91CF911F910F9113
:10210000089590E080E0F6CF0F931F93CF93DF9375
:1021100000D0CDB7DEB7FC0124852430E0F48C017B
:1021200080E591E00E94C50022E030E0AE014F5F03
:102130005F4F64E070E0F80184850E94BD0A8981E8
:102140009A819827892798270F900F90DF91CF9138
:102150001F910F91089590E080E0F6CFDC018DE9AA
:1021600091E08D939D9384E0FB0101900D928A95FF
:10217000E1F70895EF92FF920F931F93CF93DF93B0
:1021800000D000D0CDB7DEB78C017B01FB01848588
:102190008430A8F08DE991E0F80191838083128268
:1021A000138214821582C8010F900F900F900F9028
:1021B000DF91CF911F910F91FF90EF90089580E5EF
:1021C00091E00E94C50024E030E0AE014F5F5F4F18
:1021D0006CE070E0F70184850E94BD0ABE016F5F6C
:1021E0007F4FC8010E94AE10DECF0F931F93CF9395
:1021F000DF93CDB7DEB728970FB6F894DEBF0FBEDA
:10220000CDBF8C01D80159964D915C915A974115DB
:10221000510551F0ED91FC91048CF58DE02D70E0AD
:1022200060E0C8010995EECFF801808D0E94F70E9D
:10223000892BB1F148E050E0BE016F5F7F4FD801BC
:1022400058968C910E941E0F18161906F4F4D801A6
:10225000509684E0FE01319601900D928A95E1F747
:102260008D8190E0982F88272E81820F911DF80193
:10227000958B848B8F81282F30E0322F2227888501
:10228000820F932F911D928F818F28960FB6F8940D
:10229000DEBF0FBECDBFDF91CF911F910F9108958B
:1022A00090E080E0F2CF4F925F926F927F928F9298
:1022B0009F92AF92BF92CF92DF92EF92FF920F93D5
:1022C0001F93CF93DF93CDB7DEB763970FB6F89424
:1022D000DEBF0FBECDBF7C016B013A01FB0120E0E8
:1022E00090E080E06AE03191332309F461C040ED71
:1022F000430F4A3008F04DC0689FA001699F500D00
:102300001124CA01C097830F911D37FD9A958F3F05
:10231000910549F340F3F70142815381648175814E
:102320008091650690916606A0916706B091680657
:10233000481759076A077B0709F40DC28701085F30
:102340001F4F0E9414026F7077277C5FC8010E94A4
:10235000090D813009F004C28DE991E09A838983E7
:10236000F70182819381A481B5818B839C83AD83A6
:10237000BE8345E350E0BE016F5F7F4FC8010E94FE
:102380005B08892BA9F5D12CC12CC8010E94A0099A
:1023900017C03E3209F0BFCF233009F4BCCFD301C0
:1023A000A20FB11D12968C932F5F90E080E09BCF1F
:1023B000233009F0B0CFF3018583CC24C394D12C12
:1023C000C60163960FB6F894DEBF0FBECDBFDF9196
:1023D000CF911F910F91FF90EF90DF90CF90BF9022
:1023E000AF909F908F907F906F905F904F900895E7
:1023F0000E941402F7017783668342E050E0B70140
:102400006A5F7F4FC8010E94190E81E090E09A83B5
:10241000898342E050E0BE016F5F7F4FC8010E9498
:10242000190E80E091E09A83898342E050E0BE017A
:102430006F5F7F4FC8010E94190E1A82198242E015
:1024400050E0BE016F5F7F4FC8010E94190E42E04D
:1024500050E0BE016F5F7F4FC8010E94190E42E03D
:1024600050E0BE016F5F7F4FC8010E94190E5601F8
:10247000F6018081882301F16501F60181912F0128
:10248000882311F08E32B1F446018A189B08181483
:10249000190474F48D8641E050E0BE01635F7F4F04
:1024A000C8010E94190EA401B501C8010E94190EAD
:1024B0005201DECF6201E1CF1D8641E050E0BE0156
:1024C000635F7F4FC8010E94190EC12CDD24D39495
:1024D000DA82C98242E050E0BE016F5F7F4FC801DF
:1024E0000E94190EDA82C98242E050E0BE016F5F9D
:1024F0007F4FC8010E94190EC8010E94140A892B3F
:1025000009F441CFF3E0AF2EB12C230122E0420EBB
:10251000511CD4C0F7014281538164817581808D43
:10252000918DA28DB38D481759076A077B0709F073
:1025300008C1848D958DC59709F003C181A192A131
:102540005DEFC52EDD24DA940C970CF4ADC04CE0A1
:1025500050E0BE016F5F7F4FC8010E94EE0F8B817C
:102560009C819827892798279A8B898BF701468128
:10257000578129813A814217530709F0E7C097FF35
:10258000E5C08F7092703BEFC32EDD24DA94892B67
:1025900009F08AC06F8078847624672476242AEF35
:1025A000C22EDD24DA946114710409F47DC0D12CAB
:1025B000C12C8D819E81982789279827C816D90616
:1025C000F8F441E050E0BE01635F7F4FC8010E9414
:1025D000EE0F4D85442331F050E070E060E0C8011B
:1025E0000E94EE0F8D858111ECCF44E050E070E049
:1025F00060E0C8010E94EE0FFFEFCF1ADF0AD9CFCB
:10260000912C812C41E050E0BE016D5E7F4FC801EE
:102610000E94EE0F4B89842F807C09F06CC044230C
:1026200031F050E070E060E0C8010E94EE0F8B894D
:102630008111E8CF42E050E0BE01615F7F4FC801E9
:102640000E94EE0F42E050E0BE01635F7F4FC80181
:102650000E94EE0F44E050E070E060E0C8010E948C
:10266000EE0F42E050E0BE016F5E7F4FC8010E9456
:10267000EE0F8F85988949895A898115914009F013
:1026800043C0CD84DE84DC24CD24DC2481E0C81664
:10269000D104D1F54115544009F04AC044E050E05E
:1026A000B201C8010E94EE0F21E0A21AB10809F49C
:1026B0006CCEFFEFCF16DF0609F067CE0E94140242
:1026C0003B014C01C8010E94F510181619060CF4C4
:1026D00021CF0E941402661977098809990969387F
:1026E00073418105910548F562E370E080E090E078
:1026F0000E94E201E7CF41E050E070E060E0C801F5
:102700000E94EE0F1B8A93CF54274527542770E071
:1027100060E0C8010E94EE0FFFEF8F1A9F0A681455
:10272000790409F06FCF96EFC92EDD24DA94BCCF7F
:10273000E7EFCE2EDD24DA94B7CFCC24CA94DC2C7C
:10274000B3CF6EEFC62EDD24DA94AECF4CEFC42E9D
:10275000DD24DA94A9CF8EEFC82EDD24DA9430CEB2
:10276000D12CC12C2DCECF92DF92EF92FF920F93FE
:102770001F93CF93DF93CDB7DEB7AF970FB6F89423
:10278000DEBF0FBECDBF7C016A010DE911E01A83E7
:1027900009831C861B8688EE93E0A0E0B0E08D875D
:1027A0009E87AF87B88B83E291E09A878987188FDD
:1027B0000F8B198E1A8E1B8E1C8E84E089A31BA78B
:1027C0000AA71CA61DA61EA61FA6809159069091B9
:1027D0005A06A0915B06B0915C068EA39FA3A8A7A2
:1027E000B9A78B839C83AD83BE8318861F82AE01FD
:1027F000465D5F4FCE0101960E94531181309105D5
:10280000B1F4D701ED91FC910488F589E02D1DA369
:102810000CA38CA59DA5AEA5BFA58EA39FA3A8A71D
:10282000B9A7A601BE016C5D7F4FC7010995AF96A0
:102830000FB6F894DEBF0FBECDBFDF91CF911F91D1
:102840000F91FF90EF90DF90CF900895CF92DF929D
:10285000EF92FF920F931F93CF93DF93CDB7DEB725
:10286000AF970FB6F894DEBF0FBECDBF8C016B01E2
:102870007A018DE991E09A8389831B821C821D82F3
:102880001E821C861B8648EE53E060E070E04D8798
:102890005E876F87788B23E231E03A872987988FAC
:1028A0008F8B198E1A8E1B8E1C8E24E029A39BA75A
:1028B0008AA71CA61DA61EA61FA6D8011C968C9131
:1028C000843060F40E94AD09882321F0F8018485EA
:1028D0000E94880984E0D8011C968C938091590647
:1028E00090915A06A0915B06B0915C068EA39FA3BF
:1028F000A8A7B9A78B839C83AD83BE8318861F824C
:10290000AE01465D5F4FB601CE0101960E945311A4
:102910000097C1F0D801ED91FC910684F785E02D78
:102920008DE991E09DA38CA38CA59DA5AEA5BFA527
:102930008EA39FA3A8A7B9A7A701BE016C5D7F4F77
:10294000C8010995AF960FB6F894DEBF0FBECDBF94
:10295000DF91CF911F910F91FF90EF90DF90CF907B
:102960000895FB0101900020E9F73197AF01461B64
:10297000570BDC01ED91FC910280F381E02D09946D
:102980008F929F92AF92BF92EF92FF920F931F93FD
:10299000CF93DF93CDB7DEB7A1970FB6F894DEBF24
:1029A0000FBECDBF7C01FA01CB0119A2223008F481
:1029B0002AE08E010F5D1F4F822E912CB12CA12C8D
:1029C000BF01A50194010E949827F901CA016A304C
:1029D0000CF5605DD8016E938D01232B242B252BE4
:1029E00079F790E080E0109721F0BD01C7010E94C7
:1029F000B114A1960FB6F894DEBF0FBECDBFDF9124
:102A0000CF911F910F91FF90EF90BF90AF909F904B
:102A10008F900895695CDECFCF92DF92EF92FF92A4
:102A20000F931F93CF93DF93EC016A017B016DE25B
:102A30000E94C6038C0144275527BA014C195D0931
:102A40006E097F092AE0CE010E94C014800F911FF9
:102A5000DF91CF911F910F91FF90EF90DF90CF907A
:102A600008950F931F93CF93DF93EC01AB01770F82
:102A7000660B770B77FF0FC00E940C158C016FE976
:102A800071E0CE010E94B114800F911FDF91CF91B0
:102A90001F910F9108952AE00E94C014EFCFAB015F
:102AA000770F660B770B77FD0C940C152AE00C94CE
:102AB000C0148F929F92AF92BF92CF92DF92EF920B
:102AC000FF920F931F93CF93DF937C01EB016C0177
:102AD00082E0C80ED11C4701E5E08E0E911C10E08B
:102AE00000E0F60141916F0150E070E060E02AE003
:102AF000CE010E94C0145C01E881F9810190F0814F
:102B0000E02D6EE2CE0109958A0D9B1D080F191F5D
:102B1000C814D90431F7F701458150E070E060E056
:102B20002AE0CE010E94C014800F911FDF91CF9147
:102B30001F910F91FF90EF90DF90CF90BF90AF90DB
:102B40009F908F9008954F925F926F927F928F9295
:102B50009F92AF92BF92CF92DF92EF92FF920F932C
:102B60001F93CF936B017C01742EAC019B010E94DB
:102B7000002A62EA71E0811126C046015701E894FB
:102B8000B7F82FEF3FEF4FE75FE7C501B4010E94B1
:102B9000002A81110CC02FEF3FEF4FE75FE7C5011F
:102BA000B4010E94362866EA71E0181664F02FEF2F
:102BB0003FEF4FE75FE4C701B6010E948E29181668
:102BC000ACF46AEA71E086E995E0CF911F910F912C
:102BD000FF90EF90DF90CF90BF90AF909F908F903D
:102BE0007F906F905F904F900C94B1142FEF3FEF58
:102BF0004FE75FECC701B6010E94362887FDE1CFA1
:102C000020E030E0A901C701B6010E94362810E09B
:102C100000E087FF0AC06DE286E995E00E94C603E6
:102C20008C01F7FAF094F7F8F094C0E060E070E0FF
:102C300080E09FE37C1641F020E030E040E251E488
:102C40000E943B28CF5FF6CFA70196010E94CA27BA
:102C50002B013C010E94AD284B015C012AE0BC0124
:102C6000A40186E995E00E94C0147C01E00EF11EEB
:102C7000CC23D1F1C501B4010E94DC289B01AC0139
:102C8000C301B2010E94C9274B015C016EE286E9D3
:102C900095E00E94C603E80EF91EC15028F120E01D
:102CA00030E040E251E4C501B4010E9493292B01B8
:102CB0003C010E94AD284B01B12CA12C2AE0B501AA
:102CC000A40186E995E00E94C014E80EF91EC50132
:102CD000B4010E94DC289B01AC01C301B2010E9437
:102CE000C9274B015C01D9CFC701CF911F910F912B
:102CF000FF90EF90DF90CF90BF90AF909F908F901C
:102D00007F906F905F904F9008950F931F93CF9394
:102D1000DF938C01D0E0C0E06115710519F00E94CD
:102D2000B114EC016FE971E0C8010E94B1148C0F7D
:102D30009D1FDF91CF911F910F9108956EEA71E071
:102D400086E995E00C9485160C94B1142F923F926D
:102D50004F925F926F927F928F929F92AF92BF92AB
:102D6000CF92DF92EF92FF920F931F93CF93DF9357
:102D700000D01F92CDB7DEB78C010E943304D82E4D
:102D8000882309F41BC10E9414024B015C01D80185
:102D90001A962D913C91A8EEB3E00E94BA27F80153
:102DA0004488558866887788A501940124193509D7
:102DB0004609570929013A016415750586059705E5
:102DC00088F04088518862887388A501940124198D
:102DD00035094609570929013A0164157505860523
:102DE0009705F0F5D80158968C915897882391F063
:102DF0008CEF9FEF98969C938E93979714968D9156
:102E00009C91DC01ED91FC910488F589E02D0995F8
:102E1000D12CD4C01696ED91FC91179780EC80834D
:102E20001696ED91FC911797118214968D919C91B5
:102E3000159716966D917C91DC01ED91FC910280C5
:102E4000F381E02D42E050E00995F801808A918AF3
:102E5000A28AB38A848A958AA68AB78A81E0808FFB
:102E6000F80184819581DC01ED91FC910084F1856C
:102E7000E02D0995892B09F4A1C0BE016F5F7F4F3A
:102E8000C8010E9451052B01672B09F4E1C0F8012C
:102E9000848A958AA68AB78A0680F781E02D808188
:102EA000807F803309F0B3C0D80159968D919C91F1
:102EB000892B09F483C0498150E0CA0102968E0F24
:102EC0009F1FDF01A40FB51F1196EC90F12CFE2C73
:102ED000EE24DC016C91E60EF11C4D5F5F4FBF01EB
:102EE000640F751FA7010E941F2AE981D801169659
:102EF0008D919C9117978E0D9F1DE80FF92FF11D55
:102F000012821696ED91FC911797298130E0C90144
:102F100002968E0F9F1F40814670C42E59962D90A9
:102F20003C90B2E04B1361C0B701620F731FDF0129
:102F3000A60FB71F13964C91139750E0542F4427B8
:102F40001496AC914A0F511D5B834A834BEF5FEFA0
:102F5000421B530B4E195F09440D551D6B5F7F4F8C
:102F60006E0F7F1FF1010995D8011696ED91FC9126
:102F7000179780E480831696ED91FC911797C18294
:102F80001696ED91FC91BB81B283D8011696ED9116
:102F9000FC91BA81B383F801848195816681778140
:102FA000DC01ED91FC910280F381E02D44E050E0E2
:102FB0000995F801808A918AA28AB38A8D2D0F9093
:102FC0000F900F90DF91CF911F910F91FF90EF9095
:102FD000DF90CF90BF90AF909F908F907F906F9039
:102FE0005F904F903F902F9008954DEF5FEF421B01
:102FF000530B4E195F09440D551D2D5F3F4FE20ED7
:10300000F31EBF016E0D7F1DF1010995D7CF803CE6
:10301000C9F480ED8083D8011696ED91FC91179745
:10302000118214968D919C91159716966D917C91B5
:10303000DC01ED91FC910280F381E02D42E050E053
:103040000995BCCF803D09F0B9CFF801108EB6CFFD
:10305000C8010E9433048111B1CFDACE3F924F9262
:103060005F926F927F928F929F92AF92BF92CF9218
:10307000DF92EF92FF920F931F93CF93DF93CDB721
:10308000DEB7EA970FB6F894DEBF0FBECDBF7C0166
:103090002A013B0169010E9414024B015C01870176
:1030A0000D5B1F4FC8010E94F510181619069CF001
:1030B0000E941402681979098A099B094616570665
:1030C0006806790608F466C162E370E080E090E08B
:1030D0000E94E201E7CF42E250E0BE016F5F7F4F06
:1030E000C8010E94EE0F89818230D1F0312C832DEE
:1030F000EA960FB6F894DEBF0FBECDBFDF91CF9139
:103100001F910F91FF90EF90DF90CF90BF90AF9005
:103110009F908F907F906F905F904F903F90089519
:10312000F801848995898334910501F76D817E8149
:103130008F8198850E94052A4B015C01F6018082EF
:103140009182A282B38246E050E0B701685F7F4F70
:10315000CE014D960E94122A892B41F6F7018081FB
:103160009181A281B38188169906AA06BB0608F44C
:10317000BDCF84819581A681B78188159905AA055F
:10318000BB0508F4B3CF89899A89AB89BC89868746
:103190009787A08BB18B4EEC50E070E060E0C801E7
:1031A0000E94EE0F312CC701829698AB8FA7F701D2
:1031B000B696FAABE9AB08969CAB8BAB67019AE18C
:1031C000C90ED11CBD96FEABEDABC701429698AFC0
:1031D0008FABFD97FAAFE9AF4701FEE18F0E911C6F
:1031E000F801818D928D181619060CF080CFC80158
:1031F0000E940D108333910509F4B2C014F581309B
:10320000910509F464C044F4892B51F3C8010E946C
:103210000D10AC01552775C08330910509F462C0CB
:103220000697A1F7C8010E940D10B82E44E050E0A7
:10323000B401C8010E94EE0FEB2DE450FF0BAF016B
:1032400060C08A33910509F45FC084F58533910528
:10325000B1F1C697D9F6C8010E940D105C01B60104
:10326000CE0189960E94AE108BA59CA5ADA5BEA5EA
:10327000892B8A2B8B2BB1F0EDA9FEA940805180C0
:1032800062807380B601CE0183960E94AE108DA13C
:103290009EA1AFA1B8A5A501481659066A067B06EE
:1032A00009F0B8CF44E050E0B60118C08B33910567
:1032B00009F440C08F3F910509F492CFA7CFC80110
:1032C0000E940D10C8010E940D10382E89CFC80130
:1032D0000E940D1044E050E06FA978ADC8010E9433
:1032E000EE0F7ECFC8010E940D10B82E44E050E0D2
:1032F00069AD7AADC8010E94EE0F8B2D8450990BF9
:10330000AC0170E060E0EACFC8010E940D1044E01B
:1033100050E069A97AA9C8010E94EE0FF70166A1E1
:1033200077A180A591A50E94052A66A377A380A70F
:1033300091A756CFC8010E940D1044E050E06BA940
:103340007CA9C8010E94EE0FF70162A573A584A5B0
:1033500095A50E94052A62A773A784A795A740CFC9
:10336000C8010E940D1044E050E06FA578A9C80183
:103370000E94EE0FF70162A173A184A195A10E94A2
:10338000052A62A373A384A395A366A777A780AB3E
:1033900091AB26CF33243A94AACE7F928F929F92FC
:1033A000AF92BF92CF92DF92EF92FF920F931F9353
:1033B000CF93DF93CDB7DEB7A6970FB6F894DEBFF5
:1033C0000FBECDBF8C01762E942E852E20E2A22E2C
:1033D000CE0101967C01DC01EA2D1D92EA95E9F708
:1033E0006801F3E4CF0ED11C8DE991E09AA389A383
:1033F0008FEF8BA38CA38DA38EA343E450E0BE017B
:103400006F5D7F4FC6010E945B08019609F4BFC043
:1034100081E089838A8386E0B82EBB821C82D80132
:1034200014966D917D918D919C9117970E94052A1C
:103430006D837E838F83988789869A8680E890E063
:103440009C878B874CE150E0B701C6010E94190EA2
:10345000FE0137968AE1DF011D928A95E9F748015E
:10346000B8E08B0E911CF401D70101900D92BA9433
:10347000E1F740E150E0B701C6010E94190EF701E3
:103480001192AA94E9F796E0A92EB12C40E250E0FF
:10349000B701C6010E94190EF1E0AF1AB108B1F7E9
:1034A00083E6898392E89A8393E59B838C8385E303
:1034B0008D8381E08E837F829DE3988797E0998753
:1034C0008A8786E0F401DE011B9601900D928A95B1
:1034D000E1F78CE0898B8A8B6DEB71E0CE0143962E
:1034E0000E94382AD8011B966C91CE0149960E9401
:1034F000C800F8016485CE014B960E94C800D8012F
:103500001D966C91CE014D960E94C8004EE150E090
:10351000B701C6010E94190EB3E07B121EC082E300
:10352000898384E08A83F80196859B8397859C83B1
:1035300090899D8391899E8396E39F838887828D5E
:103540008987838D8A87848D8B87858D8C874CE0D6
:1035500050E0B701C6010E94190E87E3898386E017
:103560008A8391E09B8393E09C838D838FE08E839D
:103570008AE38F838BE388878FEF898749E050E068
:10358000B701C6010E94190EC6010E94140AA69630
:103590000FB6F894DEBF0FBECDBFDF91CF911F9164
:1035A0000F91FF90EF90DF90CF90BF90AF909F90E2
:1035B0008F907F9008950C942E261F920F920FB635
:1035C0000F9211242F933F938F939F93AF93BF93A9
:1035D0008091710590917205A0917305B091740569
:1035E0003091700523E0230F2D3758F50196A11D6A
:1035F000B11D209370058093710590937205A0937F
:103600007305B09374058091750590917605A0912E
:103610007705B09178050196A11DB11D80937505C0
:1036200090937605A0937705B0937805BF91AF91FD
:103630009F918F913F912F910F900FBE0F901F90F0
:10364000189526E8230F0296A11DB11DD2CF1F9217
:103650000F920FB60F9211242F933F934F935F93C6
:103660006F937F938F939F93AF93BF93EF93FF934A
:1036700086E995E00E94A403FF91EF91BF91AF917D
:103680009F918F917F916F915F914F913F912F917A
:103690000F900FBE0F901F9018951F920F920FB6AC
:1036A0000F9211242F938F939F93EF93FF93E091A9
:1036B000A605F091A7058081E091AC05F091AD05DC
:1036C00082FD1BC090818091AF058F5F8F73209129
:1036D000B005821741F0E091AF05F0E0EA56FA4FED
:1036E000958F8093AF05FF91EF919F918F912F91CF
:1036F0000F900FBE0F901F9018958081F4CF0F93FD
:103700001F93CF93DF93E6E9F5E01382128288EEF0
:1037100093E0A0E0B0E084839583A683B7832DE493
:1037200031E03183208325EC30E03587248724EC99
:1037300030E03787268720EC30E0318B208B21EC7E
:1037400030E0338B228B22EC30E0358B248B26EC5F
:1037500030E0378B268B118E128E138E148EE3E39E
:10376000F6E0CDE9D1E0D183C083128213821482C6
:103770001582E9E3F6E0D183C083128213821482BA
:103780001582EFE3F6E0D183C083128213821482A4
:103790001582E5E4F6E0D183C0831282138214829D
:1037A0001582EBE4F6E0D183C08312821382148287
:1037B0001582E1E5F6E0D183C08312821382148280
:1037C0001582EDE5F6E0D183C08312821382148264
:1037D0001582E7E5F6E0D183C0831282138214825A
:1037E0001582E3E6F6E0D183C0831282138214824D
:1037F0001582E9E6F6E0D183C08312821382148237
:103800001582EFE6F6E0D183C08312821382148220
:103810001582EDEAF6E0D183C0831282138214820E
:103820001582EEE9F6E01382128284839583A683E3
:10383000B7838BE691E09183808384E0848788EE70
:1038400093E09687858705E716E0D80113961C92CA
:103850001E9212978FE591E011969C938E935C9641
:10386000DC93CE935B975D961D921D921D921C92E8
:1038700090978FEF9FEF98969C938E9397971596BE
:10388000FC93EE93149796961C921E92959780E067
:1038900091E00E949225F8019783868380E091E071
:1038A000918780878FE090E09387828795878487D0
:1038B000E3EBF6E0D183C083128213821482158277
:1038C000A9EBB6E082E015968C93159786E11696E3
:1038D0008C931697E0EBF0E0E4911796EC93179732
:1038E000ECE9F0E0E4911896EC93189740E85EE379
:1038F00060E070E01D964D935D936D937C935097BF
:10390000DF91CF911F910F910895CF93DF93CDB7A2
:10391000DEB72C970FB6F894DEBF0FBECDBF7894FC
:1039200084B5826084BD84B5816084BD85B58260C4
:1039300085BD85B5816085BD80916E008160809375
:103940006E001092810080918100826080938100DE
:1039500080918100816080938100809180008160EE
:10396000809380008091B10084608093B100809149
:10397000B00081608093B00080917A008460809371
:103980007A0080917A00826080937A0080917A0038
:10399000816080937A0080917A00806880937A00B9
:1039A0001092C100E091A605F091A70582E0808306
:1039B000E091A205F091A3051082E091A405F09199
:1039C000A5058FEC80831092AE05E091AA05F091D9
:1039D000AB0586E08083E091A805F091A905808180
:1039E00080618083E091A805F091A90580818860BD
:1039F0008083E091A805F091A9058081806880838B
:103A0000E091A805F091A90580818F7D80831092B7
:103A10005F05109260051092610510926205109288
:103A20006305109264051092650510926605109268
:103A30006705109268051092690510926A05109248
:103A40006B0560E083E00E94810162E087E00E94F4
:103A5000810162E08091BE060E9481010E941402F1
:103A6000605D7740810991096093C2067093C30637
:103A70008093C4069093C50687E38093CB0661E0EC
:103A800084E00E94810161E085E00E94810161E0A3
:103A900086E00E94810160E084E00E94530160E0C2
:103AA00085E00E94530160E086E00E94530186E4B5
:103AB00094E090934F0580934E051092500585E752
:103AC00096E090934D0580934C058EE996E1909396
:103AD00047058093460564EC71E086E995E00E9415
:103AE000851680913E0481112AC0109226041092FE
:103AF000250488EE93E0A0E0B0E080932704909343
:103B00002804A0932904B0932A0483E291E09093BF
:103B10002404809323048DE991E0909332048093F0
:103B20003104109233041092340410923504109230
:103B3000360484E080933B0481E080933E0480EE71
:103B400093E09093DF038093DE038091DD03811186
:103B5000ADC060E372E080E090E00E94E201DFB679
:103B6000F89404EA10E0E8EBEE2EE0E0FE2E8091FF
:103B7000DB03811125C0F8018491F7019491E82FAE
:103B8000F0E0EE0FFF1FE859FF4FA591B4918C9123
:103B9000982321F461E08AE00E94530161E08AE009
:103BA0000E9481018CB580618CBD8CB580648CBD18
:103BB00061E08DE00E94810161E08BE00E94810163
:103BC0008091DB038F5F8093DB03DFBEF8010491FC
:103BD000E02FF0E0EE0FFF1FEE58FF4F859194911C
:103BE0009093DA038093D903F701E490E092D8032D
:103BF00061E08AE00E9481010E94DD0680E591E09B
:103C00000E94C50084E38093950580E80E94A9077F
:103C10000E94580A882309F480C288E00E94A907FC
:103C20000E94450A883009F078C280E10E94A90705
:103C30000E94450A803109F070C280E00E94A90705
:103C40000E94450A182F811168C241E050E0BE0170
:103C50006F5F7F4F8FE190E00E94D00889818330B1
:103C600009F05BC280E48093DC0342E06EE170E027
:103C7000812F0E94050842E06FE170E0812F0E94D1
:103C800005081F5F143089F740E06EE170E0812F76
:103C90000E94050840E06FE170E0812F0E94050856
:103CA0001F5F183089F781E08093DD0380E591E0A4
:103CB0000E94C50046E050E060E071E089E090E0DD
:103CC0000E94F9068DE991E09A8389831B821C8208
:103CD0001D821E8244E050E0BE016D5F7F4F8FE089
:103CE00090E00E94F9060091DE031091DF03D801F5
:103CF00092961D921D921D921C929597F80116A204
:103D000017A210A611A69A961D921D921D921C92A2
:103D10009D9780E69AEEA0E0B0E086AB97ABA0AFAF
:103D2000B1AF80EA9FE0A0E0B0E082AF93AFA4AF74
:103D3000B5AF3E9684E1DF011D928A95E9F786E0F2
:103D4000E0E0F1E0D801189601900D928A95E1F734
:103D5000F801EE5BFF4FFC87EB8710820E94032780
:103D60002FEC37E040E050E00E946627DC01CB01F9
:103D70000196A11DB11DF80184839583A683B783A5
:103D800080839183A283B3835801F3E4AF0EB11C07
:103D9000C5010E94A00964E470E0C5010E94090DFC
:103DA000882309F423C20E9414022B013C0148EE2F
:103DB000C42E43E0D42EE12CF12C52E0252E912C80
:103DC000812CAB85BC858C918330B9F1811115C2F2
:103DD000F80184819581A681B7810196A11DB11D4D
:103DE00084839583A683B7830E941402641975099E
:103DF00086099709A70196010E949827A90161E009
:103E0000C8010E94CD1981E0AB85BC858C93F1E09F
:103E10008F169104B1F20E94140264197509860983
:103E20009709D801D6962D913D914D915C91D997E6
:103E3000261737074807590710F6C5010E94A00941
:103E4000F80184819581A681B7810196A11DB11DDC
:103E500084839583A683B7830E941402F801FE969B
:103E600060837183828393838A94892809F0BEC119
:103E700080E591E00E94C5000091DE031091DF0310
:103E8000B801625F7F4FCE0101960E94AE1044E000
:103E900050E0BE016D5F7F4F8FE090E00E94F90619
:103EA000B8016A5E7F4FCE0101960E94AE1044E0D9
:103EB00050E0BE016D5F7F4F81E090E00E94F90607
:103EC000B8016E5E7F4FCE0101960E94AE1044E0B5
:103ED00050E0BE016D5F7F4F85E090E00E94F906E3
:103EE000B801625E7F4FCE0101960E94AE108B81B9
:103EF0009C81AD81BE818093590690935A06A09310
:103F00005B06B0935C060E94BD017F738091060141
:103F10009091070168277927709307016093060144
:103F20006FED71E086E995E00E94A4168DE991E0BD
:103F30009A8389831B821C821D821E8280E591E008
:103F40000E94C50044E050E0BE016D5F7F4F8FE0EE
:103F500090E00E94D00866E975E0CE0101960E94CB
:103F600059156FE971E086E995E00E94B11468EE99
:103F700073E080E090E00E94E201E0914C05F09156
:103F80004D0580E092E092A381A38BE597E094A396
:103F900083A367E172E086E995E00E94A41660E0E1
:103FA00072E086E995E00E94A4166BE272E086E971
:103FB00095E00E94A4166BE577E086E995E00E9403
:103FC00031155CEF452E55245A946DEF662E62E054
:103FD000762E70E0272E70E0372E80914C05909160
:103FE0004D050E9433048111ACC20E94140200915D
:103FF00048051091490520914A0530914B05601BF9
:10400000710B820B930B693873418105910508F49C
:1040100098C20E94140260934805709349058093EA
:104020004A0590934B056DE272E086E995E00E94A7
:10403000851600914C0510914D05C8010E9433046E
:10404000811172C2D80114968D919C91DC01ED9181
:10405000FC910688F789E02D0995882309F498C119
:1040600021E030E0F8013787268787E0E8E1F1E0DA
:10407000DE01119601900D928A95E1F7DE0111960D
:1040800085E090E02D91F80146815781FA01E80F13
:10409000F91F208301968C309105A1F7D80116965F
:1040A000ED91FC91B2ECB487D8011696ED91FC919C
:1040B00017971B968C911B9785871696ED91FC910F
:1040C00017971A968C911A9786871896ED90FC9000
:1040D000B70182E492E00E945B274196F801E8165E
:1040E000F90608F08AC184819581DC01ED91FC918B
:1040F0000488F589E02D099564E872E086E995E089
:104100000E94A416E0914C05F0914D0567A170A5A1
:1041100086E995E00E94311514C287E380939505E6
:1041200080E80E94A9070E94580A882329F188E0A4
:104130000E94A9070E94450A8830F1F480E10E949C
:10414000A9070E94450A182F8031B1F480E00E942F
:10415000A9070E94450A81110FC041E050E0BE014D
:104160006F5F7F4F89E390E00E94D008898184309F
:1041700019F41093DC0397CD83E38093950580E8D1
:104180000E94A9070E94580A882371F180E10E94C9
:10419000A9070E94450A803139F582E10E94A907EA
:1041A0000E94450A823101F580E00E94A9070E9421
:1041B000450A811119C084E08093DC0315E51A8754
:1041C00041E050E0BE01665F7F4F8BE190E00E94CE
:1041D000F906198741E050E0BE01675F7F4F8AE131
:1041E00090E00E94F9065FCD109295056AEE71E0AD
:1041F00086E995E00E948516BACE8430F9F4F8017C
:1042000084819581A681B7810196A11DB11D84830A
:104210009583A683B7830E941402641975098609E1
:104220009709A70196010E949827A90163E0C80198
:104230000E94CD19AB85BC852C92E9CD813059F512
:10424000F80142AD53AD64AD75AD9E012F5F3F4F98
:10425000C8010E942E18382EF2E08F1392C0898177
:104260009A81AB81BC81F80184839583A683B7834F
:104270000E9414026419750986099709A70196011D
:104280000E949827A90163E0C8010E94CD19AB855F
:10429000BC853C92BCCD823009F0B9CDF80142AD6D
:1042A00053AD64AD75AD9E012F5F3F4FC8010E94B5
:1042B0002E18382EF5E08F135DC0E3E0AB85BC858A
:1042C000EC93F80182A193A1A4A1B5A1892B8A2B1B
:1042D0008B2B41F424E833E040E050E022A333A3E9
:1042E00044A355A3F80186A197A1A0A5B1A5892B48
:1042F0008A2B8B2B61F482A193A1A4A1B5A1B695C1
:10430000A7959795879586A397A3A0A7B1A7F8012E
:1043100082A593A5A4A5B5A5892B8A2B8B2BA9F4DF
:1043200082A193A1A4A1B5A1AC01BD0123E0769522
:104330006795579547952A95D1F7841B950BA60B42
:10434000B70B82A793A7A4A7B5A7F80186A197A149
:10435000A0A5B1A586A797A7A0ABB1AB82A593A551
:10436000A4A5B5A582AB93ABA4ABB5AB88248394CD
:10437000912C4DCDF6E08F1304C0AB85BC851C920B
:1043800046CDBFEF3B1243CDEB85FC8510823FCD80
:10439000D80191966D917C91929714968D919C91F4
:1043A000DC01ED91FC91D80193964D915C9194972D
:1043B0006115710569F00088F189E02D0995019773
:1043C00009F44ECE2EEF3FEFF80130A727A394CE8D
:1043D0000684F785E02D2DE931E03A8329835D9647
:1043E000CD90DD90ED90FC909097CB82DC82ED82B9
:1043F000FE82BE016F5F7F4FE1CF668177814FE024
:1044000050E082E492E00E94DA007C01D801189624
:10441000CD90DC90B6018AE592E00E945B278E0D7C
:104420009F1D0296F801C816D90608F45CCE668175
:104430007781A7018AE592E00E94DA007C01D80129
:104440001896CD90DC90B60181EA91E00E945B273E
:104450008E0D9F1D0296F801C816D90608F443CEAA
:1044600066817781A70181EA91E00E94DA009C01D0
:1044700025503109D80116964D915C9160E1C80133
:104480000E9468040E941402F801608B718B828B79
:10449000938B648B758B868B978BF80184819581C8
:1044A000DC01ED91FC910084F185E02D0995892BCB
:1044B000E9F40E941402F801C488D588E688F788D8
:1044C0009B01AC012C193D094E095F0969017A0174
:1044D00024853585A8EEB3E00E94BA27C616D70614
:1044E000E806F906D0F250A647A2FDCDBE01685FEE
:1044F0007F4FC8010E945105643071058105910507
:1045000009F061C0D8011696ED91FC91179783814F
:10451000811154C00E941402F801648B758B868B44
:10452000978B108E10A617A26FE672E086E995E0D1
:104530000E948516E0914605F0914705309709F0F5
:10454000099580914C0590914D050E94A6160E94F8
:10455000140200916C0510916D0520916E0530914B
:104560006F05601B710B820B930B693873418105DA
:10457000910508F4DFC00E94140260936C057093EB
:104580006D0580936E0590936F056AE972E086E988
:1045900095E00E9485160E942002882341F08091B8
:1045A000BF068C3009F46AC080F48B3039F1C12C1D
:1045B000D12C30ECE32E3FE7F32E4AC090E09896E2
:1045C0009C938E939797F8018ECD8551823078F722
:1045D0001091BB06612F70E0762F662766277F77E4
:1045E0008091BC06682B90E080E00E94DC282DECD6
:1045F0003CEC4CEC5DE30E9493295CC06091BB06EF
:1046000070E090E080E00E94DC286B017C0110915A
:10461000BC0617FF0AC0AC019B0160E070E080E8B7
:104620009FEB0E94C9276B017C011F70612F70E016
:1046300090E080E00E94DE282DEC3CEC4CEC5DE349
:104640000E949329A70196010E94CA276B017C0151
:104650000E942002882309F464C08091BF068B3039
:1046600030F08D3080F18551823008F46FC0812C9C
:10467000912C20ECA22E2FE7B22E43C01091BB0646
:10468000612F70E090E080E00E94DC286B017C01EB
:104690006091BC066F7070E090E080E00E94DE28C0
:1046A0002DEC3CEC4CEC5DE30E949329A7019601B4
:1046B0000E94CA276B017C0117FFCACFF7FAF0945A
:1046C000F7F8F094C5CF6091BA0670E090E080E012
:1046D0000E94DE282DEC3CEC4CEC5DE30E9493291B
:1046E0004B015C016091B90670E090E080E00E94AF
:1046F000DE289B01AC01C501B4010E94CA274B0111
:104700005C01A7019601C701B6010E94002A811130
:1047100008C0A5019401C501B4010E94002A8823A4
:1047200039F141E040935E056EEA72E086E995E07A
:104730000E9485162114310409F44FCC0E94900385
:10474000882309F43ECC0E9400003BCC6091B9065E
:104750007091BA0676276727762790E080E00E945E
:10476000DC282DEC3CEC4CEC5DE30E949329C7CF98
:1047700010925E05C0925105D0925205E092530509
:10478000F09254058092550590925605A0925705D7
:10479000B092580504E010E0C12CD12C760190E4D1
:1047A000992E90927C0080917A00806480937A00A8
:1047B00080917A0086FDFCCF8091780090917900FD
:1047C000092E000CAA0BBB0BC80ED91EEA1EFB1E3D
:1047D00062E070E080E090E00E94E2010150110987
:1047E00001F782E0F694E794D794C7948A95D1F7BD
:1047F000D0925A05C092590581E05CE2C51651E09D
:10480000D50608F080E080935D0583E00E942A01D0
:104810008C010E941402012B09F437C1A1E0A0937E
:104820006705605F784D8F4F9F4F60936805709369
:10483000690580936A0590936B0580916705809365
:104840005B0587E00E942A0121E0892B09F020E026
:1048500020935C056BEC72E086E995E00E9485167A
:1048600065ED72E086E995E00E94A416609151051D
:1048700070915205809153059091540542E00E9439
:10488000A3156FED72E086E995E00E94A416609191
:10489000550570915605809157059091580542E055
:1048A0000E94A31563EE72E086E995E00E94A416CB
:1048B0004091590550915A0570E060E02AE086E980
:1048C00095E00E94C01469EE72E086E995E00E94CE
:1048D000A41660915D0570E086E995E00E944F1591
:1048E00060EF72E086E995E00E94A41660915B0596
:1048F00070E086E995E00E944F1566EF72E086E968
:1049000095E00E94A41660915C0570E086E995E050
:104910000E9431151F921F9280915C051F928F9308
:1049200080915B051F928F9380915D051F928F93FD
:1049300080915A058F93809159058F9380915805E6
:104940008F93809157058F93809156058F93809117
:1049500055058F93809154058F93809153058F93C4
:10496000809152058F93809151058F937F926F9222
:10497000809150051F928F9380914F058F93809166
:104980004E058F930E943F2A60914E0570914F050E
:1049900086E995E00E94851680914C0590914D0521
:1049A0000E9433040FB6F894DEBF0FBECDBF88233C
:1049B00009F4ABC066E573E086E995E00E948516D0
:1049C00000914E0510914F0564E673E086E995E08D
:1049D0000E94A41662E773E086E995E00E948516BE
:1049E0006AE873E086E995E00E94A416B80186E9BA
:1049F00095E00E948516C0904C05D0904D05F12C95
:104A0000E12C0115110541F0D60118966D917C91AC
:104A1000C8010E945B277C01C6010E943304982EC6
:104A2000882309F452C0F60180849184B40182E79E
:104A300093E00E945B279701295F3F4F820F931FEE
:104A40008816990608F45FC0D60116966D917C9180
:104A500045E050E082E793E00E94DA0098012E0DD5
:104A60003F1DF8015C01A01AB10AB5016E0F7F1F4E
:104A7000D60116964D915C91E217F307E1F0119182
:104A8000460F571FDA011C93F0CF209167052223B0
:104A900009F4D3CE009168051091690520916A054B
:104AA00030916B05061717072807390708F0C5CEA0
:104AB00010926705C2CE970125503109280F391F82
:104AC00060E3C6010E946804982E6AE973E086E9F3
:104AD00095E00E94A416492D50E070E060E02AE0C5
:104AE00086E995E00E94C0146FE971E086E995E0DF
:104AF0000E94B11480914C0590914D050E94A6161C
:104B000060EC73E013CE912CE0CF69EA73E086E9A4
:104B100095E00E948516F4CF80917B0690917C06EB
:104B20000C942E260F931F93CF93DF938230910521
:104B300010F482E090E0E091CE06F091CF0630E0F4
:104B400020E0B0E0A0E0309799F42115310509F498
:104B50004AC0281B390B24303105D8F58A819B8146
:104B60006115710589F1FB0193838283FE0111C0F8
:104B7000408151810281138148175907E0F048179D
:104B8000590799F4109761F012960C9312971396A7
:104B90001C933296CF01DF91CF911F910F91089511
:104BA0000093CE061093CF06F4CF2115310551F0B6
:104BB0004217530738F0A901DB019A01BD01DF015B
:104BC000F801C1CFEF01F9CF9093CF068093CE06C5
:104BD000CDCFFE01E20FF31F819391932250310953
:104BE00039832883D7CF2091CC063091CD06232B53
:104BF00041F420910A0130910B013093CD062093AE
:104C0000CC0620910801309109012115310541F4AC
:104C10002DB73EB740910C0150910D01241B350B6F
:104C2000E091CC06F091CD06E217F307A0F42E1B1D
:104C30003F0B2817390778F0AC014E5F5F4F241700
:104C4000350748F04E0F5F1F5093CD064093CC06BA
:104C5000819391939FCFF0E0E0E09CCFCF93DF93DF
:104C60000097E9F0FC01329713821282A091CE06E0
:104C7000B091CF06ED0130E020E01097A1F4208143
:104C80003181820F931F2091CC063091CD062817D9
:104C9000390709F061C0F093CD06E093CC06DF91AF
:104CA000CF910895EA01CE17DF07E8F54A815B81CD
:104CB0009E0141155105B1F7E901FB83EA83499152
:104CC0005991C40FD51FEC17FD0761F480819181C4
:104CD0000296840F951FE9019983888382819381CD
:104CE0009B838A83F0E0E0E012968D919C9113976C
:104CF0000097B9F52D913C911197CD010296820F45
:104D0000931F2091CC063091CD062817390739F62C
:104D1000309751F51092CF061092CE06B093CD0683
:104D2000A093CC06BCCFD383C28340815181840F32
:104D3000951FC817D90761F44E5F5F4F888199812D
:104D4000480F591F518340838A819B8193838283BB
:104D50002115310509F0B0CFF093CF06E093CE06D0
:104D60009ECFFD01DC01C0CF13821282D7CF8F927C
:104D70009F92AF92BF92CF92DF92EF92FF92CF932A
:104D8000DF93EC01688179818A819B8161157105CE
:104D90008105910521F464E279ED8BE597E02DE141
:104DA00033EF41E050E00E94662749015A019B0120
:104DB000AC01A7EAB1E40E9485276B017C01ACEE4F
:104DC000B4EFA50194010E949327C60ED71EE81EDA
:104DD000F91EF7FE06C081E0C81AD108E10880E894
:104DE000F80AC882D982EA82FB82C701B6019F779E
:104DF000DF91CF91FF90EF90DF90CF90BF90AF9079
:104E00009F908F9008958F929F92AF92BF92CF9272
:104E1000DF92EF92FF9260910E0170910F018091ED
:104E2000100190911101611571058105910521F421
:104E300064E279ED8BE597E02DE133EF41E050E05E
:104E40000E94662749015A019B01AC01A7EAB1E41F
:104E50000E9485276B017C01ACEEB4EFA5019401A3
:104E60000E949327C60ED71EE81EF91EF7FE06C045
:104E700081E0C81AD108E10880E8F80AC0920E0162
:104E8000D0920F01E0921001F0921101C701B6011A
:104E90009F77FF90EF90DF90CF90BF90AF909F9063
:104EA0008F90089560930E0170930F01809310010D
:104EB000909311010895FC01615070400190011020
:104EC000D8F7809590958E0F9F1F0895052E97FB1C
:104ED0001EF400940E947D2757FD07D00E9498275A
:104EE00007FC03D04EF40C947D27509540953095E7
:104EF00021953F4F4F4F5F4F089590958095709546
:104F000061957F4F8F4F9F4F08950E94BA27A59FAD
:104F1000900DB49F900DA49F800D911D11240895B4
:104F2000B7FF0C9485270E948527821B930B089559
:104F3000A1E21A2EAA1BBB1BFD010DC0AA1FBB1F9D
:104F4000EE1FFF1FA217B307E407F50720F0A21B0F
:104F5000B30BE40BF50B661F771F881F991F1A947C
:104F600069F760957095809590959B01AC01BD01A6
:104F7000CF010895A29FB001B39FC001A39F700D00
:104F8000811D1124911DB29F700D811D1124911D51
:104F900008955058BB27AA270E94E1270C94542952
:104FA0000E94462938F00E944D2920F039F49F3F95
:104FB00019F426F40C9443290EF4E095E7FB0C94C5
:104FC0003D29E92F0E94652958F3BA176207730734
:104FD0008407950720F079F4A6F50C9487290EF440
:104FE000E0950B2EBA2FA02D0B01B90190010C01F9
:104FF000CA01A0011124FF27591B99F0593F50F411
:10500000503E68F11A16F040A22F232F342F442768
:10501000585FF3CF469537952795A795F040539560
:10502000C9F77EF41F16BA0B620B730B840BBAF030
:105030009150A1F0FF0FBB1F661F771F881FC2F79B
:105040000EC0BA0F621F731F841F48F487957795AF
:105050006795B795F7959E3F08F0B0CF9395880F69
:1050600008F09927EE0F9795879508950E941929C2
:1050700008F481E008950E944F280C9454290E945E
:105080004D2958F00E94462940F029F45F3F29F04D
:105090000C943D2951110C9488290C9443290E94A9
:1050A000652968F39923B1F3552391F3951B550BAB
:1050B000BB27AA2762177307840738F09F5F5F4FEB
:1050C000220F331F441FAA1FA9F335D00E2E3AF02A
:1050D000E0E832D091505040E695001CCAF72BD042
:1050E000FE2F29D0660F771F881FBB1F2617370793
:1050F0004807AB07B0E809F0BB0B802DBF01FF27C5
:1051000093585F4F3AF09E3F510578F00C943D293B
:105110000C9488295F3FE4F3983ED4F38695779505
:105120006795B795F7959F5FC9F7880F911D96957D
:10513000879597F90895E1E0660F771F881FBB1FD9
:10514000621773078407BA0720F0621B730B840B86
:10515000BA0BEE1F88F7E09508950E946D2988F03C
:105160009F5798F0B92F9927B751B0F0E1F0660F2B
:10517000771F881F991F1AF0BA95C9F714C0B1306C
:1051800091F00E948729B1E008950C948729672F38
:10519000782F8827B85F39F0B93FCCF3869577959B
:1051A0006795B395D9F73EF4909580957095619584
:1051B0007F4F8F4F9F4F0895E89409C097FB3EF4AF
:1051C00090958095709561957F4F8F4F9F4F992354
:1051D000A9F0F92F96E9BB279395F69587957795D2
:1051E0006795B795F111F8CFFAF4BB0F11F460FF92
:1051F0001BC06F5F7F4F8F4F9F4F16C0882311F0EA
:1052000096E911C0772321F09EE8872F762F05C0FD
:10521000662371F096E8862F70E060E02AF09A9598
:10522000660F771F881FDAF7880F9695879597F98D
:105230000895990F0008550FAA0BE0E8FEEF161627
:105240001706E807F907C0F012161306E407F5077A
:1052500098F0621B730B840B950B39F40A2661F0EE
:10526000232B242B252B21F408950A2609F4A14091
:10527000A6958FEF811D811D089597F99F6780E89E
:1052800070E060E008959FEF80EC089500240A9498
:105290001616170618060906089500240A94121611
:1052A0001306140605060895092E0394000C11F444
:1052B000882352F0BB0F40F4BF2B11F460FF04C0F1
:1052C0006F5F7F4F8F4F9F4F089557FD9058440F4A
:1052D000551F59F05F3F71F04795880F97FB991F55
:1052E00061F09F3F79F08795089512161306140612
:1052F000551FF2CF4695F1DF08C01616170618069F
:10530000991FF1CF86957105610508940895E89479
:10531000BB2766277727CB0197F908950E941929A3
:1053200008F48FEF08950E94A6290C9454290E9436
:10533000462938F00E944D2920F0952311F00C9455
:105340003D290C94432911240C9488290E94652935
:1053500070F3959FC1F3950F50E0551F629FF001C8
:10536000729FBB27F00DB11D639FAA27F00DB11DE1
:10537000AA1F649F6627B00DA11D661F829F22276A
:10538000B00DA11D621F739FB00DA11D621F839FF1
:10539000A00D611D221F749F3327A00D611D231FC7
:1053A000849F600D211D822F762F6A2F11249F5715
:1053B00050409AF0F1F088234AF0EE0FFF1FBB1F18
:1053C000661F771F881F91505040A9F79E3F5105D7
:1053D00080F00C943D290C9488295F3FE4F3983EBB
:1053E000D4F3869577956795B795F795E7959F5F81
:1053F000C1F7FE2B880F911D9695879597F9089513
:105400000E941929880B990B089569279627692707
:105410007827872778270895EE0FFF1F0590F491CE
:10542000E02D0994FB01DC0104C08D9101908019ED
:1054300021F441505040C8F7881B990B0895681714
:10544000790768F4FB01DC01E40FF51FA40FB51F19
:1054500002C002900E9241505040D8F708950C942B
:10546000542CDC0101C06D9341505040E0F7089589
:10547000FB01DC0101900D920020E1F70895AEE000
:10548000B0E0E5E4FAE20C94F92C0D891E898F89CD
:10549000988D26E02C831A83098397FF02C080E051
:1054A00090E801979E838D83AE01455E5F4F698DC5
:1054B0007A8DCE0101960E946F2A4D815E8157FD43
:1054C0000AC02F813885421753070CF49A01020F46
:1054D000131FF80110822E96E4E00C94152DABE01A
:1054E000B0E0E5E7FAE20C94EB2C7C013B018A0189
:1054F000FC0117821682838181FFC8C1CE0101960B
:105500005C01F7019381F30193FD859193FF8191F4
:105510003F01882309F453C1853239F493FD859105
:1055200093FF81913F01853229F4B70190E00E94F9
:105530005D2CE7CF912C212C312CFFE1F31538F0B5
:105540008B3211F190F4803209F1833229F137FC6A
:105550003CC020ED280F2A3050F536FE20C08AE0EE
:10556000989E200D1124922E06C08D3291F080332A
:1055700071F7689430F8F30193FD859193FF819161
:105580003F018111DACF21C0689431F8689432F874
:10559000F2CF689433F8EFCF689434F8ECCFEAE0B8
:1055A0002E9E200D1124222E689435F8E4CF8E32E1
:1055B00029F436FC04C1689436F8DDCF8C3619F432
:1055C000689437F8D8CF8836B1F2982F9F7D9554DC
:1055D0009330E0F08336A1F18337C1F1833509F0D0
:1055E00063C02801F2E04F0E511CF801C080D18049
:1055F000692D70E036FC02C06FEF7FEFC6010E949C
:10560000492C4C01689437F882010AC00C5F1F4F87
:10561000FFE3F98388248394912C6501E89437F89B
:1056200033FE2DC0522C8114910471F5552009F4DC
:1056300068CFB70180E290E00E945D2C5A94F6CFCB
:10564000F801808189830E5F1F4FE4CF2801F2E0CB
:105650004F0E511CF801C080D180692D70E036FCDE
:1056600002C06FEF7FEFC6010E945B274C018201F1
:10567000D5CFB70180E290E00E945D2C2A942814D7
:10568000190409F0B0F7CECFF60137FC859137FE4B
:1056900081916F01B70190E00E945D2C51105A94E6
:1056A000F1E08F1A9108BFCF843619F0893609F0DE
:1056B00077C0F80137FE6BC0608171818281938170
:1056C0000C5F1F4FF32DFF763F2E97FF09C090957B
:1056D0008095709561957F4F8F4F9F4F689437F8F5
:1056E0002AE030E0A5010E948D2CC82ECA188C2C0F
:1056F000432C36FE0CC0E89440F8C91440F434FE44
:1057000005C032FC03C0F32DFE7E4F2E892C44FED3
:1057100095C0FE01EC0DF11D8081803309F087C03A
:10572000242D297E422E842D8870582E43FC95C04E
:1057300040FE8FC09C2C821418F42C0C922C9818CC
:1057400044FE91C0B70180E390E00E945D2C42FED0
:1057500009C088E790E041FE02C088E590E0B7010B
:105760000E945D2CC91408F48AC0CA94D12C9FEF02
:10577000C91AD90ACA0CDB1CF60182916F01B70164
:1057800090E00E945D2CAC14BD04B1F74FCF608156
:105790007181072E000C880B990B0E5F1F4F92CF63
:1057A000D32CE894D4F82AE030E0853739F1232D62
:1057B000297FD22E8F3601F148F48835A9F0F70100
:1057C000868197812B96E2E10C94072D803749F072
:1057D0008837A9F7D4FE02C06894D2F820E130E0FF
:1057E0000DC06894D4F8F6CF34FE03C0822F8660D3
:1057F000D82E20E132E002C028E030E0F801D7FEE8
:105800000FC060817181828193810C5F1F4FA50160
:105810000E948D2CC82ECA183D2CE89437F867CF0B
:105820006081718190E080E00E5F1F4FF0CF42FCFD
:1058300002C0839478CF8394839475CF842D867827
:1058400009F471CFF6CFB70180E290E00E945D2CA1
:1058500083948214C0F3512C73CF522C58188214A5
:1058600008F46ECFF8CF842D867809F47BCF8BE2D5
:1058700041FE80E247FC8DE2B70190E071CFB701B5
:1058800080E390E00E945D2C9A946CCF8FEF9FEFA5
:1058900099CFFC010590615070400110D8F78095B8
:1058A00090958E0F9F1F0895FB01DC0102C00190AF
:1058B0000D9241505040D8F708950F931F93CF9306
:1058C000DF93182F092FEB018B8181FD09C01FEF9A
:1058D0000FEF812F902FDF91CF911F910F9108959E
:1058E00082FF14C02E813F818C819D81281739074A
:1058F0003CF4E881F981CF01019699838883108374
:105900008E819F8101969F838E83E3CFE885F98501
:10591000812F0995892BA1F3DACFFA01AA27283024
:1059200051F1203181F1E8946F936E7F6E5F7F4F6C
:105930008F4F9F4FAF4FB1E03ED0B4E03CD0670FE8
:10594000781F891F9A1FA11D680F791F8A1F911D3B
:10595000A11D6A0F711D811D911DA11D20D009F48B
:1059600068943F912AE0269F11243019305D3193CD
:10597000DEF6CF010895462F4770405D4193B3E0B6
:105980000FD0C9F7F6CF462F4F70405D4A3318F05D
:10599000495D31FD4052419302D0A9F7EACFB4E00E
:1059A000A6959795879577956795BA95C9F70097C6
:1059B0006105710508959B01AC010A2E0694579567
:1059C000479537952795BA95C9F7620F731F841FBE
:1059D000951FA01D08952F923F924F925F926F9254
:1059E0007F928F929F92AF92BF92CF92DF92EF926F
:1059F000FF920F931F93CF93DF93CDB7DEB7CA1BF0
:105A0000DB0B0FB6F894DEBF0FBECDBF09942A881A
:105A1000398848885F846E847D848C849B84AA84C2
:105A2000B984C884DF80EE80FD800C811B81AA814F
:105A3000B981CE0FD11D0FB6F894DEBF0FBECDBF1A
:105A4000ED01089510E0C2E6D0E004C0FE010E941E
:105A50000C2A2196C336D107C9F7F894FFCFDEADE3
:105A6000BEEFFEED00C00000D00680000100000087
:105A700001005E00000000044D5154540400000079
:105A8000002208190EB1080001FC000D10940A094B
:105A90000DA40BA0095B08B313140AF510EE0FAAAE
:105AA000089A089608920800000000C603260353CF
:105AB00003130484036203760300000000EE04CEA7
:105AC00004B1083808000000004408530E100EFB13
:105AD0000D150F3710A30A870C26145110DB09B9D6
