:020000040000FA
:100000000C94E0000C9408010C9408010C94080175
:100010000C9408010C9408010C9408010C9408013C
:100020000C9408010C9408010C9408010C9408012C
:100030000C9408010C9408010C9408010C9408011C
:100040000C94CA1A0C9408010C943A1B0C94141BBF
:100050000C9408010C9408010C9408010C940801FC
:100060000C9408010C94080100407A10F35A00A087
:10007000724E18090010A5D4E80000E87648170071
:1000800000E40B54020000CA9A3B000000E1F505B1
:10009000000080969800000040420F000000A086FB
:1000A00001000000102700000000E803000000002D
:1000B0006400000000000A000000000001000000D1
:1000C00000002C76D888DC674F0823DFC1DFAE59EB
:1000D000E1B1B796E5E3E453C63AE651997696E87E
:1000E000E6C28426EB898C9B62ED407C6FFCEFBC02
:1000F0009C9F40F2BAA56FA5F490055A2AF75C932D
:100100006B6CF9676DC11BFCE0E40D47FEF520E662
:10011000B500D0ED902E0300943577050080841E45
:10012000080000204E0A000000C80C333333330FA0
:10013000986E12831141EF8D2114893BE65516CF3D
:10014000FEE6DB18D1844B381BF77C1D901DA4BB49
:10015000E424203284725E228100C9F124ECA1E5FE
:100160003D2700000000240027002A0000000000B6
:10017000250028002B0000000008000201000003F9
:100180000407000000000000000000000000230041
:1001900026002900040404040404040402020202E8
:1001A000020203030303030301020408102040803A
:1001B0000102040810200102040810206C1BF42620
:1001C00011241FBECFEFD8E0DEBFCDBF13E0A0E00B
:1001D000B1E0ECE0F2E602C005900D92A63BB1075B
:1001E000D9F726E0A6EBB3E001C01D92A631B20715
:1001F000E1F710E0CFEDD0E004C02197FE010E94AE
:10020000DB2CCE3DD107C9F70E947A1C0C94F93043
:100210000C940000CF92DF92EF92FF92CF93DF9386
:10022000B0910606A0E08111AB2F8091070690E007
:10023000880F991FAC0146575E4FC0900C06D090B6
:100240000D06E0900E06F0900F0630E020E0FA0177
:10025000C591D491E881B90190E080E0EB23EA13E5
:100260000AC02F5F3F4F6C157D058E059F0578F303
:100270006FEF7FEFCB01DF91CF91FF90EF90DF9099
:10028000CF9008958CBD9DBD089520E3FC0120838F
:100290003296862F82958F706F706A3030F4605D71
:1002A0006293682F8111F5CF0895695CF9CFCF93E0
:1002B000DF93EC01FA013296E60FF71FDC019D0196
:1002C0002C1B3D0BCF01861B970B4D91442311F046
:1002D0004193F5CFAC01421B530B640F751FFB011B
:1002E0003297308361507109FB012083DF91CF91F8
:1002F0000895FC01818D928D08950895833081F0D9
:1003000028F4813099F08230A9F008958730A9F05F
:100310008830C9F08430B1F4809180008F7D03C0B3
:10032000809180008F7780938000089584B58F77C7
:1003300084BD089584B58F7DFBCF8091B0008F7709
:100340008093B00008958091B0008F7DF9CFCF9356
:10035000DF93282F30E0F901EA58FE4F8491F9012C
:10036000E855FE4FD491F901EC56FE4FC491CC23D1
:10037000A1F081110E947E01EC2FF0E0EE0FFF1F33
:10038000E657FE4FA591B491EC91ED2381E090E00A
:1003900009F480E0DF91CF91089580E090E0FACFFA
:1003A0001F93CF93DF93282F30E0F901EA58FE4FD7
:1003B0008491F901E855FE4FD491F901EC56FE4FB6
:1003C000C491CC23A9F0162F81110E947E01EC2F3D
:1003D000F0E0EE0FFF1FE459FE4FA591B4918FB7E7
:1003E000F894EC91111108C0D095DE23DC938FBFF7
:1003F000DF91CF911F910895DE2BF8CFCF93DF933C
:1004000090E0FC01E855FE4F24918C569E4FFC0174
:1004100084918823C9F090E0880F991FFC01EE5960
:10042000FE4FA591B491FC01E459FE4FC591D491C2
:1004300061110DC09FB7F8948C91209582238C9305
:100440008881282328839FBFDF91CF910895623050
:1004500051F49FB7F8943C91822F809583238C931D
:10046000E8812E2BEFCF8FB7F894EC912E2B2C93A5
:100470008FBFEACF3FB7F8948091A5049091A6046E
:10048000A091A704B091A80426B5A89B05C02F3F52
:1004900019F00196A11DB11D3FBFBA2FA92F982FAA
:1004A0008827BC01CD01620F711D811D911D42E0A5
:1004B000660F771F881F991F4A95D1F708958F926D
:1004C0009F92AF92BF92CF92DF92EF92FF924B0139
:1004D0005C010E943A026B017C010E943A026C1995
:1004E0007D098E099F09683E734081059105A8F337
:1004F00021E0821A9108A108B10888EEC80E83E0B5
:10050000D81EE11CF11C81149104A104B10429F747
:10051000FF90EF90DF90CF90BF90AF909F908F9023
:1005200008952FB7F8946091A1047091A20480916E
:10053000A3049091A4042FBF0895CF92DF92EF926D
:10054000FF920F931F93CF93DF93CDB7DEB7C054C5
:10055000D1400FB6F894DEBF0FBECDBF0E9491020E
:10056000009108061091090620910A0630910B06A9
:100570006B017C01C01AD10AE20AF30A97018601D5
:10058000003D17402105310590F480911006C05CB4
:10059000DE4F0FB6F894DEBF0FBECDBFDF91CF9117
:1005A0001F910F91FF90EF90DF90CF90089560938F
:1005B00008067093090680930A0690930B06109222
:1005C0000306109202061092010610920006109285
:1005D000FF0562E0809104060E94FE0161E070E088
:1005E00080E090E00E945F0261E0809104060E943A
:1005F000FE0160E0809104060E94D0018091050612
:100600008551823020F58BE291E10197F1F762E0AC
:10061000809104060E94FE018091110690E08230D4
:10062000910538F0880F991F880F991F059701973A
:10063000F1F7F89480E00E940A016F3F7F4F8F4FDF
:100640009F4F61F410921006789480E0A0CF64E18F
:1006500070E080E090E00E945F02D9CF81E00E94CC
:100660000A016F3F7F4F8F4F9F4F61F38E010F5FE6
:100670001F4F6E012FEBC21A2EEFD20A780180E0D5
:100680000E940A01F701608371838283938381E072
:100690000E940A01F7016483758386839783F8E0DB
:1006A000EF0EF11CEC14FD0451F7789430E020E0DB
:1006B000F801C080D180E280F38044815581668159
:1006C0007781FFEFCF16DF06EF06FF0631F04F3FD1
:1006D0008FEF58076807780719F410921006B5CF06
:1006E000F90183E0F595E7958A95E1F7E150FA4F36
:1006F0008081880FC416D506E606F70610F18083C0
:100700002F5F3F4F085F1F4F2832310589F6409118
:1007100003062091FF0580910006280F3327331F21
:1007200080910106280F311D80910206820F932FC0
:10073000911D99274817190681F681E080931006CC
:1007400026CF8160DCCFAF92BF92CF92DF92EF9243
:10075000FF920F931F93CF93DF936C017B018B016B
:10076000040F151FEB015E01AE18BF08C017D107BB
:1007700059F06991D601ED91FC910190F081E02D45
:10078000C6010995892B79F7C501DF91CF911F919A
:100790000F91FF90EF90DF90CF90BF90AF900895B2
:1007A000FC01538D448D252F30E0842F90E0821B77
:1007B000930B541710F0CF96089501970895FC01FC
:1007C000918D828D981761F0A28DAE0FBF2FB11D54
:1007D0005D968C91928D9F5F9F73928F90E00895AC
:1007E0008FEF9FEF0895FC01918D828D981731F066
:1007F000828DE80FF11D858D90E008958FEF9FEFBA
:100800000895FC01918D228D892F90E0805C9F4F8F
:10081000821B91098F739927089586ED94E00E94B9
:10082000010421E0892B09F420E0822F089580E063
:1008300090E0892B29F00E940D0481110C94000096
:100840000895FC01A48DA80FB92FB11DA35ABF4F65
:100850002C91848D90E001968F739927848FA689BF
:10086000B7892C93A089B1898C91837080648C9313
:10087000938D848D981306C00288F389E02D8081C2
:100880008F7D80830895EF92FF920F931F93CF93F4
:10089000DF93EC0181E0888F9B8D8C8D98131AC0BB
:1008A000E889F989808185FF15C09FB7F894EE89A2
:1008B000FF896083E889F9898081837080648083FF
:1008C0009FBF81E090E0DF91CF911F910F91FF904A
:1008D000EF900895F62E0B8D10E00F5F1F4F0F73F2
:1008E0001127E02E8C8D8E110CC00FB607FCFACFAD
:1008F000E889F989808185FFF5CFCE010E94210426
:10090000F1CFEB8DEC0FFD2FF11DE35AFF4FF0827D
:100910009FB7F8940B8FEA89FB8980818062CFCFE3
:10092000CF93DF93EC01888D8823B9F0AA89BB8926
:10093000E889F9898C9185FD03C0808186FD0DC011
:100940000FB607FCF7CF8C9185FFF2CF808185FF32
:10095000EDCFCE010E942104E9CFDF91CF91089520
:10096000CF93DF93FC01A481B581109711F480E04F
:1009700029C0EC01ED91FC9111970688F789E02DD3
:10098000CD0109952FA138A5811119C0232B79F725
:100990008DEF9FEF98A78FA38C819D81DC01ED9156
:1009A000FC910680F781E02D09958C819D81DC0109
:1009B000ED91FC910488F589E02D0995D8CF81E06F
:1009C000232BA9F6DF91CF910895CF92DF92EF927A
:1009D000FF920F931F93CF93DF9300D000D0CDB73A
:1009E000DEB78C01F90180E0DE0111967D019E2FBA
:1009F0009F77EE0FEF2FEE1FFF0BF195309709F069
:100A00009068D701A80FB11D9C938F5F309779F73D
:100A100090E0FA01E81BF90B6483FA01E81BF90B7B
:100A20003596D701BD016E197F09681779071CF447
:100A30006D916193F7CFFC013196D80114968D9199
:100A40009C917F01E20EF31EBA016E1B7F0B6B5F60
:100A50007F4FDC01ED91FC910280F381E02DA70135
:100A600009956C010E949102F801608B718B828B59
:100A7000938B81E0EC14FD0409F080E00F900F905F
:100A80000F900F90DF91CF911F910F91FF90EF90FA
:100A9000DF90CF900895EF92FF920F931F93CF9323
:100AA000DF93EC018B017A010E949102688B798BB4
:100AB0008A8B9B8B8C819D81DC01ED91FC91028066
:100AC000F381E02DA701B801DF91CF911F910F9124
:100AD000FF90EF9009941F93CF93DF93EC01162FB3
:100AE0000E949102688B798B8A8B9B8B8C819D8174
:100AF000DC01ED91FC910190F081E02D612FDF91FF
:100B0000CF911F9109948F929F92AF92BF92CF92F3
:100B1000DF92EF92FF920F931F93CF93DF93EC013D
:100B20008B010E9491024B015C018C819D81DC0153
:100B3000ED91FC910084F185E02D0995892BA9F4B4
:100B40000E9491026B017C01C818D908EA08FB08D1
:100B50002C853D85A8EEB3E00E94892AC616D706EB
:100B6000E806F90610F380E00CC08C819D81DC0161
:100B7000ED91FC910284F385E02D0995F8018083C5
:100B800081E0DF91CF911F910F91FF90EF90DF9067
:100B9000CF90BF90AF909F908F9008953F924F92CB
:100BA0005F926F927F928F929F92AF92BF92CF92FD
:100BB000DF92EF92FF920F931F93CF93DF93CDB706
:100BC000DEB764970FB6F894DEBF0FBECDBF8C01C1
:100BD0006B01DC0116966D917C910E948305811159
:100BE0001BC060E070E0CB0164960FB6F894DEBFE6
:100BF0000FBECDBFDF91CF911F910F91FF90EF906E
:100C0000DF90CF90BF90AF909F908F907F906F902C
:100C10005F904F903F900895D8011696ED91FC910A
:100C200030801982E1E0F0E0FB83EA83412C512C13
:100C30003201812C912C54018394BE016F5F7F4F50
:100C4000C8010E948305882361F2EA80FB80BFEF20
:100C5000EB1AFB0A8981D8011696ED91FC912A8145
:100C60003B81E20FF31F8083E981AE2FAF77B0E0C5
:100C7000A50194010E941D2A460E571E681E791E6A
:100C800037E0880C991CAA1CBB1C3A95D1F7E7FDEC
:100C900044C0332D307F332E8FEF8E0DD6018C93D1
:100CA000B0E33B1353C0F801668177816E0D7F1D61
:100CB000C8010E948305882309F493CFD8011696B2
:100CC0006D917C918A819B810296680F791FC80182
:100CD0000E948305882309F484CFEA80FB80B3E077
:100CE000EB0EF11CD8011696ED91FC91D6018C917A
:100CF000DF01A80FB11D11968C91119790E0982FEC
:100D0000882712962C91820F911D208121FD029639
:100D1000F2E0E0E030E020E01FC0FB82EA829701D1
:100D20002530310509F089CF8FEF9FEFD8019896D4
:100D30009C938E93979714968D919C91DC01ED91E5
:100D4000FC910488F589E02D09954BCFF0E0E0E0B7
:100D500030E020E090E080E0A70170E060E08F2EBE
:100D60009E2EA32EB22E481959096A097B094E837B
:100D70005F83688779879C0150E040E02B873C8740
:100D80004D875E874E815F8168857985480D591D45
:100D90006A1D7B1D4A835B836C837D838414950469
:100DA000A604B70408F051C0BE016F5F7F4FC801B1
:100DB0000E948305882309F414CFD80195960D90DD
:100DC000BC91A02DBC8BAB8BAB2B49F1B0E33B129C
:100DD00026C0F60120814EEF5FEF6FEF7FEF421BE1
:100DE0005109610971098A819B81AC81BD81480FDC
:100DF000591F6A1F7B1F8B859C85AD85BE85841717
:100E00009507A607B70758F4AB89BC89ED91FC910B
:100E100011970190F081E02D6981CD010995F801CC
:100E200080859185E816F90650F489810680F7815E
:100E3000E02DEE0DFF1D8083FFEFEF1AFF0A2FEF6D
:100E4000821A920AA20AB20A9DCFD80195968D9174
:100E50009C919697892B81F418968D919C91B0E086
:100E6000A0E02A813B814C815D8182179307A40712
:100E7000B50710F4F12CE12CB70190E080E0B4CE7E
:100E8000FC0120812EBD9B012150310941F051818F
:100E90000DB407FEFDCF4EB55EBD4193F5CF615059
:100EA0007109860F971F0DB407FEFDCF2EB5FC010B
:100EB00020830895E091B703F091B8038081909169
:100EC000B603892B80830895E091B703F091B803AE
:100ED00090818091B60380958923808308958EBD8B
:100EE00000000DB407FEFDCF8EB50895AF92BF92FE
:100EF000CF92DF92EF92FF920F931F93CF93DF93E6
:100F0000CDB7DEB728970FB6F894DEBF0FBECDBFC2
:100F10008C017B016A018091C5048333E1F458019F
:100F2000A40EB51EA016B10609F46FC00E94640796
:100F300080EF0E946F07812F0E946F07802F0E9411
:100F40006F070F5F1F4FF70181917F010E946F07AD
:100F50000E945A07E7CF5B01A40EB51E8433C1F48B
:100F60000E94640719830A838D2D80688B83CC824D
:100F700064E070E0CE0101960E944007AE14BF0409
:100F800009F441C0F70181917F010E946F07F6CFFC
:100F90000E9464070F3F110509F028F419820A83A3
:100FA00084E08B830CC017FD17C019820A8333E0DD
:100FB000169507953A95E1F7007E0C600B8386E065
:100FC000C816D104A0F5F701DE011496EA15FB0559
:100FD00099F081918D93FACFC80126E09695879577
:100FE0002A95E1F7807E19830A830115104C10F4CD
:100FF0008461D7CF8C61D5CFB6016D5F7F4FCE01B5
:1010000001960E9440070E945A07C60128960FB613
:10101000F894DEBF0FBECDBFDF91CF911F910F912E
:10102000FF90EF90DF90CF90BF90AF90089563E076
:1010300070E0CE0101960E944007F70181917F0187
:101040000E946F07AE14BF04C1F7DDCFCF93DF93CB
:101050001F92CDB7DEB7898341E050E0BE016F5FDC
:101060007F4F90E080E00E9476070F90DF91CF9154
:10107000089590E02091C504233339F40C96982FFD
:10108000990F990F990F80E008954896F8CFDA01EB
:10109000E091BA03F0E0FE2FEE27E60FF71F90E095
:1010A000982F8827A901BD018E0F9F1F0C947607EA
:1010B000CF93DF9300D0CDB7DEB779836A8322E088
:1010C00030E0AE014F5F5F4F60E170E00E94470883
:1010D0000F900F90DF91CF910895CF93DF9300D0C1
:1010E000CDB7DEB779836A8322E030E0AE014F5F8F
:1010F0005F4F64E070E00E9447080F900F90DF910F
:10110000CF910895CF93DF931F92CDB7DEB7209193
:10111000BA0330E0322F2227260F371F90E0982F96
:101120008827498341E050E0BE016F5F7F4F820F07
:10113000931F0E9476070F90DF91CF910895CF9370
:10114000DF931F92CDB7DEB76983DC01ED91FC918F
:101150000280F381E02D41E050E0BE016F5F7F4FE0
:1011600009950F90DF91CF9108950895FC01948522
:10117000FB018485981303C081E0943008F080E07F
:101180000895CF93DF931F92CDB7DEB76983DC015B
:10119000ED91FC910280F381E02D41E050E0BE0131
:1011A0006F5F7F4F09950F90DF91CF91089508955C
:1011B000FF920F931F93CF93DF93EB01FC01178AEC
:1011C000168A2A81211109C02B81211106C02C8188
:1011D000211103C02D81222301F141155105E9F0B0
:1011E0008A01FC01F08C80E591E00E944201AE0191
:1011F0004E5F5F4F24E030E06CE070E08F2D0E9486
:101200004708B8018F2D0E94580881E090E0DF91D7
:10121000CF911F910F91FF90089580E0F7CFFC01CF
:10122000848595850895FC018489958908952DE923
:1012300031E0FC0131832083FB01408951896289BF
:101240007389FC0142835383648375830895DC01B1
:10125000ED91FC91048CF58DE02D099490E080E0F7
:101260000895FC01768765870895DC01ED91FC9176
:1012700002A0F3A1E02D099591E089270895862F1A
:10128000089581E08627089521E0FC01848584305B
:1012900008F020E0822F089508950F931F93CF93B5
:1012A000DF93EA018091240490E04817590710F079
:1012B000EC0121970091250410912604AE01C8018C
:1012C0000E94132EC00FD11F18826FE971E0C80170
:1012D0000E943C2E892B89F068EA71E0C8010E94C7
:1012E0003C2E892B79F081E080938D0461E084E0CD
:1012F0000E94D00181E080938E04DF91CF911F91F5
:101300000F91089510928D0460E0F1CFDC018DE91A
:1013100091E08D939D9384E0FB0101900D928A955D
:10132000E1F70895AF92BF92CF92DF92EF92FF92D2
:101330000F931F93CF93DF9300D000D0CDB7DEB7CC
:101340008C016B017A018091C5048333E9F45B0160
:101350006801C40ED51EC016D106A9F10E9464070B
:101360008FE00E946F07812F0E946F07802F0E94DD
:101370006F070F5F1F4F80E00E946F07F501819399
:101380005F010E945A07E7CF843369F50E94640722
:1013900019830A838F2D8F778B83EC8264E070E052
:1013A000CE0101960E944007A70170E060E0C601EF
:1013B0000E942E2EE114F10421F0B701C6010E9413
:1013C00040070E945A07C7010F900F900F900F908F
:1013D000DF91CF911F910F91FF90EF90DF90CF9011
:1013E000BF90AF9008950E9464070F3F110509F068
:1013F00030F419820A831B8263E070E0D1CF17FDBD
:101400000BC019820A8333E0169507953A95E1F7E8
:10141000007E08600B83F0CFC80126E09695879583
:101420002A95E1F7807E19830A830115104C18F480
:1014300080618B83E1CF8861FCCFCF93DF931F92D4
:10144000CDB7DEB72091BA0330E0322F2227260F26
:10145000371F90E0982F882741E050E0BE016F5F72
:101460007F4F820F931F0E94920989810F90DF9115
:10147000CF910895CF93C82F462F61E070E00E946E
:10148000820861E070E08C2F0E941D0A8111F9CF63
:10149000CF910895CF93C82F80E591E00E9442013B
:1014A00068E070E08C2FCF910C943A0ACF93C82F4C
:1014B00080E591E00E94420160E170E08C2FCF91C5
:1014C0000C943A0ACF93DF93EC01888D843020F49A
:1014D0000E94560A84E0888FDF91CF910895CF93C0
:1014E000C82F80E591E00E94420163E070E08C2FFC
:1014F000CF910C941D0ACF93DF93EC018C8584303F
:10150000D0F40E946F0A843189F0882379F0883101
:1015100069F021E08C3159F4E881F9810084F1858A
:10152000E02DCE01099521E0892B09F420E0822FDE
:10153000DF91CF91089580E0FBCFCF92DF92EF92C1
:10154000FF92CF93DF93EC018C85843068F40E9486
:101550004A0A0E9491026B017C018C850E946F0AED
:10156000811109C084E08C87DF91CF91FF90EF90CB
:10157000DF90CF90089561E070E080E090E00E94FD
:101580005F020E949102AB01BC014C195D096E091A
:101590007F098D859E85B0E0A0E0481759076A074E
:1015A0007B07D8F28C850E94560ADCCFCF93FC01D2
:1015B000C08D80E591E00E94420160E270E08C2FD6
:1015C0000E943A0A62E070E08C2F0E941D0A84FD9E
:1015D00016C062E070E08C2F0E941D0A83FF0AC0D3
:1015E00048E162E070E08C2F0E94820880E090E089
:1015F000CF91089580E591E00E944201E3CF40E160
:1016000062E070E08C2F0E94820881E0F0CFCF93DF
:10161000DF931F92CDB7DEB741E050E0BE016F5FB0
:101620007F4F90E080E00E94920989810F90DF91C6
:10163000CF910895CF93DF93C4E1D0E00E94070BD0
:10164000882361F061E070E080E090E00E945F023A
:101650002197A1F780E0DF91CF91089581E0FBCF42
:101660001F93CF93DF931F92CDB7DEB7182F80E57E
:1016700091E00E944201812F0E94390827E0129FC9
:10168000F0011124E755FB4F22813381377041E08F
:1016900050E0BE016F5F7F4F820F931F0E9492093F
:1016A00089810F90DF91CF911F910895FC01808D6A
:1016B000843040F4218D328D232B21F00E94300B99
:1016C00090E008958FEF9FEF0895CF93DF93FC0193
:1016D0002485243028F08FEF9FEFDF91CF9108957C
:1016E000EC010190F081E02D0084F185E02D099559
:1016F000892B89F38C850E94300B90E0EECFDA01C4
:10170000E091BA03F0E0FE2FEE27E60FF71F90E01E
:10171000982F8827A901BD018E0F9F1F0C94920955
:101720008F929F92AF92BF92CF92DF92EF92FF92F1
:101730001F93CF93DF93CDB7DEB72C970FB6F894F6
:10174000DEBF0FBECDBF2091C50414E0222339F1C6
:101750006B017C0180E591E00E9442015E0127E07F
:10176000A20EB11C450110E063E070E0812F0E94E1
:101770001D0AF40181934F01882349F11F5F143042
:1017800099F710E0F50181915F018D31D9F0883131
:10179000C9F08A518230B0F01F5F143099F7812F61
:1017A0002C960FB6F894DEBF0FBECDBFDF91CF9160
:1017B0001F91FF90EF90DF90CF90BF90AF909F90E0
:1017C0008F90089560E170E0812F0E943A0AA12E67
:1017D000B12C83EE93E00197F1F742E870E060E00E
:1017E000812F0E9482084FEF62E070E0812F0E94FB
:1017F0008208B601C114D10491F480910601909140
:10180000070101968115F0EC9F0708F45CC09093E6
:101810000701809306016091060170910701812FF5
:101820000E946D0886E0E2E1F1E0DE011196019090
:101830000D928A95E1F7F70183818F778C838481FC
:101840008D8385818E83A7014E5F5F4F24E030E05A
:101850006CE070E0812F0E944708B601812F0E9442
:10186000580826E030E0AE014F5F5F4F66E070E061
:10187000812F0E94470861E070E0812F0E943A0AA0
:1018800027E02A9DC0012B9D900D11249C01275516
:101890003B4F7901F9011182108222E030E0AE0164
:1018A000455F5F4F68E270E0812F0E947F0B8B8560
:1018B0009C85982789279827F7019383828316822E
:1018C000158214826CCF80E090ECA1CFCF92DF9292
:1018D000EF92FF920F931F93CF93DF9300D000D02E
:1018E00000D0CDB7DEB78C016B017A01FC01808D91
:1018F000843010F40E94560A8DE991E09A8389831E
:10190000F60182819381A481B5818B839C83AD8311
:10191000BE83B701CE0101960E94900BF801808F23
:101920008430A0F4F586E486128E118E81E026962E
:101930000FB6F894DEBF0FBECDBFDF91CF911F91E0
:101940000F91FF90EF90DF90CF90089580E0EFCF60
:10195000AF92BF92CF92DF92EF92FF920F931F93BD
:10196000CF93DF9300D000D000D0CDB7DEB7082FE3
:101970006B0180E591E00E9442019E012F5F3F4F85
:101980007901590110E063E070E0812F0E941D0A87
:10199000F50181935F01882341F11F5F143099F7AE
:1019A00010E0F70181917F018D31D1F08831C1F0D4
:1019B0008A518230A8F01F5F143099F7812F269644
:1019C0000FB6F894DEBF0FBECDBFDF91CF911F9150
:1019D0000F91FF90EF90DF90CF90BF90AF90089560
:1019E00060E170E0812F0E943A0AE12EF12C83EE33
:1019F00093E00197F1F7402F70E060E0812F0E94A3
:101A000082084FEF62E070E0812F0E948208B601E9
:101A1000CD2889F4809106019091070101968115E6
:101A2000F0EC9F0798F19093070180930601609175
:101A3000060170910701812F0E946D0861E070E03E
:101A4000812F0E943A0A27E02E9DC0012F9D900D04
:101A500011249C0127553B4F7901F9011182108215
:101A600022E030E0AE014B5F5F4F68E270E0812F13
:101A70000E947F0B8D819E81982789279827F701E7
:101A80009383828316821582148298CF80E090EC33
:101A9000CACFCF92DF92EF92FF921F93CF93DF9343
:101AA000EC017B016A018C85843048F40E946F0A46
:101AB000882319F08C850E944A0A84E08C87F701FC
:101AC00082819381A481B5810097A105B10551F46C
:101AD00090E080E0DF91CF911F91FF90EF90DF9039
:101AE000CF9008958F3F9F4FAF4FBF4F89F38091A5
:101AF000C504811103C084E08C87EACF70E060E008
:101B000081E20E94A80C182F8C87843008F780E5AA
:101B100091E00E944201A7014E5F5F4F24E030E058
:101B20006CE070E0812F0E944708B601812F0E946F
:101B3000580864E070E0812F0E943A0A0E949102E6
:101B40006B017C018C850E946F0A873109F18C3111
:101B5000F9F0882309F4BCCF0E949102AB01BC01CB
:101B60004C195D096E097F098D859E85B0E0A0E066
:101B700084179507A607B70738F061E070E080E0AA
:101B800090E00E945F02DECF8C850E94560AB3CFA0
:101B900081E090E09FCF0F931F93CF93DF93EC01F1
:101BA0008B01888D843010F40E94560A8091C50400
:101BB000811107C094E0988FDF91CF911F910F9111
:101BC0000895B80182E00E94A80C888F843030F418
:101BD0001D870C871A8E198E81E0EECF80E0ECCF46
:101BE0007F928F929F92AF92BF92CF92DF92EF92AD
:101BF000FF920F931F93CF93DF9300D0CDB7DEB743
:101C0000782E8B014A01590122E030E0AE014F5F8E
:101C10005F4F64E270E00E947F0BE980FA80FE244F
:101C2000EF24FE24E00EF11E970137704091C504A9
:101C3000072D10E0433309F042C0085F1F4F102FFB
:101C40000027110F110F110FC901800F911F47338A
:101C5000C9F1A9014A0D5B1D4130584098F160E07F
:101C600078E06B01C21AD30AA601B4010E9476077C
:101C7000A5014C195D09B4016C0D7D1DC8010E94C0
:101C80007607EA0CFB1CF982EA8222E030E0AE0122
:101C90004F5F5F4F64E270E0872D0E9447080F900E
:101CA0000F90DF91CF911F910F91FF90EF90DF90F8
:101CB000CF90BF90AF909F908F907F900895005FDE
:101CC0001F4FBDCFA501B401DACFEF92FF921F9352
:101CD000CF93DF9300D0CDB7DEB7182F22E030E0EE
:101CE000AE014F5F5F4F60E270E00E947F0BE980C2
:101CF000FA80FE24EF24FE2422E030E0AE014F5FA4
:101D00005F4F60E270E0812F0E947F0B89819A8192
:101D1000982789279827E816F90689F487E0189FFD
:101D2000F0011124E755FB4FF582E482C7010F90C3
:101D30000F90DF91CF911F91FF90EF9008957C015C
:101D4000DBCF1F93CF93DF93182F80E591E00E94A4
:101D50004201812F0E94650EEC0163E070E0812F4B
:101D60000E941D0A873121F08C3111F0D0E0C0E0D3
:101D7000CE01DF91CF911F910895CF93DF93EC01B6
:101D80008C85843060F40E946F0A873111F08C31A9
:101D900031F48C850E94A10E8115984088F3DF9163
:101DA000CF910895FC018485843010F40C94A10E29
:101DB00090E080E008959F92AF92BF92CF92DF9221
:101DC000EF92FF920F931F93CF93DF938C015B01F0
:101DD000942EE52EFC01C688D788F08C80E591E032
:101DE0000E9442018F2D0E94650EC92DDE2D8C1799
:101DF0009D0708F4EC019E01A501B6018F2D0E94FC
:101E0000F00DF801868997898C0F9D1F978B868B23
:101E1000CE01DF91CF911F910F91FF90EF90DF9056
:101E2000CF90BF90AF909F9008958F929F92AF9266
:101E3000BF92CF92DF92EF92FF920F931F93CF93B7
:101E40006C015B018A01FC01C485C430F0F57A01A4
:101E50004130584018F0E12C88E0F82E80E591E000
:101E60000E9442018C2F0E94650E4C0163E070E0DD
:101E70008C2F0E941D0A873111F08C3149F58E1488
:101E80009F0460F380E591E00E9442019701A50163
:101E900070E060E08C2F0E94F00D60E270E08C2F0B
:101EA0000E943A0A62E070E08C2F0E941D0A84FDB5
:101EB00017C063E070E08C2F0E941D0A81110BC0D7
:101EC00081E090E0F6019383828310E000E010C08F
:101ED000F12CE12CD7CF80E591E00E944201E2CFC6
:101EE00040E162E070E08C2F0E948208EF2841F30D
:101EF000C801CF911F910F91FF90EF90DF90CF908D
:101F0000BF90AF909F908F900895FF920F931F9373
:101F1000CF93DF9300D0CDB7DEB7F82E22E030E0CC
:101F2000AE014F5F5F4F66E270E00E947F0B098158
:101F30001A8110270127102722E030E0AE014F5F01
:101F40005F4F66E270E08F2D0E947F0B89819A813E
:101F50009827892798270817190749F4C8010F906F
:101F60000F90DF91CF911F910F91FF9008958C01F9
:101F7000E3CF1F93CF93DF93182F87E0189FE001E3
:101F80001124C755DB4F88819981009761F480E562
:101F900091E00E944201812F0E94850F2E81821BB9
:101FA000910999838883DF91CF911F910895FC0156
:101FB0008485843010F40C94B90F90E080E008958B
:101FC0004F925F927F928F929F92AF92BF92CF92E9
:101FD000DF92EF92FF920F931F93CF93DF9300D086
:101FE000CDB7DEB7782E6B014A01A82EB12C27E0C1
:101FF000829FC0011124FC01E755FB4F7F01008146
:10200000118180E591E00E9442010815190554F400
:10201000872D0E94850FF70126818C01021B110973
:10202000118300830115110529F563E070E0872D08
:102030000E941D0A843159F0882349F001E010E024
:102040008C3111F410E000E0119501951109C801DF
:102050000F900F90DF91CF911F910F91FF90EF9014
:10206000DF90CF90BF90AF909F908F907F905F90C8
:102070004F900895801691060CF4840187E08A9DA4
:10208000F0018B9DF00D1124E755FB4FE280F380AA
:10209000C114D10451F12701F7E05F22872D0E947E
:1020A0003908840D951D2091C504273309F453C0C8
:1020B0009801240D351D2130384008F44CC020E033
:1020C00038E0490184189508A401B6010E949209DC
:1020D0002601480C591C6801C818D908872D0E9490
:1020E0003908A601B2010E949209E00EF11E87E0B4
:1020F0008A9DF0018B9DF00D1124E755FB4FF38273
:10210000E28220813181201B310B31832083868143
:10211000800F912F911D8A3F910510F4232BF1F42C
:1021200087E08A9DF0018B9DF00D1124E755FB4F50
:102130001682F982EA8222E030E0AE014F5F5F4F03
:1021400068E270E0872D0E94470860E470E0872D08
:102150000E943A0A7CCFA801B601C5CF868377CF0B
:10216000CF93DF93FC01218D328D2115310529F4A8
:102170008FEF9FEFDF91CF910895EC01808D421793
:10218000530708F0A9010E94E00F1816190684F7FA
:10219000298D3A8D281B390B3A8F298FEBCF0F935E
:1021A0001F93CF93DF931F92CDB7DEB7FC01218D34
:1021B000328D232B41F48FEF9FEF0F90DF91CF9162
:1021C0001F910F9108958C0141E050E0BE016F5FB7
:1021D0007F4FFC01808D0E94E00F181619065CF7F6
:1021E000F801818D928D0197928F818F898190E086
:1021F000E4CF0F931F93CF93DF93CDB7DEB728972C
:102200000FB6F894DEBF0FBECDBF8C01D801599632
:102210004D915C915A974115510551F0ED91FC910A
:10222000048CF58DE02D70E060E0C8010995EECFDB
:10223000F801808D0E94B90F892BB1F148E050E080
:10224000BE016F5F7F4FD80158968C910E94E00FBE
:1022500018161906F4F4D801509684E0FE01319660
:1022600001900D928A95E1F78D8190E0982F882753
:102270002E81820F911DF801958B848B8F81282FE1
:1022800030E0322F22278885820F932F911D928F65
:10229000818F28960FB6F894DEBF0FBECDBFDF91B9
:1022A000CF911F910F91089590E080E0F2CF4F926F
:1022B0005F926F927F928F929F92AF92BF92CF92D6
:1022C000DF92EF92FF920F931F93CF93DF93CDB7DF
:1022D000DEB763970FB6F894DEBF0FBECDBF7C01AB
:1022E0006B013A01FB0120E090E080E06AE031916F
:1022F000332309F461C040ED430F4A3008F04DC06C
:10230000689FA001699F500D1124CA01C097830FD7
:10231000911D37FD9A958F3F910549F340F3F701E1
:1023200042815381648175818091A5059091A605B4
:10233000A091A705B091A805481759076A077B0720
:1023400009F40DC28701085F1F4F0E9491026F7050
:1023500077277C5FC8010E94CB0D813009F004C251
:102360008DE991E09A838983F70182819381A48129
:10237000B5818B839C83AD83BE8345E350E0BE0172
:102380006F5F7F4FC8010E94D808892BA9F5D12C17
:10239000C12CC8010E94620A17C03E3209F0BFCFAB
:1023A000233009F4BCCFD301A20FB11D12968C9338
:1023B0002F5F90E080E09BCF233009F0B0CFF30196
:1023C0008583CC24C394D12CC60163960FB6F894B0
:1023D000DEBF0FBECDBFDF91CF911F910F91FF9058
:1023E000EF90DF90CF90BF90AF909F908F907F90B5
:1023F0006F905F904F9008950E949102F70177834C
:10240000668342E050E0B7016A5F7F4FC8010E94D7
:10241000DB0E81E090E09A83898342E050E0BE01C8
:102420006F5F7F4FC8010E94DB0E80E091E09A83CE
:10243000898342E050E0BE016F5F7F4FC8010E9478
:10244000DB0E1A82198242E050E0BE016F5F7F4FBF
:10245000C8010E94DB0E42E050E0BE016F5F7F4F7B
:10246000C8010E94DB0E42E050E0BE016F5F7F4F6B
:10247000C8010E94DB0E5601F6018081882301F11C
:102480006501F60181912F01882311F08E32B1F49C
:1024900046018A189B081814190474F48D8641E0CB
:1024A00050E0BE01635F7F4FC8010E94DB0EA401B4
:1024B000B501C8010E94DB0E5201DECF6201E1CFFF
:1024C0001D8641E050E0BE01635F7F4FC8010E945E
:1024D000DB0EC12CDD24D394DA82C98242E050E0C5
:1024E000BE016F5F7F4FC8010E94DB0EDA82C98296
:1024F00042E050E0BE016F5F7F4FC8010E94DB0EDB
:10250000C8010E94D60A892B09F441CFF3E0AF2E0F
:10251000B12C230122E0420E511CD4C0F7014281AC
:10252000538164817581808D918DA28DB38D481703
:1025300059076A077B0709F008C1848D958DC597F7
:1025400009F003C181A192A15DEFC52EDD24DA94CB
:102550000C970CF4ADC04CE050E0BE016F5F7F4FB4
:10256000C8010E94B0108B819C81982789279827E9
:102570009A8B898BF7014681578129813A814217CD
:10258000530709F0E7C097FFE5C08F7092703BEFEB
:10259000C32EDD24DA94892B09F08AC06F807884F9
:1025A0007624672476242AEFC22EDD24DA9461147F
:1025B000710409F47DC0D12CC12C8D819E81982796
:1025C00089279827C816D906F8F441E050E0BE01E3
:1025D000635F7F4FC8010E94B0104D85442331F0E6
:1025E00050E070E060E0C8010E94B0108D8581115C
:1025F000ECCF44E050E070E060E0C8010E94B01011
:10260000FFEFCF1ADF0AD9CF912C812C41E050E0A7
:10261000BE016D5E7F4FC8010E94B0104B89842FB0
:10262000807C09F06CC0442331F050E070E060E041
:10263000C8010E94B0108B898111E8CF42E050E0C0
:10264000BE01615F7F4FC8010E94B01042E050E0C0
:10265000BE01635F7F4FC8010E94B01044E050E0AC
:1026600070E060E0C8010E94B01042E050E0BE019E
:102670006F5E7F4FC8010E94B0108F85988949898D
:102680005A898115914009F043C0CD84DE84DC2451
:10269000CD24DC2481E0C816D104D1F54115544085
:1026A00009F04AC044E050E0B201C8010E94B010F5
:1026B00021E0A21AB10809F46CCEFFEFCF16DF06B5
:1026C00009F067CE0E9491023B014C01C8010E94B3
:1026D000F910181619060CF421CF0E949102661900
:1026E000770988099909693873418105910548F589
:1026F00062E370E080E090E00E945F02E7CF41E09B
:1027000050E070E060E0C8010E94B0101B8A93CFD7
:1027100054274527542770E060E0C8010E94B0109C
:10272000FFEF8F1A9F0A6814790409F06FCF96EFB4
:10273000C92EDD24DA94BCCFE7EFCE2EDD24DA9467
:10274000B7CFCC24CA94DC2CB3CF6EEFC62EDD24D9
:10275000DA94AECF4CEFC42EDD24DA94A9CF8EEFFD
:10276000C82EDD24DA9430CED12CC12C2DCECF92C0
:10277000DF92EF92FF920F931F93CF93DF93CDB72A
:10278000DEB7AF970FB6F894DEBF0FBECDBF7C01AA
:102790006A010DE911E01A8309831C861B8688EE05
:1027A00093E0A0E0B0E08D879E87AF87B88B83E28F
:1027B00091E09A878987188F0F8B198E1A8E1B8E3E
:1027C0001C8E84E089A31BA70AA71CA61DA61EA613
:1027D0001FA68091990590919A05A0919B05B091B3
:1027E0009C058EA39FA3A8A7B9A78B839C83AD83C9
:1027F000BE8318861F82AE01465D5F4FCE010196F3
:102800000E94571181309105B1F4D701ED91FC91EF
:102810000488F589E02D1DA30CA38CA59DA5AEA56C
:10282000BFA58EA39FA3A8A7B9A7A601BE016C5DF3
:102830007F4FC7010995AF960FB6F894DEBF0FBE64
:10284000CDBFDF91CF911F910F91FF90EF90DF905F
:10285000CF900895CF92DF92EF92FF920F931F9344
:10286000CF93DF93CDB7DEB7AF970FB6F894DEBF47
:102870000FBECDBF8C016B017A018DE991E09A8387
:1028800089831B821C821D821E821C861B8648EE49
:1028900053E060E070E04D875E876F87788B23E2BE
:1028A00031E03A872987988F8F8B198E1A8E1B8E6D
:1028B0001C8E24E029A39BA78AA71CA61DA61EA6E2
:1028C0001FA6D8011C968C91843060F40E946F0A78
:1028D000882321F0F80184850E944A0A84E0D80107
:1028E0001C968C938091990590919A05A0919B05D7
:1028F000B0919C058EA39FA3A8A7B9A78B839C83A7
:10290000AD83BE8318861F82AE01465D5F4FB60160
:10291000CE0101960E9457110097C1F0D801ED91A8
:10292000FC910684F785E02D8DE991E09DA38CA3B1
:102930008CA59DA5AEA5BFA58EA39FA3A8A7B9A74B
:10294000A701BE016C5D7F4FC8010995AF960FB618
:10295000F894DEBF0FBECDBFDF91CF911F910F91D5
:10296000FF90EF90DF90CF900895CF93DF931F9269
:10297000CDB7DEB741E050E0BE016F5F7F4FFC0195
:1029800084850E94E00F1816190634F4898190E0BE
:102990000F90DF91CF9108958FEF9FEFF9CFFC015A
:1029A0008485843010F40C94E00F90E080E008956A
:1029B0000F931F93CF93DF9300D0CDB7DEB7FC0109
:1029C00024852430E0F48C0180E591E00E944201EE
:1029D00022E030E0AE014F5F5F4F60E170E0F80150
:1029E00084850E947F0B89819A819827892798275F
:1029F0000F900F90DF91CF911F910F91089590E06C
:102A000080E0F6CFEF92FF920F931F93CF93DF9367
:102A100000D000D0CDB7DEB78C017B01FB018485EF
:102A20008430A8F08DE991E0F801918380831282CF
:102A3000138214821582C8010F900F900F900F908F
:102A4000DF91CF911F910F91FF90EF90089580E556
:102A500091E00E94420124E030E0AE014F5F5F4F01
:102A60006CE070E0F70184850E947F0BBE016F5F10
:102A70007F4FC8010E948609DECF0F931F93CF932B
:102A8000DF9300D0CDB7DEB7FC0124852430E0F41D
:102A90008C0180E591E00E94420122E030E0AE012D
:102AA0004F5F5F4F64E070E0F80184850E947F0B08
:102AB00089819A819827892798270F900F90DF9115
:102AC000CF911F910F91089590E080E0F6CFFB0128
:102AD00001900020E9F73197AF01461B570BDC014D
:102AE000ED91FC910280F381E02D09948F929F92E9
:102AF000AF92BF92EF92FF920F931F93CF93DF930A
:102B0000CDB7DEB7A1970FB6F894DEBF0FBECDBF2D
:102B10007C01FA01CB0119A2223008F42AE08E01CF
:102B20000F5D1F4F822E912CB12CA12CBF01A5014E
:102B300094010E94672AF901CA016A300CF5605DB0
:102B4000D8016E938D01232B242B252B79F790E050
:102B500080E0109721F0BD01C7010E946715A19682
:102B60000FB6F894DEBF0FBECDBFDF91CF911F919E
:102B70000F91FF90EF90BF90AF909F908F9008952E
:102B8000695CDECFCF92DF92EF92FF92CF93DF931B
:102B9000AB01BC0177FF1DC06A017C016DE286EDCF
:102BA00094E00E944304EC0144275527BA014C19D4
:102BB0005D096E097F092AE086ED94E00E94761592
:102BC0008C0F9D1FDF91CF91FF90EF90DF90CF9002
:102BD00008952AE086ED94E0DF91CF91FF90EF9089
:102BE000DF90CF900C9476158F929F92AF92BF9208
:102BF000CF92DF92EF92FF920F931F93CF93DF93C9
:102C00007C01EB016C0182E0C80ED11C4701E5E0BC
:102C10008E0E911C10E000E0F60141916F0150E032
:102C200070E060E02AE0CE010E9476155C01E88148
:102C3000F9810190F081E02D6EE2CE0109958A0DB7
:102C40009B1D080F191FC814D90431F7F7014581DE
:102C500050E070E060E02AE0CE010E947615800F1F
:102C6000911FDF91CF911F910F91FF90EF90DF9017
:102C7000CF90BF90AF909F908F900895BC0186ED4C
:102C800094E00C9467154F925F926F927F928F92AF
:102C90009F92AF92BF92CF92DF92EF92FF920F93EB
:102CA0001F93CF936B017C01742EAC019B010E949A
:102CB000CF2C6DEA71E0811126C046015701E894DE
:102CC000B7F82FEF3FEF4FE75FE7C501B4010E9470
:102CD000CF2C81110CC02FEF3FEF4FE75FE7C5010D
:102CE000B4010E94052B61EB71E0181664F02FEF20
:102CF0003FEF4FE75FE4C701B6010E945D2C181655
:102D0000ACF465EB71E086ED94E0CF911F910F91EB
:102D1000FF90EF90DF90CF90BF90AF909F908F90FB
:102D20007F906F905F904F900C9467152FEF3FEF5F
:102D30004FE75FECC701B6010E94052B87FDE1CF8D
:102D400020E030E0A901C701B6010E94052B10E088
:102D500000E087FF0AC06DE286ED94E00E94430424
:102D60008C01F7FAF094F7F8F094C0E060E070E0BE
:102D700080E09FE37C1641F020E030E040E251E447
:102D80000E940A2BCF5FF6CFA70196010E94992AD5
:102D90002B013C010E947C2B4B015C012AE0BC0111
:102DA000A40186ED94E00E9476157C01E00EF11EF0
:102DB000CC23D1F1C501B4010E94AB2B9B01AC0126
:102DC000C301B2010E94982A4B015C016EE286EDBC
:102DD00094E00E944304E80EF91EC15028F120E05F
:102DE00030E040E251E4C501B4010E94622C2B01A5
:102DF0003C010E947C2B4B01B12CA12C2AE0B50197
:102E0000A40186ED94E00E947615E80EF91EC50136
:102E1000B4010E94AB2B9B01AC01C301B2010E9423
:102E2000982A4B015C01D9CFC701CF911F910F9117
:102E3000FF90EF90DF90CF90BF90AF909F908F90DA
:102E40007F906F905F904F9008950F931F93CF9353
:102E5000DF93EC010E9467158C0169EB71E0CE01F4
:102E60000E946715800F911FDF91CF911F910F91E5
:102E70000895AF92BF92CF92DF92EF92FF920F939D
:102E80001F93CF93DF93CDB7DEB7C054D1400FB6B9
:102E9000F894DEBF0FBECDBFB82E7E0129ECE21A3A
:102EA0002EEFF20A6091C8047091C9048091CA049F
:102EB0009091CB04870121E044E00E94FA266E0144
:102EC00033EDC31A3EEFD30A6091CC047091CD0468
:102ED0008091CE049091CF04860121E044E00E94CD
:102EE000FA260E94910228EE33E040E050E00E9472
:102EF000672A5F934F933F932F938091D5041F923E
:102F00008F931F92BF928091D3041F928F938091D1
:102F1000D2041F928F938091D4041F928F9380913B
:102F2000D1048F938091D0048F93DF92CF92FF9240
:102F3000EF928CEB91E09F938F9381E08F938CE2E3
:102F40008F93CE0101967C019F938F930E94562E02
:102F5000C090C604D090C704D60118966D917C919C
:102F6000C7010E94BC278C01C6010E94B0040FB6A5
:102F7000F894DEBF0FBECDBF8823D1F1D6011896DD
:102F8000AD90BC90B50187E492E00E94BC27980107
:102F9000295F3F4F820F931FA816B90648F1F6012B
:102FA0006681778145E050E087E492E00E94570116
:102FB000F701BC016E197F095B01AE0EBF1ED60181
:102FC00016964D915C919F012E193F0920173107EC
:102FD00030F42191D501A40FB51F2C93EDCF0550EE
:102FE00011099801280F391F60E3C6010E94E5040A
:102FF0006FE572E086ED94E00E942517B70186ED3B
:1030000094E00E942517C05CDE4F0FB6F894DEBF37
:103010000FBECDBFDF91CF911F910F91FF90EF9029
:10302000DF90CF90BF90AF9008956BE672E086ED91
:1030300094E00C9425173F924F925F926F927F928B
:103040008F929F92AF92BF92CF92DF92EF92FF92B8
:103050000F931F93CF93DF93CDB7DEB7EA970FB6E9
:10306000F894DEBF0FBECDBF7C012A013B01690190
:103070000E9491024B015C0187010D5B1F4FC8014B
:103080000E94F910181619069CF00E949102681906
:1030900079098A099B09461657066806790608F4D5
:1030A00066C162E370E080E090E00E945F02E7CFDB
:1030B00042E250E0BE016F5F7F4FC8010E94B01036
:1030C00089818230D1F0312C832DEA960FB6F894A5
:1030D000DEBF0FBECDBFDF91CF911F910F91FF904B
:1030E000EF90DF90CF90BF90AF909F908F907F90A8
:1030F0006F905F904F903F900895F8018489958973
:103100008334910501F76D817E818F8198850E94BE
:10311000D42C4B015C01F60180829182A282B382A1
:1031200046E050E0B701685F7F4FCE014D960E94A8
:10313000062E892B41F6F70180819181A281B3810E
:1031400088169906AA06BB0608F4BDCF848195812E
:10315000A681B78188159905AA05BB0508F4B3CFE8
:1031600089899A89AB89BC8986879787A08BB18B1F
:103170004EEC50E070E060E0C8010E94B010312CCD
:10318000C701829698AB8FA7F701B696FAABE9AB69
:1031900008969CAB8BAB67019AE1C90ED11CBD961A
:1031A000FEABEDABC701429698AF8FABFD97FAAF80
:1031B000E9AF4701FEE18F0E911CF801818D928DE0
:1031C000181619060CF080CFC8010E94CF10833367
:1031D000910509F4B2C014F58130910509F464C079
:1031E00044F4892B51F3C8010E94CF10AC0155273C
:1031F00075C08330910509F462C00697A1F7C80134
:103200000E94CF10B82E44E050E0B401C8010E94E3
:10321000B010EB2DE450FF0BAF0160C08A33910575
:1032200009F45FC084F585339105B1F1C697D9F6ED
:10323000C8010E94CF105C01B601CE0189960E94A0
:1032400086098BA59CA5ADA5BEA5892B8A2B8B2BAA
:10325000B1F0EDA9FEA94080518062807380B60173
:10326000CE0183960E9486098DA19EA1AFA1B8A52B
:10327000A501481659066A067B0609F0B8CF44E056
:1032800050E0B60118C08B33910509F440C08F3F60
:10329000910509F492CFA7CFC8010E94CF10C801B1
:1032A0000E94CF10382E89CFC8010E94CF1044E071
:1032B00050E06FA978ADC8010E94B0107ECFC80160
:1032C0000E94CF10B82E44E050E069AD7AADC8013D
:1032D0000E94B0108B2D8450990BAC0170E060E01F
:1032E000EACFC8010E94CF1044E050E069A97AA952
:1032F000C8010E94B010F70166A177A180A591A531
:103300000E94D42C66A377A380A791A756CFC801AB
:103310000E94CF1044E050E06BA97CA9C8010E9434
:10332000B010F70162A573A584A595A50E94D42CC1
:1033300062A773A784A795A740CFC8010E94CF10AA
:1033400044E050E06FA578A9C8010E94B010F701D1
:1033500062A173A184A195A10E94D42C62A373A33E
:1033600084A395A366A777A780AB91AB26CF332420
:103370003A94AACE7F928F929F92AF92BF92CF92B1
:10338000DF92EF92FF920F931F93CF93DF93CDB70E
:10339000DEB7A6970FB6F894DEBF0FBECDBF8C0187
:1033A000762E942E852E20E2A22ECE0101967C014F
:1033B000DC01EA2D1D92EA95E9F76801F3E4CF0EEE
:1033C000D11C8DE991E09AA389A38FEF8BA38CA3E5
:1033D0008DA38EA343E450E0BE016F5D7F4FC60115
:1033E0000E94D808019609F4BFC081E089838A83CE
:1033F00086E0B82EBB821C82D80114966D917D9117
:103400008D919C9117970E94D42C6D837E838F831E
:10341000988789869A8680E890E09C878B874CE124
:1034200050E0B701C6010E94DB0EFE0137968AE12B
:10343000DF011D928A95E9F74801B8E08B0E911CD7
:10344000F401D70101900D92BA94E1F740E150E008
:10345000B701C6010E94DB0EF7011192AA94E9F7A9
:1034600096E0A92EB12C40E250E0B701C6010E94BF
:10347000DB0EF1E0AF1AB108B1F783E6898392E879
:103480009A8393E59B838C8385E38D8381E08E8390
:103490007F829DE3988797E099878A8786E0F40189
:1034A000DE011B9601900D928A95E1F78CE0898BE5
:1034B0008A8B65E872E0CE0143960E94352ED801D2
:1034C0001B966C91CE0149960E944501F8016485D6
:1034D000CE014B960E944501D8011D966C91CE01FC
:1034E0004D960E9445014EE150E0B701C6010E9491
:1034F000DB0EB3E07B121EC082E3898384E08A8303
:10350000F80196859B8397859C8390899D839189FB
:103510009E8396E39F838887828D8987838D8A87A0
:10352000848D8B87858D8C874CE050E0B701C60178
:103530000E94DB0E87E3898386E08A8391E09B8388
:1035400093E09C838D838FE08E838AE38F838BE36C
:1035500088878FEF898749E050E0B701C6010E9454
:10356000DB0EC6010E94D60AA6960FB6F894DEBFFF
:103570000FBECDBFDF91CF911F910F91FF90EF90C4
:10358000DF90CF90BF90AF909F908F907F900895E5
:103590000C947D2D1F920F920FB60F9211242F9332
:1035A0003F938F939F93AF93BF938091A10490918A
:1035B000A204A091A304B091A4043091A00423E03C
:1035C000230F2D3758F50196A11DB11D2093A0049E
:1035D0008093A1049093A204A093A304B093A404A5
:1035E0008091A5049091A604A091A704B091A8048D
:1035F0000196A11DB11D8093A5049093A604A093EC
:10360000A704B093A804BF91AF919F918F913F9170
:103610002F910F900FBE0F901F90189526E8230F43
:103620000296A11DB11DD2CF1F920F920FB60F921D
:1036300011242F933F934F935F936F937F938F93B7
:103640009F93AF93BF93EF93FF9386ED94E00E9417
:103650002104FF91EF91BF91AF919F918F917F9145
:103660006F915F914F913F912F910F900FBE0F90EF
:103670001F9018951F920F920FB60F9211242F933F
:103680008F939F93EF93FF93E091E604F091E7040B
:103690008081E091EC04F091ED0482FD1BC09081EB
:1036A0008091EF048F5F8F732091F004821741F0B7
:1036B000E091EF04F0E0EA52FB4F958F8093EF0426
:1036C000FF91EF919F918F912F910F900FBE0F90CF
:1036D0001F9018958081F4CF0F931F93CF93DF93A2
:1036E000E6EDF4E01382128288EE93E0A0E0B0E011
:1036F00084839583A683B7832DE431E031832083CF
:1037000025EC30E03587248724EC30E037872687A6
:1037100020EC30E0318B208B21EC30E0338B228B9E
:1037200022EC30E0358B248B26EC30E0378B268B77
:10373000118E128E138E148EE3E7F5E0CDE9D1E001
:10374000D183C0831282138214821582E9E7F5E0E7
:10375000D183C0831282138214821582EFE7F5E0D1
:10376000D183C0831282138214821582E5E8F5E0CA
:10377000D183C0831282138214821582EBE8F5E0B4
:10378000D183C0831282138214821582E1E9F5E0AD
:10379000D183C0831282138214821582EDE9F5E091
:1037A000D183C0831282138214821582E7E9F5E087
:1037B000D183C0831282138214821582E3EAF5E07A
:1037C000D183C0831282138214821582E9EAF5E064
:1037D000D183C0831282138214821582EFEAF5E04E
:1037E000D183C0831282138214821582E5EBF5E047
:1037F000D183C0831282138214821582E3EFF5E035
:10380000D183C0831282138214821582E4EEF5E024
:103810001382128284839583A683B7838BE691E01B
:103820009183808384E0848788EE93E09687858700
:103830000BEB15E0D80113961C921E9212978FE5A0
:1038400091E011969C938E935C96DC93CE935B975C
:103850005D961D921D921D921C9290978FEF9FEF87
:1038600098969C938E9397971596FC93EE93149746
:1038700096961C921E92959780E091E00E94E12C12
:10388000F8019783868380E091E0918780878FE0BD
:1038900090E09387828795878487E9EFF5E0D1836D
:1038A000C0831282138214821582AFEFB5E082E0EA
:1038B00015968C93159786E116968C931697EAEADF
:1038C000F1E0E4911796EC931797E6E9F1E0E491C3
:1038D0001896EC93189740E85EE360E070E01D9660
:1038E0004D935D936D937C935097DF91CF911F9192
:1038F0000F910895CF93DF93CDB7DEB72D970FB615
:10390000F894DEBF0FBECDBF789484B5826084BDCD
:1039100084B5816084BD85B5826085BD85B58160D3
:1039200085BD80916E00816080936E001092810051
:10393000809181008260809381008091810081600C
:1039400080938100809180008160809380008091CD
:10395000B10084608093B1008091B0008160809359
:10396000B00080917A00846080937A0080917A0020
:10397000826080937A0080917A00816080937A00DF
:1039800080917A00806880937A001092C100E09163
:10399000E604F091E70482E08083E091E204F09194
:1039A000E3041082E091E404F091E5048FEC80835D
:1039B0001092EE04E091EA04F091EB0486E080833B
:1039C000E091E804F091E904808180618083E091D6
:1039D000E804F091E904808188608083E091E80444
:1039E000F091E904808180688083E091E804F0919F
:1039F000E90480818F7D808310928F04109290045F
:103A000010929104109292041092930410929404D4
:103A100010929504109296041092970410929804B4
:103A20001092990410929A0410929B0460E083E033
:103A30000E94FE0162E087E00E94FE0162E0809148
:103A400004060E94FE010E949102605D7740810998
:103A50009109609308067093090680930A06909373
:103A60000B0687E38093110661E084E00E94FE016B
:103A700061E085E00E94FE0161E086E00E94FE01B7
:103A800061E088E00E94FE0160E084E00E94D001D5
:103A90008BEB95E09093C7048093C60485E198E191
:103AA000909388048093870464E972E086ED94E043
:103AB0000E94251778EE872E73E0972EA12CB12C4B
:103AC00080911C0481112AC01092040410920304F6
:103AD00028EE33E040E050E02093050430930604E4
:103AE000409307045093080483E291E0909302040A
:103AF000809301048DE991E09093100480930F046A
:103B000010921104109212041092130410921404D3
:103B100084E08093190481E080931C048EEB93E091
:103B20009093BD038093BC038091BB038111ADC012
:103B300060E372E080E090E00E945F02DFB6F894FC
:103B40000EE911E062EBE62E61E0F62E8091B903FA
:103B5000811125C0F8018491F7019491E82FF0E0DC
:103B6000EE0FFF1FEE59FE4FA591B4918C91982353
:103B700021F461E08AE00E94D00161E08AE00E94C5
:103B8000FE018CB580618CBD8CB580648CBD61E01C
:103B90008DE00E94FE0161E08BE00E94FE018091B9
:103BA000B9038F5F8093B903DFBEF8010491E02F62
:103BB000F0E0EE0FFF1FE459FE4F85919491909332
:103BC000B8038093B703F701E490E092B60361E095
:103BD0008AE00E94FE010E945A0780E591E00E945F
:103BE000420184E38093C50480E80E9426080E9475
:103BF0001A0B882309F45FC288E00E9426080E94FD
:103C0000070B883009F057C280E10E9426080E9405
:103C1000070B803109F04FC280E00E9426080E9405
:103C2000070B182F811147C241E050E0BE016F5FC2
:103C30007F4F8FE190E00E9492098981833009F0E3
:103C40003AC280E48093BA0342E06EE170E0812FD3
:103C50000E94820842E06FE170E0812F0E9482089A
:103C60001F5F143089F740E06EE170E0812F0E9401
:103C7000820840E06FE170E0812F0E9482081F5FA0
:103C8000183089F781E08093BB0380E591E00E94C2
:103C9000420146E050E060E071E089E090E00E947F
:103CA00076078DE991E09A8389831B821C821D82AD
:103CB0001E8244E050E0BE016D5F7F4F8FE090E0D8
:103CC0000E9476070091BC031091BD03D801929623
:103CD0001D921D921D921C929597F80116A217A293
:103CE00010A611A69A961D921D921D921C929D9748
:103CF00020E63AEE40E050E0D6962D933D934D936A
:103D00005C93D99780EA9FE0A0E0B0E082AF93AFE8
:103D1000A4AFB5AF3E9684E1DF011D928A95E9F725
:103D200086E0E0E0F1E0D801189601900D928A95C6
:103D3000E1F77801B2E4EB0EF11CF70110820E946A
:103D400064272FEC37E040E050E00E94FE29DC01C0
:103D5000CB010196A11DB11DF80184839583A68333
:103D6000B78380839183A283B3836801F3E4CF0E8A
:103D7000D11CC6010E94620A64E470E0C6010E9480
:103D8000CB0D882309F400C20E9491022B013C0153
:103D9000312C212CD7018C918330B1F1811101C2DA
:103DA000F80184819581A681B7810196A11DB11D7D
:103DB00084839583A683B7830E9491026419750951
:103DC00086099709A50194010E94672AA90161E06B
:103DD000C8010E94BA1981E0D7018C93F1E02F1637
:103DE0003104C1F20E94910264197509860997098C
:103DF000D801D6962D913D914D915C91D99726177A
:103E000037074807590720F6C6010E94620AF801E1
:103E100084819581A681B7810196A11DB11D8483FE
:103E20009583A683B7830E949102F801FE96608372
:103E30007183828393832A94232809F0A5C180E5A6
:103E400091E00E9442010091BC031091BD03B801B2
:103E5000625F7F4FCE0101960E94860944E050E0E8
:103E6000BE016D5F7F4F8FE090E00E947607B80142
:103E70006A5E7F4FCE0101960E94860944E050E0C1
:103E8000BE016D5F7F4F81E090E00E947607B80130
:103E90006E5E7F4FCE0101960E94860944E050E09D
:103EA000BE016D5F7F4F85E090E00E947607B8010C
:103EB000625E7F4FCE0101960E9486098B819C81B4
:103EC000AD81BE818093990590939A05A0939B053F
:103ED000B0939C050E943A027F73809106019091F5
:103EE00007016827792770930701609306018FEA1D
:103EF00092E00E943E168DE991E09A8389831B82AD
:103F00001C821D821E8280E591E00E94420144E0F5
:103F100050E0BE016D5F7F4F8FE090E00E949209FC
:103F200066ED74E0CE0101960E94F41569EB71E034
:103F300086ED94E00E946715E091C604F091C704F5
:103F40008AEB92E092A381A38BE597E094A383A3ED
:103F50008DE499E0928F818F87E294E0909326041C
:103F60008093250480E6809324048091C604909178
:103F7000C7040E94B004811102C30E949102009103
:103F8000890410918A0420918B0430918C04601B69
:103F9000710B820B930B693873418105910508F40D
:103FA000EEC20E9491026093890470938A04809308
:103FB0008B0490938C0460EF72E086ED94E00E9495
:103FC00025170091C6041091C704C8010E94B004CF
:103FD00081117EC2D80114968D919C91DC01ED91E6
:103FE000FC910688F789E02D0995882309F4A4C17E
:103FF00021E030E0F8013787268787E0E8E1F1E04B
:10400000DE01119601900D928A95E1F7DE0111967D
:1040100085E090E02D91F80146815781FA01E80F83
:10402000F91F208301968C309105A1F7D8011696CF
:10403000ED91FC91B2ECB487D8011696ED91FC910C
:1040400017971B968C911B9785871696ED91FC917F
:1040500017971A968C911A9786871896ED90FC9070
:10406000B70185E093E00E94BC274196F801E8166D
:10407000F90608F096C184819581DC01ED91FC91EF
:104080000488F589E02D099583E693E00E943E16A9
:10409000E091C604F091C70467A170A5072E000C3B
:1040A000880B990B0E94C21569EB71E086ED94E0D4
:1040B0000E94671564C287E38093C50480E80E946C
:1040C00026080E941A0B882329F188E00E942608FE
:1040D0000E94070B8830F1F480E10E9426080E94BC
:1040E000070B182F8031B1F480E00E9426080E944F
:1040F000070B81110FC041E050E0BE016F5F7F4FA1
:1041000089E390E00E9492098981843019F4109328
:10411000BA03B8CD83E38093C50480E80E942608E3
:104120000E941A0B882371F180E10E9426080E94E8
:10413000070B803139F582E10E9426080E94070BA7
:10414000823101F580E00E9426080E94070B811150
:1041500019C084E08093BA0315E51A8741E050E066
:10416000BE01665F7F4F8BE190E00E947607198762
:1041700041E050E0BE01675F7F4F8AE190E00E941E
:10418000760780CD1092C50461ED72E086ED94E073
:104190000E94251760ED77E080E090E00E945F02CA
:1041A0008FCC8430F9F4F80184819581A681B781A0
:1041B0000196A11DB11D84839583A683B7830E94B8
:1041C00091026419750986099709A50194010E9455
:1041D000672AA90163E0C8010E94BA19E2E0D70189
:1041E000EC93FCCD813059F5D801DA964D915D9173
:1041F0006D917C91DD979E012F5F3F4FC8010E941A
:104200001B188B87823009F090C089819A81AB811D
:10421000BC81F80184839583A683B7830E949102B1
:104220006419750986099709A50194010E94672AF6
:10423000A90163E0C8010E94BA19EB85D0CF823092
:1042400009F0CCCDD801DA964D915D916D917C91BC
:10425000DD979E012F5F3F4FC8010E941B188B877F
:10426000853009F05CC023E0F7012083F80182A1CA
:1042700093A1A4A1B5A1892B8A2B8B2B41F424E80F
:1042800033E040E050E022A333A344A355A3F80158
:1042900086A197A1A0A5B1A5892B8A2B8B2B61F4B0
:1042A00082A193A1A4A1B5A1B695A795979587954D
:1042B00086A397A3A0A7B1A7F80182A593A5A4A55B
:1042C000B5A5892B8A2B8B2BA9F482A193A1A4A13C
:1042D000B5A1AC01BD0123E076956795579547954B
:1042E0002A95D1F7841B950BA60BB70B82A793A732
:1042F000A4A7B5A7F80186A197A1A0A5B1A586A7F7
:1043000097A7A0ABB1AB82A593A5A4A5B5A582AB99
:1043100093ABA4ABB5AB22242394312C5FCDFB85AA
:10432000F63019F4D7011C9259CDBB85BF3F09F077
:1043300055CDF701108252CDD80191966D917C91A7
:10434000929714968D919C91DC01ED91FC91D8018E
:1043500093964D915C9194976115710569F0008871
:10436000F189E02D0995019709F442CE2EEF3FEF38
:10437000F80130A727A388CE0684F785E02D2DE924
:1043800031E03A8329835D968D909D90AD90BC90ED
:1043900090978B829C82AD82BE82BE016F5F7F4F01
:1043A000E1CF668177814FE050E085E093E00E94A5
:1043B00057017C01D8011896AD90BC90B5018DE1F4
:1043C00093E00E94BC278E0D9F1D0296F801A8164F
:1043D000B90608F450CE66817781A7018DE193E09C
:1043E0000E9457017C01D8011896AD90BC90B50190
:1043F0008BEB91E00E94BC278E0D9F1D0296F80169
:10440000A816B90608F437CE66817781A7018BEB31
:1044100091E00E9457019C0125503109D801169660
:104420004D915C9160E1C8010E94E5040E949102F7
:10443000F801608B718B828B938B648B758B868B71
:10444000978BF80184819581DC01ED91FC910084CA
:10445000F185E02D0995892BE9F40E949102F8017C
:10446000C488D588E688F7884B015C018C189D08C4
:10447000AE08BF0824853585A8EEB3E00E94892ADE
:1044800086169706A806B906E0F22CEF3FEF30A794
:1044900027A3F1CDBE01685F7F4FC8010E94CE0502
:1044A000643071058105910509F0F0C0D8011696B8
:1044B000ED91FC91179783818111E3C00E949102D5
:1044C000F801648B758B868B978B108E10A617A2C4
:1044D00062E373E086ED94E00E9425170091C60424
:1044E0001091C704D8011896ED90FC90B70187E4AD
:1044F00093E00E94BC270996E816F906C8F1C801A6
:104500000E94B0048823A1F1F80186859785019661
:1045100009F4BEC097878687D8011696ED91FC9165
:1045200017971F968C911F9785831696ED91FC9196
:1045300017971E968C911E97868316966D917C9187
:1045400047E050E087E493E00E945701D8011696B7
:10455000ED91FC911797E80FF91F10829C012450F0
:10456000310916964D915C9162E8C8010E94E504FC
:10457000E0918704F0918804309709F00995009143
:10458000C6041091C704C8010E94B004882309F42E
:1045900045C00E9491024B015C01F80122853385E0
:1045A000A8EEB3E00E94892A4488558866887788F7
:1045B000A5019401241935094609570929013A0131
:1045C000641575058605970590F0408851886288C6
:1045D0007388A50194012419350946095709290151
:1045E0003A01641575058605970508F07FC0D80166
:1045F00058968C915897882309F452C0ECEFFFEF3E
:104600009896FC93EE93979714968D919C91DC016C
:10461000ED91FC910488F589E02D09950E949102A5
:1046200000919C0410919D0420919E0430919F0460
:10463000601B710B820B930B6938734181059105E7
:1046400008F4A7C30E94910260939C0470939D0498
:1046500080939E0490939F040E949D02882351F0B2
:10466000809105068C3009F483C108F028C18B3095
:1046700009F43FC1812C912C50ECA52E5FE7B52E9B
:1046800062C190E098969C938E939797F801F3CC33
:10469000E1E0F0E0D8011F96FC93EE931E973CCF2B
:1046A0001696ED91FC91179780EC80831696ED910C
:1046B000FC911797118214968D919C9115971696DF
:1046C0006D917C91DC01ED91FC910280F381E02DF4
:1046D00042E050E00995F801808A918AA28AB38A63
:1046E000848A958AA68AB78A81E0808FF8018481BE
:1046F0009581DC01ED91FC910084F185E02D099517
:10470000892B09F48BCFBE016F5F7F4FC8010E94D8
:10471000CE052B01672B09F4CEC0F801848A958A57
:10472000A68AB78A0680F781E02D8081807F80335A
:1047300009F0A0C0D80159968D919C91892B09F45C
:104740006DCF498150E0CA0102968E0F9F1FDF0195
:10475000A40FB51F1196EC90F12CFE2CEE24DC0179
:104760006C91E60EF11C4D5F5F4FBF01640F751F2A
:10477000A7010E941C2EE981D80116968D919C916B
:1047800017978E0D9F1DE80FF92FF11D12821696B7
:104790000D90BC91A02D298130E01901E2E02E0E90
:1047A000311C2A0E3B1E8C9186708D87F801C18CBE
:1047B000D28C823009F04BC0B701620F731FFD012C
:1047C000E60FF71F838190E0982F88274481FC0132
:1047D000E40FF11DFC87EB874BEF5FEF421B530BA0
:1047E0004E195F09440D551D6B5F7F4F6A0F7B1F8C
:1047F000C101F6010995D8011696ED91FC91179724
:1048000080E480831696ED91FC91BD85B183D8013B
:104810001696ED91FC91BC85B283D8011696ED9168
:10482000FC91BB85B383F801848195816681778192
:10483000DC01ED91FC910280F381E02D44E050E039
:104840000995F801808A918AA28AB38AE7CE4DEF52
:104850005FEF421B530B4E195F09440D551D2D5F31
:104860003F4F2E0D3F1DBD01620F731FC101F601A9
:104870000995D4CE803CC9F480ED8083D80116968A
:10488000ED91FC911797118214968D919C9115973B
:1048900016966D917C91DC01ED91FC910280F38183
:1048A000E02D42E050E00995B9CE803D09F0B6CE4A
:1048B000F801108EB3CEC8010E94B004AFCE85516E
:1048C000823008F0D7CE10910106612F70E0762F6C
:1048D000662766277F7780910206682B90E080E04C
:1048E0000E94AB2B2DEC3CEC4CEC5DE30E94622C67
:1048F0005BC06091010670E090E080E00E94AB2B0D
:104900004B015C011091020617FF0AC0AC019B012C
:1049100060E070E080E89FEB0E94982A4B015C0108
:104920001F70612F70E090E080E00E94AD2B2DECB5
:104930003CEC4CEC5DE30E94622CA50194010E94CA
:10494000992A4B015C010E949D02882351F08091BD
:1049500005068B3030F08D3080F18551823008F4BF
:104960009EC1412C512C40EC642E4FE7742E43C065
:1049700010910106612F70E090E080E00E94AB2B67
:104980004B015C01609102066F7070E090E080E086
:104990000E94AD2B2DEC3CEC4CEC5DE30E94622CB4
:1049A000A50194010E94992A4B015C0117FFCBCF0E
:1049B000B7FAB094B7F8B094C6CF6091000670E033
:1049C00090E080E00E94AD2B2DEC3CEC4CEC5DE3E4
:1049D0000E94622C2B013C016091FF0570E090E089
:1049E00080E00E94AD2B9B01AC01C301B2010E948B
:1049F000992A2B013C0104E010E0C12CD12C760156
:104A000030E4332E30927C0080917A008064809371
:104A10007A0080917A0086FDFCCF80917800909199
:104A20007900092E000CAA0BBB0BC80ED91EEA1E7A
:104A3000FB1E62E070E080E090E00E945F020150A7
:104A4000110901F7D701C60122E0B695A795979500
:104A500087952A95D1F79093D1048093D00421E0D3
:104A60008C32914008F020E02093D40483E00E942F
:104A7000A7018C010E949102012B09F422C121E0BF
:104A800020939704605F784D8F4F9F4F60939804F9
:104A90007093990480939A0490939B048091970457
:104AA0008093D20487E00E94A70121E0892B09F0BE
:104AB00020E02093D304A5019401C501B4010E9414
:104AC000CF2C811109C0A3019201C301B2010E9440
:104AD000CF2C882309F40BC181E08093D504809109
:104AE0008F0490919004A0919104B09192048093CE
:104AF000C8049093C904A093CA04B093CB048091D6
:104B0000930490919404A0919504B091960480939D
:104B1000CC049093CD04A093CE04B093CF0485E74A
:104B200093E00E943E166091C8047091C904809180
:104B3000CA049091CB0442E00E94431681E893E0BE
:104B40000E943E166091CC047091CD048091CE04F9
:104B50009091CF0442E00E94431686E893E00E94C1
:104B60003E164091D0045091D10470E060E02AE0FC
:104B700086ED94E00E9476158DE893E00E943E1643
:104B80006091D40470E090E080E00E94C21584E956
:104B900093E00E943E166091D20470E090E080E0C5
:104BA0000E94C2158DE993E00E943E166091D304E5
:104BB00070E090E080E00E94C21584EA93E00E94D9
:104BC0003E166091D50470E090E080E00E94C2152E
:104BD00069EB71E086ED94E00E9467158091C60450
:104BE0009091C7040E94B004182F8AEA93E00E94B3
:104BF0003E166CE872E0111102C06FE872E086EDBB
:104C000094E00E94251780918E04811119C0809034
:104C1000CC049090CD04A090CE04B090CF0420E0BE
:104C200030E04AEA52E4C501B4010E945D2C87FDE0
:104C300081C081E080938D0461E084E00E94D00116
:104C400080918D040E9439171091D4048090CC0477
:104C50009090CD04A090CE04B090CF044090C804B2
:104C60005090C9046090CA047090CB040091D504A0
:104C70008091C6049091C7040E94B00461E088232B
:104C800061F0002309F465C061E086E00E94D00174
:104C900060E085E00E94D00160E088E078C060912B
:104CA000FF057091000676276727762790E080E061
:104CB0000E94AB2B2DEC3CEC4CEC5DE30E94622C93
:104CC00098CE20919704222309F4E8CE009198040D
:104CD0001091990420919A0430919B0406171707AC
:104CE0002807390708F0DACE10929704D7CE109231
:104CF000D5048092C8049092C904A092CA04B092CC
:104D0000CB044092CC045092CD046092CE047092B9
:104D1000CF0480928F0490929004A0929104B0925C
:104D2000920440929304509294046092950470927D
:104D30009604F5CE20E030E040EA52E4C501B4012B
:104D40000E94052B18160CF47BCF10928D0460E0A6
:104D500074CF20E030E04CE052E4C301B2010E9485
:104D60005D2C181654F020E030E04AEA52E4C50108
:104D7000B4010E945D2C87FD19C061E088E00E94AB
:104D8000D00160E085E00E94D00160E086E00E94F2
:104D9000D00140E050E0452B09F4E7C80E940D0423
:104DA000882309F4E2C80E940000DFC820E030E058
:104DB00040EF51E4C301B2010E945D2C18160CF4BF
:104DC00063CF20E030E04CE852E4C501B4010E941A
:104DD0005D2C87FF59CF111157CF61E085E00E940C
:104DE000D00160E086E056CF8091C1059091C20568
:104DF0000C947D2DEF920F931F93CF93DF93E801D7
:104E000034E047FD34E1042E000C550B57FF03C07E
:104E1000519541955109E32E022F242FAE010E9496
:104E2000C727CE01DF91CF911F910F91EF90089589
:104E30008F929F92AF92BF92CF92DF92EF92FF92AA
:104E4000CF93DF93EC01688179818A819B81611521
:104E500071058105910521F464E279ED8BE597E018
:104E60002DE133EF41E050E00E94FE2949015A0153
:104E70009B01AC01A7EAB1E40E941D2A6B017C01F1
:104E8000ACEEB4EFA50194010E942B2AC60ED71EEA
:104E9000E81EF91EF7FE06C081E0C81AD108E10835
:104EA00080E8F80AC882D982EA82FB82C701B6018B
:104EB0009F77DF91CF91FF90EF90DF90CF90BF90E1
:104EC000AF909F908F9008958F929F92AF92BF92D4
:104ED000CF92DF92EF92FF926091080170910901E9
:104EE00080910A0190910B01611571058105910571
:104EF00021F464E279ED8BE597E02DE133EF41E0B9
:104F000050E00E94FE2949015A019B01AC01A7EA29
:104F1000B1E40E941D2A6B017C01ACEEB4EFA50147
:104F200094010E942B2AC60ED71EE81EF91EF7FE1A
:104F300006C081E0C81AD108E10880E8F80AC092EA
:104F40000801D0920901E0920A01F0920B01C70119
:104F5000B6019F77FF90EF90DF90CF90BF90AF901A
:104F60009F908F900895609308017093090180933A
:104F70000A0190930B010895FC016150704001906B
:104F80000110D8F7809590958E0F9F1F0895A9E086
:104F9000B0E0EDECF7E20C94362A6A01F22EB02E66
:104FA000102FFBE3AF2EA01608F41BE31F5F012FA9
:104FB00027E0AE014F5F5F4F0E942629BC01898127
:104FC000982F9970913009F43FC09BE2E1FC04C036
:104FD0009E2D9170E0FC3AC05E2D5071E82FE87074
:104FE00083FF46C084E0911101C083E0EF2DE81BF0
:104FF0008F1508F0E0E0D6018E2F20E2552351F105
:10500000992329F0D6019C93C60101966C01960163
:105010002D5F3F4FE2FE24C08EE4D6018C9391E4D5
:1050200011969C93119712968C93D9018E2F90E232
:1050300081111BC0E20FF32FF11D10828EEF9FEF45
:105040002996ECE00C94522A9DE2C6CF90E2C4CFA0
:105050002D9381508111FCCFCE0ED11CE0E0D0CF3A
:105060008EE6D6018C9391E6DBCF9D938150E0CF05
:10507000482F447082FF3DC084E0911101C083E05D
:105080008F1510F4EF2DE81BD6018E2F20E255234B
:1050900009F1992329F0D6019C93C60101966C0170
:1050A00096012D5F3F4FE2FE1BC089E4D6018C9331
:1050B0008EE411968C93119786E412968C93D90105
:1050C0008E2F90E2882309F4B5CF9D938150FACFBB
:1050D0002D9381508111FCCFCE0ED11CE0E0D9CFB1
:1050E00089E6D6018C938EE611968C93119786E60D
:1050F000E4CF9B0177FF02C030E020E0A1E0B0E008
:10510000911102C0B0E0A0E0F9013196AE0FBF1FCF
:105110008B2C912CBB2009F461C05401EFEFAE1A27
:10512000BE0AAA0DBB1DFA161B0619F014F04F2D6E
:105130004A1B511188C0E3FC59C07601A42FB0E28C
:10514000A1114FC0C40ED11C992309F45BC040E0EB
:10515000D6011196F60190836D01552309F448C0DC
:10516000012F060F9A81582F507184FF03C091338D
:1051700009F4015010160CF047C0093008F008E09F
:10518000EEE2FE2E5B01A01AB10885019194819494
:1051900091082F3F320729F4D601FC92F60131968F
:1051A0006F016217730794F1021713077CF5DB0197
:1051B000A21BB30BAA24A394B12CAC0EBD1EAA0D46
:1051C000BB1D11968C9121503109D60111962815DD
:1051D0003905F4F0F60180836D01DBCFB12CA12CF1
:1051E000A0CFF701B1937F01A150AACF9111B0CF09
:1051F000D601942F50E302C05D9391509111FCCFE2
:10520000C40ED11C40E0ACCF01E0BACF80E3DBCFCD
:105210006217730731F4963388F4953311F45523EC
:1052200069F0F6018083FD01842F90E2811108C0AE
:10523000A40FB11D1C9290E080E002CF81E3F1CF7A
:1052400091938150F3CF911183CF8ACF283008F00A
:1052500027E03327DA01990F311D87FD9160009611
:105260006105710539F432602E5F3D9330E32A9574
:10527000E1F708959F3F30F080387105610509F02E
:105280003C5F3C5F3D93913008F08068911DDF9357
:10529000CF931F930F93FF92EF92192F987F9695BC
:1052A000E92F96959695E90FFF27EE53FF4F992723
:1052B0003327EE24FF24A701E70105900894079403
:1052C00028F4360FE71EF81E491F511D660F771F81
:1052D000881F991F0694A1F70590079428F4E70EFC
:1052E000F81E491F561FC11D770F881F991F661F83
:1052F0000694A1F70590079428F4F80E491F561F4D
:10530000C71FD11D880F991F661F771F0694A1F72D
:105310000590079420F4490F561FC71FD81F990FF7
:10532000661F771F881F0694A9F784911095177040
:1053300041F0D695C79557954795F794E7941A95F8
:10534000C1F7E8E6F0E06894159015913591659104
:10535000959105907FE27395E118F10A430B560B86
:10536000C90BD009C0F7E10CF11E431F561FC91F1E
:10537000D01D7EF4703311F48A95E6CFE894015085
:1053800030F0080F0AF40027021708F4202F2395A5
:10539000022F7A3328F079E37D932A95E9F710C03C
:1053A0007D932A9589F60694979567953795179575
:1053B0001794E118F10A430B560BC90BD00998F06A
:1053C00023957E9173957A3308F070E37C932013D4
:1053D000B8F77E9170617D9330F0839571E37D9392
:1053E00070E32A95E1F71124EF90FF900F911F9140
:1053F000CF91DF91992787FD90950895052E97FB12
:105400001EF400940E94152A57FD07D00E94672AB7
:1054100007FC03D04EF40C94152A50954095309516
:1054200021953F4F4F4F5F4F089590958095709510
:1054300061957F4F8F4F9F4F08950E94892AA59FA6
:10544000900DB49F900DA49F800D911D112408957F
:10545000B7FF0C941D2A0E941D2A821B930B0895EE
:105460002F923F924F925F926F927F928F929F9274
:10547000AF92BF92CF92DF92EF92FF920F931F9362
:10548000CF93DF93CDB7DEB7CA1BDB0B0FB6F89413
:10549000DEBF0FBECDBF09942A88398848885F8453
:1054A0006E847D848C849B84AA84B984C884DF80C4
:1054B000EE80FD800C811B81AA81B981CE0FD11DA8
:1054C0000FB6F894DEBF0FBECDBFED010895A1E287
:1054D0001A2EAA1BBB1BFD010DC0AA1FBB1FEE1F6E
:1054E000FF1FA217B307E407F50720F0A21BB30BB9
:1054F000E40BF50B661F771F881F991F1A9469F735
:1055000060957095809590959B01AC01BD01CF0190
:105510000895A29FB001B39FC001A39F700D811D8C
:105520001124911DB29F700D811D1124911D0895AC
:105530005058BB27AA270E94B02A0C94232C0E9403
:10554000152C38F00E941C2C20F039F49F3F19F4E0
:1055500026F40C94122C0EF4E095E7FB0C940C2C22
:10556000E92F0E94342C58F3BA1762077307840797
:10557000950720F079F4A6F50C94562C0EF4E095DE
:105580000B2EBA2FA02D0B01B90190010C01CA01FD
:10559000A0011124FF27591B99F0593F50F4503EA8
:1055A00068F11A16F040A22F232F342F4427585F9A
:1055B000F3CF469537952795A795F0405395C9F7B2
:1055C0007EF41F16BA0B620B730B840BBAF091506A
:1055D000A1F0FF0FBB1F661F771F881FC2F70EC009
:1055E000BA0F621F731F841F48F4879577956795DC
:1055F000B795F7959E3F08F0B0CF9395880F08F0C8
:105600009927EE0F9795879508950E94E82B08F447
:1056100081E008950E941E2B0C94232C0E941C2CC8
:1056200058F00E94152C40F029F45F3F29F00C94AB
:105630000C2C51110C94572C0C94122C0E94342CCD
:1056400068F39923B1F3552391F3951B550BBB27B1
:10565000AA2762177307840738F09F5F5F4F220FF6
:10566000331F441FAA1FA9F335D00E2E3AF0E0E8ED
:1056700032D091505040E695001CCAF72BD0FE2F37
:1056800029D0660F771F881FBB1F261737074807CB
:10569000AB07B0E809F0BB0B802DBF01FF27935883
:1056A0005F4F3AF09E3F510578F00C940C2C0C940F
:1056B000572C5F3FE4F3983ED4F386957795679532
:1056C000B795F7959F5FC9F7880F911D96958795B8
:1056D00097F90895E1E0660F771F881FBB1F6217D7
:1056E00073078407BA0720F0621B730B840BBA0B95
:1056F000EE1F88F7E09508950E943C2C88F09F5794
:1057000098F0B92F9927B751B0F0E1F0660F771FE5
:10571000881F991F1AF0BA95C9F714C0B13091F0DB
:105720000E94562CB1E008950C94562C672F782FC8
:105730008827B85F39F0B93FCCF3869577956795A0
:10574000B395D9F73EF490958095709561957F4F0C
:105750008F4F9F4F0895E89409C097FB3EF49095B2
:105760008095709561957F4F8F4F9F4F9923A9F03A
:10577000F92F96E9BB279395F695879577956795C9
:10578000B795F111F8CFFAF4BB0F11F460FF1BC00D
:105790006F5F7F4F8F4F9F4F16C0882311F096E9A0
:1057A00011C0772321F09EE8872F762F05C066234E
:1057B00071F096E8862F70E060E02AF09A95660F07
:1057C000771F881FDAF7880F9695879597F90895C0
:1057D000990F0008550FAA0BE0E8FEEF1616170602
:1057E000E807F907C0F012161306E407F50798F06A
:1057F000621B730B840B950B39F40A2661F0232B83
:10580000242B252B21F408950A2609F4A140A695FE
:105810008FEF811D811D089597F99F6780E870E0E3
:1058200060E008959FEF80EC089500240A94161616
:10583000170618060906089500240A94121613067E
:10584000140605060895092E0394000C11F488230C
:1058500052F0BB0F40F4BF2B11F460FF04C06F5F28
:105860007F4F8F4F9F4F089557FD9058440F551FFE
:1058700059F05F3F71F04795880F97FB991F61F0D2
:105880009F3F79F087950895121613061406551F49
:10589000F2CF4695F1DF08C0161617061806991FB5
:1058A000F1CF86957105610508940895E894BB27AA
:1058B00066277727CB0197F908950E94E82B08F413
:1058C0008FEF08950E94752C0C94232C0E94152CA8
:1058D00038F00E941C2C20F0952311F00C940C2C15
:1058E0000C94122C11240C94572C0E94342C70F31D
:1058F000959FC1F3950F50E0551F629FF001729F75
:10590000BB27F00DB11D639FAA27F00DB11DAA1F83
:10591000649F6627B00DA11D661F829F2227B00DD0
:10592000A11D621F739FB00DA11D621F839FA00D5B
:10593000611D221F749F3327A00D611D231F849FAB
:10594000600D211D822F762F6A2F11249F57504002
:105950009AF0F1F088234AF0EE0FFF1FBB1F661F7D
:10596000771F881F91505040A9F79E3F510580F046
:105970000C940C2C0C94572C5F3FE4F3983ED4F31A
:10598000869577956795B795F795E7959F5FC1F7EA
:10599000FE2B880F911D9695879597F908950E9483
:1059A000E82B880B990B0895692796276927782794
:1059B000872778270895EE0FFF1F0590F491E02DBB
:1059C00009940F931F93CF93DF938230910510F4C6
:1059D00082E090E0E0911406F091150630E020E0BE
:1059E000B0E0A0E0309799F42115310509F44AC0E0
:1059F000281B390B24303105D8F58A819B8161152C
:105A0000710589F1FB0193838283FE0111C04081FE
:105A100051810281138148175907E0F0481759074F
:105A200099F4109761F012960C93129713961C93A9
:105A30003296CF01DF91CF911F910F91089500937E
:105A4000140610931506F4CF2115310551F04217B5
:105A5000530738F0A901DB019A01BD01DF01F8010C
:105A6000C1CFEF01F9CF9093150680931406CDCFE7
:105A7000FE01E20FF31F8193919322503109398384
:105A80002883D7CF2091120630911306232B41F49F
:105A900020910E0130910F013093130620931206CE
:105AA00020910C0130910D012115310541F42DB7E4
:105AB0003EB74091100150911101241B350BE0912C
:105AC0001206F0911306E217F307A0F42E1B3F0B0A
:105AD0002817390778F0AC014E5F5F4F2417350760
